:100000000C94BC130C94D9130C94D9130C94D913DD
:100010000C94D9130C94D9130C94D9130C94D913B0
:100020000C94D9130C94D9130C94D9130C94D913A0
:100030000C94D9130C94D9130C94D9130C94D91390
:100040000C940C1A0C94D9130C94D9130C94D91346
:100050000C94D9130C94D9130C94D9130C94D91370
:100060000C94D9130C94D913000000000000003E3A
:100070004551453E003E6B6F6B3E001C3E7C3E1C76
:1000800000183C7E3C180030367F363000185C7E0D
:100090005C1800001818000000FFE7E7FFFF003CB5
:1000A00024243C0000C3DBDBC3FF0030484A360E8B
:1000B0000006297929060060703F020400607E0A6C
:1000C000353F002A1C361C2A00007F3E1C08000811
:1000D0001C3E7F000014367F361400005F005F0076
:1000E0000006097F017F00224D55592200606060A3
:1000F00060000014B6FFB6140004067F060400106A
:10010000307F30100008083E1C0800081C3E08081C
:1001100000784040404000083E083E0800303C3F28
:100120003C3000030F3F0F03000000000000000000
:10013000065F060000070300070300247E247E24D8
:1001400000242B6A120000631308646300364956CA
:10015000205000000703000000003E4100000000A6
:10016000413E000000083E1C3E080008083E08080A
:100170000000E06000000008080808080000606057
:100180000000002010080402003E5149453E0000D6
:10019000427F4000006251494946002249494936A0
:1001A000001814127F10002F49494931003C4A4978
:1001B00049300001710905030036494949360006F6
:1001C0004949291E00006C6C00000000EC6C000026
:1001D0000008142241000024242424240000412289
:1001E0001408000201590906003E415D551E007EBB
:1001F0001111117E007F49494936003E414141229B
:10020000007F4141413E007F49494941007F090942
:100210000901003E4149497A007F0808087F000033
:10022000417F410000304040403F007F08142241A0
:10023000007F40404040007F0204027F007F0204B4
:10024000087F003E4141413E007F09090906003E0A
:100250004151215E007F090919660026494949324A
:100260000001017F0101003F4040403F001F20404E
:10027000201F003F403C403F006314081463000708
:100280000870080700714945430000007F414100A4
:10029000000204081020000041417F000004020118
:1002A000020400808080808000000307000000209E
:1002B00054545478007F444444380038444444281B
:1002C00000384444447F00385454540800087E09E0
:1002D00009000018A4A4A47C007F04047800000096
:1002E000007D4000004080847D00007F1028440095
:1002F0000000007F4000007C04180478007C0404A7
:10030000780000384444443800FC44444438003801
:10031000444444FC004478440408000854545420E5
:1003200000043E442400003C40207C00001C20408F
:10033000201C003C6030603C006C10106C00009C85
:10034000A0603C00006454544C0000083E41410051
:10035000000000770000000041413E080002010259
:100360000100003C2623263C0000000000000000A5
:10037000000000000000000000000000000000007D
:10038000000000000000000000000000000000006D
:10039000000000000000000000000000000000005D
:1003A000000000000000000000000000000000004D
:1003B0000000000000000000FCFC030333330303D3
:1003C000030333330303FCFCFFFF00000C0C3C3C35
:1003D0003C3C0C0C0000FFFF03030C0C0C0C0C0C41
:1003E0000C0C0C0C0C0C03030000000000000000BF
:1003F0000000000000000000FCFCFFFFCFCFFFFF6B
:10040000FFFFCFCFFFFFFCFCFFFFFFFFF3F3C3C3F2
:10041000C3C3F3F3FFFFFFFF03030F0F0F0F0F0F14
:100420000F0F0F0F0F0F030300000000000000006C
:100430000000000000000000C0C0F0F0F0F0C0C0FC
:10044000F0F0F0F0C0C000003F3FFFFFFFFFFFFFF4
:10045000FFFFFFFF3F3F00000000000003030F0FFE
:100460000303000000000000000000000000000086
:10047000000000000000000000000000C0C0F0F01C
:10048000C0C00000000000000C0C3F3FFFFFFFFF5A
:10049000FFFF3F3F0C0C00000000000000000303C2
:1004A000000000000000000000000000000000004C
:1004B000000000000000000000000000F0F0FCFC64
:1004C000FCFCF0F000000000FFFF3F3F3F3FC0C0DA
:1004D000C0C03F3F3F3FFFFF000000000C0C0F0F6C
:1004E0000F0F0C0C000000000000000000000000D6
:1004F00000000000000000000000C0C0F0F0FCFCA4
:10050000FCFCF0F0C0C000000F0F3F3F3F3FFFFF7B
:10051000FFFF3F3F3F3F0F0F000000000C0C0F0F8D
:100520000F0F0C0C00000000000000000000000095
:1005300000000000000000000000000000000000BB
:100540000000000000000000000000003C3CFFFF35
:10055000FFFF3C3C00000000000000000000000025
:100560000000000000000000F0F0F0F0F0F0F0F00B
:10057000F0F0F0F0F0F0F0F0FFFFFFFFFFFFFFFF03
:10058000FFFFFFFFFFFFFFFFFFFFFFFFC3C30000F1
:100590000000C3C3FFFFFFFFFFFFFFFFFFFFFFFFE1
:1005A000FFFFFFFFFFFFFFFF0F0F0F0F0F0F0F0FDB
:1005B0000F0F0F0F0F0F0F0F00000000C0C0C0C0C3
:1005C000C0C0C0C0000000000000FFFFC3C30000A7
:1005D0000000C3C3FFFF000000000000030303038B
:1005E0000303030300000000F0F0F0F0F0F0F0F07F
:1005F000F0F0F0F0F0F0F0F0FFFFFFFF3F3F3F3F83
:100600003F3F3F3FFFFFFFFFFFFF00003C3CFFFF7E
:10061000FFFF3C3C0000FFFFFFFFFFFFFCFCFCFC7A
:10062000FCFCFCFCFFFFFFFF0F0F0F0F0F0F0F0F66
:100630000F0F0F0F0F0F0F0F00000000C0C0F3F3DC
:100640003F3F0F0FFFFF0000FCFCFFFF030303030E
:10065000FFFFFCFC0000000003030F0F0C0C0C0C50
:100660000F0F030300000000000000000000000066
:1006700000000000000000000000FCFCFFFF03037E
:100680000303FFFFFCFC00000000C3C3CFCFFCFC52
:10069000FCFCCFCFC3C300000000000000000F0F20
:1006A0000F0F00000000000000000000000000002C
:1006B000000000000000000000000000FFFFFFFF3E
:1006C000333333333F3F3F3F0000C0C0FFFFFFFFE6
:1006D00000000000000000000F0F0F0F0F0F0303BA
:1006E000000000000000000000000000000000000A
:1006F00000000000000000000000FFFFFFFF333398
:1007000033333333FFFFFFFF0000FFFFFFFF000025
:100710000000C0C0FFFFFFFF3F3F3F3F0F0F000043
:1007200000000F0F0F0F0303000000000000000087
:100730000000000000000000C0C0C0C00000FCFCC1
:10074000FCFC0000C0C0C0C0CCCCCCCC3F3FF3F31D
:10075000F3F33F3FCCCCCCCC0000000000000F0FE7
:100760000F0F000000000000C0C0000000000000EB
:100770000000000000000000FFFFFFFFFCFCF0F0A5
:10078000C0C0000000000000FFFFFFFFFFFF3F3F71
:100790000F0F0303030300000F0F0303000000000B
:1007A0000000000000000000000000000000000049
:1007B00000000000C0C0000000000000C0C0F0F059
:1007C000FCFCFFFFFFFF0000030303030F0F3F3F8D
:1007D000FFFFFFFFFFFF000000000000000000001F
:1007E000000003030F0F00000000000000000000E5
:1007F0000000000000000000000030303C3CFFFF23
:10080000FFFF3C3C303000000000C0C0C0C0FFFF14
:10081000FFFFC0C0C0C000000000000003030F0FB6
:100820000F0F0303000000000000000000000000A4
:1008300000000000000000000000FFFFFFFF0000BC
:100840000000FFFFFFFF000000003F3F3F3F0000B0
:1008500000003F3F3F3F000000000F0F0F0F000060
:1008600000000F0F0F0F000000000000000000004C
:100870000000000000000000FCFCFFFF0303FFFF7E
:10088000FFFF0303FFFFFFFF000003030303FFFF5E
:10089000FFFF0000FFFFFFFF0000000000000F0F40
:1008A0000F0F00000F0F0F0F0000C0C0C0C0C0C06E
:1008B000C0C0C0C0000000000303CFCFFCFC30303C
:1008C000F0F0C3C3030300000F0F3F3FF0F0C0C0C0
:1008D000F0F03F3F0F0F00000C0C3C3C303030304C
:1008E00033333F3F0C0C000000000000000000000C
:1008F00000000000000000000000000000000000F8
:100900000000000000000000F0F0F0F0F0F0F0F067
:10091000F0F0F0F0F0F000000F0F0F0F0F0F0F0FBF
:100920000F0F0F0F0F0F000000000000000000006D
:100930000000000000000000000030303C3CFFFFE1
:10094000FFFF3C3C303000000000C0C0C0C0FFFFD3
:10095000FFFFC0C0C0C000000000303033333F3F55
:100960003F3F333330300000000000000000000043
:100970000000000000000000000030303C3CFFFFA1
:10098000FFFF3C3C30300000000000000000FFFF93
:10099000FFFF0000000000000000000000000F0F3B
:1009A0000F0F000000000000000000000000000029
:1009B0000000000000000000000000000000FFFF39
:1009C000FFFF0000000000000000C0C0C0C0FFFF2B
:1009D000FFFFC0C0C0C000000000000003030F0FF5
:1009E0000F0F0303000000000000000000000000E3
:1009F0000000000000000000000000000000C0C077
:100A0000C0C00000000000000C0C0C0C0C0CCCCC86
:100A1000FFFF3F3F0C0C0000000000000000000042
:100A200000000000000000000000000000000000C6
:100A3000000000000000000000000000C0C0C0C0B6
:100A400000000000000000000C0C3F3FFFFFCCCC7A
:100A50000C0C0C0C0C0C000000000000000000004E
:100A60000000000000000000000000000000000086
:100A70000000000000000000C0C0C0C00000000076
:100A80000000000000000000FFFFFFFFC0C0C0C06A
:100A9000C0C0C0C0C0C000000000000000000000D6
:100AA0000000000000000000000000000000000046
:100AB000000000000000000000000000C0C00000B6
:100AC000C0C00000000000000C0C3F3FFFFF0C0CFA
:100AD000FFFF3F3F0C0C0000000000000000000082
:100AE0000000000000000000000000000000000006
:100AF000000000000000000000000000C0C0F0F096
:100B0000C0C0000000000000C0C0FCFCFFFFFFFFF1
:100B1000FFFFFCFCC0C00000030303030303030347
:100B200003030303030300000000000000000000B3
:100B30000000000000000000F0F0F0F0F0F0F0F035
:100B4000F0F0F0F0F0F0000000000F0FFFFFFFFFEB
:100B5000FFFF0F0F00000000000000000000030373
:100B60000000000000000000000000000000000085
:100B70000000000000000000000000000000000075
:100B80000000000000000000000000000000000065
:100B90000000000000000000000000000000000055
:100BA0000000000000000000000000000000000045
:100BB000000000000000000000000000FCFCFFFF3F
:100BC000FFFFFCFC000000000000000000003F3FB1
:100BD0003F3F0000000000000000000000000F0F79
:100BE0000F0F0000000000000000C0C0C0C00000E7
:100BF0000000C0C0C0C0000000000F0F3F3F000059
:100C000000003F3F0F0F0000000000000000000048
:100C100000000000000000000000000000000000D4
:100C200000000000000000000000000000000000C4
:100C30000000000000000000C0C0FCFCFCFCC0C0C4
:100C4000FCFCFCFCC0C00000C0C0FFFFFFFFC0C038
:100C5000FFFFFFFFC0C0000000000F0F0F0F0000DC
:100C60000F0F0F0F00000000000000000000F0F068
:100C7000F0F0000000000000FCFCFFFF0303030392
:100C800003030F0F3C3C0000F0F0C3C30303030356
:100C90000303FFFFFCFC00000000030303033F3FCE
:100CA0003F3F0303000000000000000000000000C0
:100CB0000000000000000000F0F0F0F00000000074
:100CC0000000C0C0F0F000000000C0C0F0F03C3CEC
:100CD0000F0F0303000000000F0F030300000000CC
:100CE00000000F0F0F0F00000000000000000000C8
:100CF000000000000000000000003C3CFFFFC3C3F8
:100D0000FFFF3C3C00000000FCFCFFFF03030F0F53
:100D1000FCFCFFFF0303000003030F0F0C0C0C0C83
:100D200003030F0F0C0C000000000000C0C0C0C087
:100D30000000000000000000000030303F3F0F0FB7
:100D400000000000000000000000000000000000A3
:100D50000000000000000000000000000000000093
:100D60000000000000000000000000000000000083
:100D7000000000000000000000000000F0F0FCFC9B
:100D80000F0F03030000000000000000FFFFFFFF43
:100D9000000000000000000000000000000003034D
:100DA0000F0F0C0C0000000000000000000000000D
:100DB00000000000000000000000000003030F0F0F
:100DC000FCFCF0F00000000000000000000000004B
:100DD000FFFFFFFF00000000000000000C0C0F0FE1
:100DE00003030000000000000000000000000000FD
:100DF00000000000000000000000C0C0C0C00000F3
:100E00000000C0C0C0C000000C0CCCCCFFFF3F3FB6
:100E10003F3FFFFFCCCC0C0C0000000000000000A6
:100E200000000000000000000000000000000000C2
:100E30000000000000000000000000000000C0C032
:100E4000C0C000000000000000000C0C0C0CFFFFF4
:100E5000FFFF0C0C0C0C0000000000000000000064
:100E60000000000000000000000000000000000082
:100E70000000000000000000000000000000000072
:100E80000000000000000000000000000000C0C0E2
:100E9000C0C00000000000000000000030303F3FF4
:100EA0000F0F000000000000000000000000000024
:100EB0000000000000000000000000000000000032
:100EC00000000000000000000C0C0C0C0C0C0C0CC2
:100ED0000C0C0C0C0C0C00000000000000000000CA
:100EE0000000000000000000000000000000000002
:100EF00000000000000000000000000000000000F2
:100F000000000000000000000000000000000000E1
:100F100000000000000000000000000000000F0FB3
:100F20000F0F0000000000000000000000000000A3
:100F300000000000000000000000000000000000B1
:100F40000000C0C0F0F000000000C0C0F0F03C3C69
:100F50000F0F0303000000000F0F03030000000049
:100F60000000000000000000000000000000000081
:100F70000000000000000000FCFCFFFF030303036F
:100F8000C3C3FFFFFCFC0000FFFFFFFF30300F0F6B
:100F90000000FFFFFFFF000003030F0F0C0C0C0C01
:100FA0000C0C0F0F03030000000000000000000005
:100FB0000000000000000000000030303C3CFFFF5B
:100FC000FFFF000000000000000000000000FFFF25
:100FD000FFFF00000000000000000C0C0C0C0F0FC5
:100FE0000F0F0C0C0C0C00000000000000000000B3
:100FF00000000000000000000C0C0F0F03030303AF
:10100000C3C3FFFF3C3C0000C0C0F0F03C3C0F0FEE
:1010100003030000000000000F0F0F0F0C0C0C0C5E
:101020000C0C0F0F0F0F000000000000000000006C
:1010300000000000000000000C0C0F0F030303036E
:101040000303FFFFFCFC0000000000000303030398
:101050000303FFFFFCFC000003030F0F0C0C0C0C40
:101060000C0C0F0F03030000000000000000000044
:1010700000000000000000000000C0C0F0F03C3C98
:10108000FFFFFFFF000000000F0F0F0F0C0C0C0CF8
:10109000FFFFFFFF0C0C00000000000000000C0C24
:1010A0000F0F0F0F0C0C00000000000000000000EC
:1010B0000000000000000000FFFFFFFF0303030328
:1010C00003030303030300000303030303030303F6
:1010D0000F0FFFFFFCFC000003030F0F0C0C0C0CA8
:1010E0000C0C0F0F030300000000000000000000C4
:1010F0000000000000000000F0F0FCFC0F0F0303F4
:101100000303000000000000FFFFFFFF03030303D1
:101110000303FFFFFCFC000003030F0F0C0C0C0C7F
:101120000C0C0F0F03030000000000000000000083
:1011300000000000000000000F0F0F0F0303030367
:101140000303FFFFFFFF000000000000F0F0FCFCC5
:101150000F0F030300000000000000000F0F0F0F2F
:10116000000000000000000000000000000000007F
:101170000000000000000000FCFCFFFF030303036D
:101180000303FFFFFCFC0000FCFCFFFF0303030361
:101190000303FFFFFCFC000003030F0F0C0C0C0CFF
:1011A0000C0C0F0F03030000000000000000000003
:1011B0000000000000000000FCFCFFFF030303032D
:1011C0000303FFFFFCFC0000000003030303030311
:1011D0000303FFFFFFFF000000000C0C0C0C0C0CC5
:1011E0000F0F0303000000000000000000000000DB
:1011F0000000000000000000000000000000F0F00F
:10120000F0F0000000000000000000000000C0C07E
:10121000C0C0000000000000000000000000030348
:1012200003030000000000000000000000000000B8
:101230000000000000000000000000000000F0F0CE
:10124000F0F0000000000000000000000000C0C03E
:10125000C0C0000000000000000000000C0C0F0FD8
:101260000303000000000000000000000000000078
:101270000000000000000000000000000000C0C0EE
:10128000F0F03C3C0C0C000000000C0C3F3FF3F372
:10129000C0C00000000000000000000000000000CE
:1012A00003030F0F0C0C0000000000000000000002
:1012B000000000000000000000000000000000002E
:1012C0000000000000000000C3C3C3C3C3C3C3C306
:1012D000C3C3C3C3C3C3000000000000000000007C
:1012E00000000000000000000000000000000000FE
:1012F000000000000000000000000C0C3C3CF0F07E
:10130000C0C0000000000000000000000000C0C0DD
:10131000F3F33F3F0C0C000000000C0C0F0F030315
:1013200000000000000000000000000000000000BD
:1013300000000000000000003C3C3F3F03030303AB
:10134000C3C3FFFF3C3C00000000000000003F3F23
:101350003F3F0000000000000000000000000F0FF1
:101360000F0F00000000000000000000000000005F
:101370000000000000000000F0F0FCFC0C0C0C0C65
:101380000C0CFCFCF0F00000FFFFFFFF0000FFFF73
:10139000FFFFFFFF3F3F000003030F0F0C0C0C0C7F
:1013A0000C0C0C0C0000000000000000000000000D
:1013B0000000000000000000C0C0F0F03C3C0F0F37
:1013C0003C3CF0F0C0C00000FFFFFFFF0C0C0C0C19
:1013D0000C0CFFFFFFFF00000F0F0F0F00000000BD
:1013E00000000F0F0F0F00000000000000000000C1
:1013F00000000000000000000303FFFFFFFF0303E5
:101400000303FFFFFCFC00000000FFFFFFFF0303DE
:101410000303FFFFFCFC00000C0C0F0F0F0F0C0C64
:101420000C0C0F0F03030000000000000000000080
:101430000000000000000000F0F0FCFC0F0F0303B0
:1014400003030F0F3C3C0000FFFFFFFF0000000004
:1014500000000000C0C00000000003030F0F0C0CD0
:101460000C0C0F0F03030000000000000000000040
:1014700000000000000000000303FFFFFFFF030364
:101480000F0FFCFCF0F000000000FFFFFFFF00006A
:101490000000FFFFFFFF00000C0C0F0F0F0F0C0CE4
:1014A0000F0F030300000000000000000000000018
:1014B00000000000000000000303FFFFFFFF030324
:1014C000C3C30F0F3F3F00000000FFFFFFFF0303F8
:1014D0000F0F0000C0C000000C0C0F0F0F0F0C0C02
:1014E0000C0C0F0F0F0F00000000000000000000A8
:1014F00000000000000000000303FFFFFFFF0303E4
:10150000C3C30F0F3F3F00000000FFFFFFFF0303B7
:101510000F0F0000000000000C0C0F0F0F0F0C0C41
:1015200000000000000000000000000000000000BB
:101530000000000000000000F0F0FCFC0F0F0303AF
:1015400003030F0F3C3C0000FFFFFFFF00000C0CEB
:101550000C0CFCFCFCFC0000000003030F0F0C0C47
:101560000C0C03030F0F000000000000000000003F
:101570000000000000000000FFFFFFFF000000006F
:101580000000FFFFFFFF0000FFFFFFFF0303030357
:101590000303FFFFFFFF00000F0F0F0F000000000D
:1015A00000000F0F0F0F00000000000000000000FF
:1015B0000000000000000000000000000303FFFF27
:1015C000FFFF030300000000000000000000FFFF19
:1015D000FFFF000000000000000000000C0C0F0FD7
:1015E0000F0F0C0C000000000000000000000000C5
:1015F00000000000000000000000000000000303E5
:10160000FFFFFFFF03030000F0F0F0F00000000018
:10161000FFFFFFFF0000000003030F0F0C0C0C0C7A
:101620000F0F030300000000000000000000000096
:1016300000000000000000000303FFFFFFFF0000A8
:10164000F0F0FFFF0F0F00000000FFFFFFFF0F0F84
:101650003F3FF0F0C0C000000C0C0F0F0F0F000058
:1016600000000F0F0F0F000000000000000000003E
:1016700000000000000000000303FFFFFFFF030362
:1016800000000000000000000000FFFFFFFF00005E
:1016900000000000C0C000000C0C0F0F0F0F0C0C5E
:1016A0000C0C0F0F0F0F00000000000000000000E6
:1016B0000000000000000000FFFFFFFFFCFCF0F056
:1016C000FCFCFFFFFFFF0000FFFFFFFF0000030324
:1016D0000000FFFFFFFF00000F0F0F0F00000000D2
:1016E00000000F0F0F0F00000000000000000000BE
:1016F0000000000000000000FFFFFFFFFCFCF0F016
:10170000C0C0FFFFFFFF0000FFFFFFFF000003035B
:101710000F0FFFFFFFFF00000F0F0F0F0000000073
:1017200000000F0F0F0F000000000000000000007D
:101730000000000000000000F0F0FCFC0F0F0303AD
:101740000F0FFCFCF0F00000FFFFFFFF00000000A7
:101750000000FFFFFFFF0000000003030F0F0C0C51
:101760000F0F030300000000000000000000000055
:1017700000000000000000000303FFFFFFFF030361
:101780000303FFFFFCFC00000000FFFFFFFF03035B
:1017900003030303000000000C0C0F0F0F0F0C0CD1
:1017A0000000000000000000000000000000000039
:1017B0000000000000000000FCFCFFFF0303030327
:1017C0000303FFFFFCFC0000FFFFFFFF0000C0C0A1
:1017D0000000FFFFFFFF000003030F0F0C0C0F0FB3
:1017E000FFFFFFFFC3C30000000000000000000077
:1017F00000000000000000000303FFFFFFFF0303E1
:101800000303FFFFFCFC00000000FFFFFFFF0303DA
:101810000F0FFFFFF0F000000C0C0F0F0F0F000078
:1018200000000F0F0F0F000000000000000000007C
:1018300000000000000000003C3CFFFFC3C30303A6
:1018400003033F3F3C3C0000C0C0C0C00303030390
:101850000F0FFCFCF0F0000003030F0F0C0C0C0C3E
:101860000C0C0F0F0303000000000000000000003C
:10187000000000000000000000003F3F0F0FFFFFCE
:10188000FFFF0F0F3F3F0000000000000000FFFFC0
:10189000FFFF000000000000000000000C0C0F0F14
:1018A0000F0F0C0C00000000000000000000000002
:1018B0000000000000000000FFFFFFFF000000002C
:1018C0000000FFFFFFFF0000FFFFFFFF0000000020
:1018D0000000FFFFFFFF000003030F0F0C0C0C0CB8
:1018E0000C0C0F0F030300000000000000000000BC
:1018F0000000000000000000FFFFFFFF00000000EC
:101900000000FFFFFFFF00003F3FFFFFC0C00000DF
:10191000C0C0FFFF3F3F00000000000003030F0FA7
:1019200003030000000000000000000000000000B1
:101930000000000000000000FFFFFFFF00000000AB
:101940000000FFFFFFFF0000FFFFFFFFC0C0FCFC27
:10195000C0C0FFFFFFFF000000000F0F0F0F0000CF
:101960000F0F0F0F0000000000000000000000003B
:1019700000000000000000000F0FFFFFF0F000006B
:10198000F0F0FFFF0F0F00000000F0F0FFFF0F0F5F
:10199000FFFFF0F0000000000F0F0F0F000000002D
:1019A00000000F0F0F0F00000000000000000000FB
:1019B00000000000000000000000FFFFFFFF00002B
:1019C0000000FFFFFFFF0000000000000303FFFF17
:1019D000FFFF030300000000000000000C0C0F0FCD
:1019E0000F0F0C0C000000000000000000000000C1
:1019F00000000000000000003F3F0F0F030303033F
:101A0000C3C3FFFF3F3F0000C0C0F0F03C3C0F0FDE
:101A100003030000C0C000000F0F0F0F0C0C0C0CD4
:101A20000C0C0F0F0F0F0000000000000000000062
:101A3000000000000000000000000000FFFFFFFFAA
:101A4000030303030000000000000000FFFFFFFF8E
:101A50000000000000000000000000000F0F0F0F4A
:101A60000C0C0C0C00000000000000000000000046
:101A70000000000000000000FCFCF0F0C0C000000E
:101A80000000000000000000000003030F0F3F3FB4
:101A9000FCFCF0F0C0C000000000000000000000EE
:101AA000000003030F0F0000000000000000000012
:101AB000000000000000000000000000030303031A
:101AC000FFFFFFFF0000000000000000000000001A
:101AD000FFFFFFFF00000000000000000C0C0C0CDA
:101AE0000F0F0F0F0000000000000000C0C0F0F05A
:101AF000C0C00000000000000C0C0F0F030300002A
:101B000003030F0F0C0C0000000000000000000099
:101B100000000000000000000000000000000000C5
:101B200000000000000000000000000000000000B5
:101B300000000000000000000000000000000000A5
:101B40000000000000000000000000000000000095
:101B50000000000000000000C0C0C0C0C0C0C0C085
:101B6000C0C0C0C0C0C0C0C000000000F0F0F0F0B5
:101B7000000000000000000000000000000003035F
:101B8000030300000000000000000000000000004F
:101B90000000000000000000000000000000000045
:101BA0000000000000000000000000000000000035
:101BB00000000000000000000000C0C0C0C0C0C0A5
:101BC000C0C0000000000000F0F0FCFC0C0C0C0C8D
:101BD000FFFFFFFF0000000003030F0F0C0C0C0CB5
:101BE00003030F0F0C0C00000000000000000000B9
:101BF00000000000000000000303FFFFFFFFC0C063
:101C0000C0C00000000000000000FFFFFFFF000058
:101C10000303FFFFFCFC00000C0C0F0F03030C0C74
:101C20000C0C0F0F03030000000000000000000078
:101C300000000000000000000000C0C0C0C0C0C024
:101C4000C0C0C0C000000000FFFFFFFF0000000098
:101C5000000003030303000003030F0F0C0C0C0C24
:101C60000C0C0F0F03030000000000000000000038
:101C7000000000000000000000000000C0C0C3C35E
:101C8000FFFFFFFF00000000FCFCFFFF030300005C
:101C9000FFFFFFFF0000000003030F0F0C0C0C0CF4
:101CA00003030F0F0C0C00000000000000000000F8
:101CB00000000000000000000000C0C0C0C0C0C0A4
:101CC000C0C0C0C000000000FFFFFFFF0C0C0C0CE8
:101CD0000C0C0F0F0F0F000003030F0F0C0C0C0C5C
:101CE0000C0C0F0F030300000000000000000000B8
:101CF00000000000000000000000FCFCFFFF0303E8
:101D00000F0F3C3C000000000303FFFFFFFF030335
:101D100000000000000000000C0C0F0F0F0F0C0C57
:101D200000000000000000000000000000000000B3
:101D300000000000000000000000C0C0C0C0C0C023
:101D40000000C0C0C0C00000FFFFFFFF0000000097
:101D5000FFFFFFFF00000000C3C3CFCF0C0C0C0C33
:101D6000FFFFFFFF00000000000003030303030365
:101D700003030000000000000303FFFFFFFF00005B
:101D8000C0C0C0C0000000000000FFFFFFFF030351
:101D90000000FFFFFFFF00000C0C0F0F0F0F0000F3
:101DA00000000F0F0F0F00000000000000000000F7
:101DB000000000000000000000000000C0C0CFCF05
:101DC000CFCF000000000000000000000000FFFF77
:101DD000FFFF000000000000000000000C0C0F0FCF
:101DE0000F0F0C0C000000000000000000000000BD
:101DF00000000000000000000000000000000000E3
:101E0000C0C0CFCFCFCF0000000000000000000016
:101E10000000FFFFFFFF00000000F0F0F0F0000006
:101E20000000FFFFFFFF00000000000003030303AA
:101E300003030303000000000303FFFFFFFF000094
:101E40000000C0C0C0C000000000FFFFFFFF3C3C1E
:101E5000FFFFC3C3000000000C0C0F0F0F0F0000AA
:101E600000000F0F0F0F0000000000000000000036
:101E70000000000000000000000000000303FFFF5E
:101E8000FFFF000000000000000000000000FFFF56
:101E9000FFFF000000000000000000000C0C0F0F0E
:101EA0000F0F0C0C000000000000000000000000FC
:101EB0000000000000000000C0C0C0C0C0C00000A2
:101EC000C0C0C0C000000000FFFFFFFF0303FFFF12
:101ED0000303FFFFFFFF00000F0F0F0F00000F0FA6
:101EE00000000F0F0F0F00000000000000000000B6
:101EF0000000000000000000C0C0C0C00000C0C062
:101F0000C0C0C0C0000000000000FFFFFFFF0000D5
:101F10000000FFFFFFFF000000000F0F0F0F000089
:101F200000000F0F0F0F0000000000000000000075
:101F300000000000000000000000C0C0C0C0C0C021
:101F4000C0C0C0C000000000FFFFFFFF0000000095
:101F50000000FFFFFFFF000003030F0F0C0C0C0C31
:101F60000C0C0F0F03030000000000000000000035
:101F70000000000000000000C0C0C0C00000C0C0E1
:101F8000C0C0C0C0000000000000FFFFFFFF000055
:101F90000000FFFFFFFF00000000FFFFFFFF0C0C31
:101FA0000C0C0F0F030300000303030303030303DD
:101FB00000000000000000000000C0C0C0C0C0C0A1
:101FC0000000C0C0C0C00000FFFFFFFF0000000015
:101FD000FFFFFFFF0000000003030F0F0C0C0C0CB1
:101FE000FFFFFFFF000000000000000000000303EF
:101FF0000303030303030000C0C0C0C00000C0C04F
:10200000C0C0C0C0000000000000FFFFFFFF0303CE
:10201000000003030F0F00000C0C0F0F0F0F0C0C30
:1020200000000000000000000000000000000000B0
:1020300000000000000000000000C0C0C0C0C0C020
:10204000C0C0C0C00000000003030F0F3C3C303094
:10205000F0F0C3C30303000003030F0F0C0C0C0CC0
:102060000C0C0F0F03030000000000000000000034
:102070000000000000000000C0C0C0C0FCFCFFFF6A
:10208000C0C0C0C00000000000000000FFFFFFFF54
:1020900000000000000000000000000003030F0F1C
:1020A0000C0C0F0F030300000000000000000000F4
:1020B0000000000000000000C0C0C0C00000000020
:1020C000C0C0C0C000000000FFFFFFFF0000000014
:1020D000FFFFFFFF0000000003030F0F0C0C0C0CB0
:1020E00003030F0F0C0C00000000000000000000B4
:1020F00000000000000000000000C0C0C0C00000E0
:102100000000C0C0C0C000000000FFFFFFFF0000D3
:102110000000FFFFFFFF00000000000003030F0F9F
:102120000F0F03030000000000000000000000008B
:102130000000000000000000C0C0C0C0000000009F
:102140000000C0C0C0C00000FFFFFFFF0000F0F0B3
:102150000000FFFFFFFF000003030F0F0F0F03033B
:102160000F0F0F0F0303000000000000000000002D
:102170000000000000000000C0C0C0C0000000005F
:102180000000C0C0C0C0000000000303FFFFFCFC53
:10219000FFFF0303000000000C0C0F0F03030000FF
:1021A00003030F0F0C0C00000000000000000000F3
:1021B0000000000000000000C0C0C0C0000000001F
:1021C0000000C0C0C0C00000FFFFFFFF0000000013
:1021D0000000FFFFFFFF000003030F0F0C0C0C0CAF
:1021E000CCCCFFFF3F3F00000303030303030303C3
:1021F0000303000000000000C0C0C0C0C0C0C0C0D9
:10220000C0C0C0C0C0C000000303C3C3F0F03C3C6A
:102210000F0F0303000000000F0F0F0F0C0C0C0C2E
:102220000C0C0F0F0F0F000000000000000000005A
:102230000000000000000000000000000000FCFCA6
:10224000FFFF030303030000000003030303FFFF7A
:10225000FCFC000000000000000000000000030380
:102260000F0F0C0C0C0C0000000000000000000020
:102270000000000000000000000000000000FFFF60
:10228000FFFF000000000000000000000000FCFC58
:10229000FCFC0000000000000000000000000F0F28
:1022A0000F0F000000000000000000000000000010
:1022B0000000000000000000000003030303FFFF14
:1022C000FCFC000000000000000000000000FCFC1E
:1022D000FFFF03030303000000000C0C0C0C0F0FA6
:1022E00003030000000000000000000000000000E8
:1022F00000000000000000000C0C0F0F03030F0F84
:102300000C0C0F0F03030000000000000000000091
:1023100000000000000000000000000000000000BD
:1023200000000000000000000000000000000000AD
:10233000000000000000000000000000C0C0F0F03D
:10234000C0C0000000000000FCFCFFFF0303000011
:102350000303FFFFFCFC0000030303030303030369
:10236000030303030303000000000000000000005B
:10237000000000000000000000000000000000005D
:102380007E8195B1B195817E7EFFEBCFCFEBFF7E55
:102390000E1F3F7E3F1F0E00081C3E7F3E1C0800A4
:1023A000389A9FFF9F9A380010B8FCFEFCB81000C6
:1023B0000000183C3C180000FFFFE7C3C3E7FFFF25
:1023C000003C664242663C00FFC399BDBD99C3FF15
:1023D00070F88888FD7F070F004E5FF1F15F4E00B7
:1023E000C0E0FF7F05050707C0FF7F0505657F3F4C
:1023F000995A3CE7E73C5A997F3E3E1C1C0808006E
:1024000008081C1C3E3E7F00002466FFFF66240077
:10241000005F5F00005F5F00060F097F7F017F7F25
:10242000C09ABFA5BDD94302007070707070700073
:102430008094B6FFFFB694800004067F7F060400F8
:102440000010307F7F3010000808082A3E1C08006A
:10245000081C3E2A080808003C3C202020202000C0
:10246000081C3E08083E1C0830383C3E3E3C3830D4
:10247000060E1E3E3E1E0E0600000000000000007C
:102480000000065F5F060000000707000707000066
:10249000147F7F147F7F1400242E2A6B6B3A120066
:1024A000466630180C666200307A4F5D377A480015
:1024B0000004070300000000001C3E634100000010
:1024C0000041633E1C000000082A3E1C1C3E2A08F6
:1024D0000008083E3E080800000080E060000000A0
:1024E00000080808080808000000006060000000FC
:1024F0006030180C060301003E7F594D477F3E00B7
:1025000040427F7F40400000627359496F6600007F
:10251000226349497F360000181C16537F7F500004
:10252000276745457D3900003C7E4B4979300000E6
:10253000030371790F070000367F49497F36000099
:10254000064F49693F1E000000000066660000005B
:10255000000080E666000000081C366341000000B1
:102560000014141414141400004163361C080000F5
:10257000000203595D0702003E7F415D5D5F0E0072
:102580007C7E13137E7C0000417F7F49497F3600AB
:102590001C3E634141632200417F7F41633E1C003A
:1025A000417F7F495D416300417F7F491D010300F9
:1025B0001C3E6341513372007F7F08087F7F00001B
:1025C00000417F7F41000000307040417F3F0100AB
:1025D000417F7F081C776300417F7F41406070002E
:1025E0007F7F0E1C0E7F7F007F7F060C187F7F0091
:1025F0001C3E6341633E1C00417F7F49090F06007A
:102600001E3F2131617F5E00417F7F09197F660097
:10261000266F4D495973320003417F7F410300000B
:102620007F7F40407F7F00001F3F60603F1F0000B2
:102630003F7F6030607F3F0063771C081C7763003A
:10264000074F78784F070000476371594D67730053
:10265000007F7F41410000000103060C183060003C
:102660000041417F7F000000080C0603060C0800B3
:10267000808080808080808000000307040000004C
:10268000207454543C784000417F3F4848783000E3
:10269000387C44446C280000307848493F7F400033
:1026A000387C54545C180000487E7F4903060000C3
:1026B00098BCA4A4F87C0400417F7F08047C7800C7
:1026C00000447D7D4000000060E08084FD7D0000CE
:1026D000417F7F10386C440000417F7F4000000044
:1026E0007C7C18781C7C78007C7804047C78000062
:1026F000387C44447C38000084FCF8A4243C180056
:10270000183C24A4F8FC8400447C784C040C180089
:10271000485C54746424000004043E7F4424000098
:102720003C7C40403C7C40001C3C60603C1C000009
:102730003C7C6030607C3C00446C3810386C440059
:102740009CBCA0A0FC7C00004C64745C4C64000049
:1027500008083E7741410000000000777700000044
:102760004141773E08080000020301030203010013
:1027700070784C464C78700011241FBECFEFD8E023
:10278000DEBFCDBF11E0A0E0B1E0E2E8FCE302C0B3
:1027900005900D92AE37B107D9F725E0AEE7B1E06D
:1027A00001C01D92AA38B207E1F70E94FB1A0C94EF
:1027B0003F1E0C9400009BB19C609BB99AB19C6039
:1027C0009AB95A985B98880F9BB1937F28E09B7FBA
:1027D00087FD94609BB95B9A5B98880F2150B9F78D
:1027E0009B7F9BB95B9A5B9808952BB1237F6150C7
:1027F00000F1FC013191CF014FEF430F4E3F58F0F4
:102800002B7F3F3F09F424602BB938E05B9A5B983B
:102810003150E1F70AC048E02B7F37FD24602BB927
:102820005B9A5B98330F4150B9F75A985B9A5B9863
:10283000DECF08955A985B9A5A9A8AB1837F8AB9F3
:1028400008950F931F93CF93DF931F92CDB7DEB7F9
:102850008C0180917E0169830E94DB136981C8012C
:102860000E94F5130F90DF91CF911F910F910C945F
:102870001A14CF93DF9300D0CDB7DEB719828A83C5
:1028800062E070E0CE0101960E9421140F900F903B
:10289000DF91CF9108950F931F93CF93DF93EC01B6
:1028A0008B01862F806B0E9439148C2F8F700E94B1
:1028B0003914CE0124E0959587952A95E1F78F701C
:1028C00080610E943914B8017695762F6627779536
:1028D00067956C0F7D1F7093800560937F05DF9176
:1028E000CF911F910F910895CF92DF92EF92FF92B7
:1028F0000F931F93CF93DF93CDB7DEB7C158D109A4
:102900000FB6F894DEBF0FBECDBF6C018B0180E423
:102910008983AB01B601CE0102960E945E1BB8010D
:102920006F5F7F4FCE0101960E942114E0907F05DA
:10293000F0908005A801B601C70181589E4F0E9402
:102940005E1B0E0D1F1D1093800500937F05CF5752
:10295000DF4F0FB6F894DEBF0FBECDBFDF91CF9132
:102960001F910F91FF90EF90DF90CF9008950F93FC
:102970001F93CF93DF93C0910001D0E0BE0181E0AF
:1029800091E00E942114219700917F05109180050C
:10299000AE0162E071E0C80181589E4F0E945E1B4B
:1029A000C00FD11FD0938005C0937F0581E0809335
:1029B0000001DF91CF911F910F910895EF92FF9247
:1029C0000F931F93CF93DF938C01F62E809100011C
:1029D000C62FD0E09E01280F311D2132310514F0A1
:1029E0000E94B714E09000018E2D90E0AE01B80176
:1029F0008F5F9E4F0E945E1BFE0CF0920001DF91E4
:102A0000CF911F910F91FF90EF900895EF92FF9259
:102A10000F931F93CF93DF93CDB7DEB76A970FB6AF
:102A2000F894DEBF0FBECDBF8B017A0196E1E1E2E3
:102A3000F1E0DE01119601900D929A95E1F78093F5
:102A40007E01529853985A9A5B9A66E170E0CE01E3
:102A500001960E942114EF2849F01F8A87EA888F87
:102A600062E070E0CE0147960E942114012B89F0AC
:102A70001F8A80EA888F62E070E0CE0147960E944C
:102A8000211480EC888F62E070E0CE0147960E94AE
:102A900021146A960FB6F894DEBF0FBECDBFDF914A
:102AA000CF911F910F91FF90EF900895FC019E2F01
:102AB000981B961720F4908190959193F8CF0895E4
:102AC0002F923F924F925F926F927F928F929F923E
:102AD000AF92BF92CF92DF92EF92FF920F931F932C
:102AE000CF93DF93CDB7DEB762970FB6F894DEBF12
:102AF0000FBECDBF6C017B014A013901FA01019083
:102B00000020E9F7CF0101972C01441A550A520120
:102B1000C6010E944B1461147104E1F563E0440C9A
:102B2000551C6A95E1F74C0C5D1C91E8491651045F
:102B300064F080E890E08C199D0997FD07965C0190
:102B400053E0B594A7945A95E1F7B7FC1BC1A80CC4
:102B5000B91C8A149B0409F441C0F40161914F012E
:102B6000F8E06F9FB001112468587C4D48E050E0B8
:102B7000CE0101960E94551B0115110529F068E050
:102B8000CE0101960E94561568E0CE0101960E9482
:102B9000DE14DFCF82E06816710419F16A946728A9
:102BA00009F0D0C026E0249DC001259D900D112480
:102BB0008C0D9D1D813891054CF080E890E08C19BA
:102BC0009D0966E070E00E940B1B5B01B7FCDAC058
:102BD000A80CB91C8A149B0409F0B7C00E94B71452
:102BE000B1C044E0440C551C4A95E1F74C0C5D1C07
:102BF00091E84916510464F080E890E08C199D0931
:102C000097FD0F965C0134E0B594A7943A95E1F7EF
:102C1000B7FCB8C0F401EA0DFB1DFA8BE98B170174
:102C2000FFEF2F1A3F0A270182E0480E511C37019F
:102C300093E0690E711C89899A898816990609F4AE
:102C400081C0F401A1904F01F0E4AF9E5001112426
:102C5000C50188599C4F5C01B701C6010E944B1405
:102C600040E150E0B501CE0101960E94551B0115CF
:102C7000110529F060E1CE0101960E94561560E130
:102C800070E0CE0101960E947414B101C6010E9449
:102C90004B1440E150E0B501605F7F4FCE010196DB
:102CA0000E94551B0115110529F060E1CE01019626
:102CB0000E94561560E170E0CE0101960E947414E6
:102CC00096E0E916F104D4F5B201C6010E944B1456
:102CD00040E150E0B501605E7F4FCE0101960E9459
:102CE000551B0115110529F060E1CE0101960E94E6
:102CF000561560E170E0CE0101960E947414E5E083
:102D0000EE16F104D9F0B301C6010E944B14B501CF
:102D1000605D7F4F40E150E0CE0101960E94551B5F
:102D20000115110529F060E1CE0101960E945615AA
:102D300060E170E0CE0101960E947414F0E1CF0EC4
:102D4000D11C79CF80E090E01FC0F40161914F0168
:102D5000F6E06F9FB001112468597F4F46E050E0C4
:102D6000CE0101960E94551B0115110529F066E060
:102D7000CE0101960E94561566E0CE0101960E9492
:102D8000DE1428CF8FEF9FEF62960FB6F894DEBF68
:102D90000FBECDBFDF91CF911F910F91FF90EF90AC
:102DA000DF90CF90BF90AF909F908F907F906F906B
:102DB0005F904F903F902F900895CF92DF92EF92C7
:102DC000FF920F931F93CF93DF93CDB7DEB760973A
:102DD0000FB6F894DEBF0FBECDBFC82ED12C40E198
:102DE00050E0B601CE0101960E94671B00E010E0A2
:102DF000B80180E090E00E944B1478E0E72EF12CBF
:102E000060E170E0CE0101960E94741481E0E81A3E
:102E1000F108B1F70F5F1F4F0830110549F740E087
:102E200054E0B6018FE791E060960FB6F894DEBFEC
:102E30000FBECDBFDF91CF911F910F91FF90EF900B
:102E4000DF90CF900C94671B2F923F924F925F922E
:102E50006F927F928F929F92AF92BF92CF92DF92AA
:102E6000EF92FF920F931F93CF93DF9300D000D088
:102E70001F92CDB7DEB77C018B016A013901803822
:102E8000910508F05AC14038510508F056C1003488
:102E9000110508F052C12034310508F04EC14A0135
:102EA0008E189F082901401A510A940197FE04C008
:102EB0002227332728193909C20157FE04C0882761
:102EC000992784199509821793070CF09BC0CE149B
:102ED000DF046CF4919481949108902F812F8301E9
:102EE000692E782E9E2D8F2D7601C92ED82EA30106
:102EF000401B510B14013594279457FF06C0519580
:102F0000419551092FEF3FEF02C021E030E0580119
:102F1000F3E0B594A794FA95E1F7B694BA2CAA24F5
:102F2000B794A794AE0CBF1CF501E158FE4F5F01AA
:102F300061E0C8018770992701C0660F8A95EAF79A
:102F4000C7013F01CE14DF040CF44BC02501FFEF95
:102F50004F1A5F0AF5017081762B7083241A350AA7
:102F6000F70131965F0137FE39C0280C391C21303A
:102F7000310511F4660F01C066957801E20EF31E6B
:102F800061112BC0B801E3E075956795EA95E1F70B
:102F90002D833C834A835B830E944B14B2016619E4
:102FA0007709C3010E947414C5012D813C814A81B7
:102FB0005B812130310519F460E870E002C060E8FF
:102FC0007FEF460E571EB70167707727F1E001C00B
:102FD000FF0F6A95EAF76F2F3201870175015201E1
:102FE000B1CFA614B70409F4A8C0B80153E0759591
:102FF00067955A95E1F70E944B14B5016619770958
:10300000C30199C0601671066CF451944194510843
:10301000902F812F8301692E782E9E2D8F2D760182
:10302000C92ED82E580193E0B594A7949A95E1F74C
:10303000B694BA2CAA24B794A794AE0CBF1CC501B1
:1030400081589E4F5C01FC013081398321E0C80129
:103050008770992701C0220F8A95EAF7CE18DF08FA
:10306000420195948794D7FE07C0D194C194D108AA
:1030700022242A94322C0EC022242394312C0AC0FC
:10308000822B89838C189D08220F49F097FC22C05F
:103090000F5F1F4F89816016710694F73BC0381788
:1030A00089F0F5018083B801A3E075956795AA952D
:1030B000E1F7C7010E944B1461E070E0CE01019678
:1030C0000E947414F501E058FF4F308139835F018D
:1030D00021E0DCCF840C951C8981381799F0F5012B
:1030E0008083B801F3E075956795FA95E1F7C7011C
:1030F0002D830E944B1461E070E0CE0101960E9486
:1031000074142D81A20CB31CE20CF31CF501308168
:103110003983BECF381789F0F5018083B301E3E02E
:1031200075956795EA95E1F7C7010E944B1461E038
:1031300070E0CE0101960E9474140F900F900F90D2
:103140000F900F90DF91CF911F910F91FF90EF9013
:10315000DF90CF90BF90AF909F908F907F906F90B7
:103160005F904F903F902F90089562E370E080E071
:1031700090E00E94851A40E050E060E070E08CE34F
:103180000C9406152F923F924F925F926F927F920E
:103190008F929F92AF92BF92CF92DF92EF92FF9267
:1031A0000F931F93CF93DF93CDB7DEB7A0970FB6E2
:1031B000F894DEBF0FBECDBF80E00E94DD1600E0B8
:1031C00010E020E030E047E351E060E070E080E0B4
:1031D00090E00E94601520E030E044E451E061E0BE
:1031E00070E080E090E00E94601520E030E043E570
:1031F00051E062E070E080E090E00E94601520E025
:1032000030E04BE551E063E070E080E090E00E9448
:10321000601568EE73E080E090E00E94851A80E01F
:103220000E94DD160E94561A5FE7E52EF12CA701D9
:10323000401B510B2FE330E060E070E0C8010E94BA
:1032400024170E5F1F4F0038110589F70EE310E0B9
:103250004FE3E42EF12C9701201B310B4FE750E098
:10326000B80180E090E00E942417025011090E3F3F
:103270008FEF180781F764EF71E080E090E00E9423
:10328000851A94E0692E712C20E4222E312C30E234
:10329000432E512C80E00E94DD1600E010E0780102
:1032A00090E4E90EF11C6801D594C794560180E2C0
:1032B000A80EB11C4101801A910A9501A701B50120
:1032C000C4010E942417C2018C199D096C019C0144
:1032D000A701BC01C4010E9424179501A401B601F5
:1032E000C4010E9424179501A701B601C7010E94DD
:1032F00024170E5F1F4F0034110589F691E0691AFB
:10330000710841F668EE73E080E090E00E94851A53
:10331000198A0E94561A2B013C01C12CD12C1AE0AB
:10332000812E912CCE0101967C01C601B4010E9430
:103330000B1BC09640E150E0BC01C7010E94671B17
:10334000A12CB12C00E010E020E030E0A701B50195
:1033500080E090E00E9460159FEFA91AB90A88E00A
:10336000A816B10479F79FEFC91AD90A84E1C816E3
:10337000D104D9F60E94561A9B01AC0124193509D3
:103380004609570960E47DE083E090E00E941F1B3E
:10339000890180E00E94DD16C8016AE070E00E94A9
:1033A0000B1B9F938F937F936F938CE691E09F937A
:1033B0008F93FF92EF920E946E1B00E010E020E0DE
:1033C00030E0A70160E070E080E090E00E946015CE
:1033D00068EE73E080E090E00E94851A0FB6F894E2
:1033E000DEBF0FBECDBFA0960FB6F894DEBF0FBEF6
:1033F000CDBFDF91CF911F910F91FF90EF90DF90A4
:10340000CF90BF90AF909F908F907F906F905F9084
:103410004F903F902F9008951F920F920FB60F92EA
:1034200011242F933F938F939F93AF93BF938091DA
:10343000820590918305A0918405B0918505309116
:10344000810523E0230F2D3720F40196A11DB11D26
:1034500005C026E8230F0296A11DB11D209381050A
:103460008093820590938305A0938405B09385058E
:103470008091860590918705A0918805B091890576
:103480000196A11DB11D8093860590938705A09399
:103490008805B0938905BF91AF919F918F913F911E
:1034A0002F910F900FBE0F901F9018952FB7F89483
:1034B00060918205709183058091840590918505C6
:1034C0002FBF08953FB7F8948091860590918705A6
:1034D000A0918805B091890526B5A89B05C02F3F0E
:1034E00019F00196A11DB11D3FBF6627782F892FC6
:1034F0009A2F620F711D811D911D42E0660F771F8B
:10350000881F991F4A95D1F708958F929F92AF9285
:10351000BF92CF92DF92EF92FF926B017C010E94EB
:10352000621A4B015C01C114D104E104F104F1F011
:103530000E940A1B0E94621A681979098A099B096C
:10354000683E73408105910570F321E0C21AD108ED
:10355000E108F10888EE880E83E0981EA11CB11CDA
:10356000C114D104E104F10429F7DDCFFF90EF90FD
:10357000DF90CF90BF90AF909F908F9008957894F8
:1035800084B5826084BD84B5816084BD85B5826068
:1035900085BD85B5816085BDEEE6F0E08081816006
:1035A0008083E1E8F0E01082808182608083808106
:1035B00081608083E0E8F0E0808181608083E1EBDE
:1035C000F0E0808184608083E0EBF0E080818160C6
:1035D0008083EAE7F0E0808184608083808182607C
:1035E0008083808181608083808180688083109265
:1035F000C100089508950E94BF1A0E94FA1A0E94FD
:10360000B518C0E0D0E00E94C2182097E1F30E94F4
:103610000000F9CF089597FB072E16F4009407D009
:1036200077FD09D00E94411B07FC05D03EF4909520
:1036300081959F4F0895709561957F4F0895A1E200
:103640001A2EAA1BBB1BFD010DC0AA1FBB1FEE1F1C
:10365000FF1FA217B307E407F50720F0A21BB30B67
:10366000E40BF50B661F771F881F991F1A9469F7E3
:1036700060957095809590959B01AC01BD01CF013F
:103680000895AA1BBB1B51E107C0AA1FBB1FA617A9
:10369000B70710F0A61BB70B881F991F5A95A9F7FB
:1036A00080959095BC01CD010895FB01DC0102C01D
:1036B00005900D9241505040D8F70895FB01DC0170
:1036C00002C001900D9241505040D8F70895DC019E
:1036D00001C06D9341505040E0F70895AEE0B0E076
:1036E000E4E7FBE10C94161E0D891E8986E08C83AD
:1036F0001A8309838FEF9FE79E838D83AE01475E18
:103700005F4F6F89788DCE0101960E94901BEF81EB
:10371000F885E00FF11F10822E96E4E00C94321E23
:10372000ACE0B0E0E6E9FBE10C94081E7C016B0123
:103730008A01FC0117821682838181FFBDC1CE01FF
:1037400001964C01F7019381F60193FD859193FF5A
:1037500081916F01882309F4ABC1853239F493FD5F
:10376000859193FF81916F01853229F4B70190E033
:103770000E94781DE7CF512C312C20E02032A0F49C
:103780008B3269F030F4803259F0833269F4206171
:103790002CC08D3239F0803339F4216026C022608C
:1037A000246023C0286021C027FD27C030ED380FDA
:1037B0003A3078F426FF06C0FAE05F9E300D1124FF
:1037C000532E13C08AE0389E300D1124332E206210
:1037D0000CC08E3221F426FD6BC1206406C08C36ED
:1037E00011F4206802C0883641F4F60193FD8591FA
:1037F00093FF81916F018111C1CF982F9F7D9554C7
:10380000933028F40C5F1F4FFFE3F9830DC083361C
:1038100031F0833771F0833509F05BC022C0F801C5
:10382000808189830E5F1F4F44244394512C54019F
:1038300015C03801F2E06F0E711CF801A080B18054
:1038400026FF03C0652D70E002C06FEF7FEFC5015A
:103850002C870E946D1D2C0183012C852F77222E31
:1038600017C03801F2E06F0E711CF801A080B18022
:1038700026FF03C0652D70E002C06FEF7FEFC5012A
:103880002C870E94621D2C012C852068222E83012A
:1038900023FC1BC0832D90E048165906B0F4B701F5
:1038A00080E290E00E94781D3A94F4CFF50127FC65
:1038B000859127FE81915F01B70190E00E94781DFC
:1038C00031103A94F1E04F1A51084114510471F744
:1038D000E5C0843611F0893639F5F80127FF07C0B5
:1038E00060817181828193810C5F1F4F08C060816C
:1038F0007181882777FD8095982F0E5F1F4F2F7657
:10390000B22E97FF09C090958095709561957F4F75
:103910008F4F9F4F2068B22E2AE030E0A4010E9412
:10392000AA1DA82EA81844C0853729F42F7EB22ED0
:103930002AE030E025C0F22FF97FBF2E8F36C1F08C
:1039400018F4883579F0B4C0803719F0883721F041
:10395000AFC02F2F2061B22EB4FE0DC08B2D84601E
:10396000B82E09C024FF0AC09F2F9660B92E06C04A
:1039700028E030E005C020E130E002C020E132E084
:10398000F801B7FE07C060817181828193810C5F6D
:103990001F4F06C06081718180E090E00E5F1F4F75
:1039A000A4010E94AA1DA82EA818FB2DFF77BF2EE8
:1039B000B6FE0BC02B2D2E7FA51450F4B4FE0AC00A
:1039C000B2FC08C02B2D2E7E05C07A2C2B2D03C0F7
:1039D0007A2C01C0752C24FF0DC0FE01EA0DF11DEB
:1039E0008081803311F4297E09C022FF06C07394C0
:1039F000739404C0822F867809F0739423FD13C05A
:103A000020FF06C05A2C731418F4530C5718732C4B
:103A1000731468F4B70180E290E02C870E94781D4F
:103A200073942C85F5CF731410F4371801C0312C22
:103A300024FF12C0B70180E390E02C870E94781D1C
:103A40002C8522FF17C021FF03C088E590E002C04B
:103A500088E790E0B7010CC0822F867859F021FDED
:103A600002C080E201C08BE227FD8DE2B70190E049
:103A70000E94781DA51438F4B70180E390E00E94FD
:103A8000781D5A94F7CFAA94F401EA0DF11D8081B4
:103A9000B70190E00E94781DA110F5CF332009F402
:103AA00051CEB70180E290E00E94781D3A94F6CFA3
:103AB000F7018681978102C08FEF9FEF2C96E2E19C
:103AC0000C94241EFC010590615070400110D8F741
:103AD000809590958E0F9F1F0895FC016150704056
:103AE00001900110D8F7809590958E0F9F1F089533
:103AF0000F931F93CF93DF93182F092FEB018B8127
:103B000081FD03C08FEF9FEF20C082FF10C04E8168
:103B10005F812C813D81421753077CF4E881F98154
:103B20009F012F5F3F4F39832883108306C0E885AC
:103B3000F985812F0995892B29F72E813F812F5FE8
:103B40003F4F3F832E83812F902FDF91CF911F9185
:103B50000F910895FA01AA27283051F1203181F1FF
:103B6000E8946F936E7F6E5F7F4F8F4F9F4FAF4F85
:103B7000B1E03ED0B4E03CD0670F781F891F9A1F98
:103B8000A11D680F791F8A1F911DA11D6A0F711D4C
:103B9000811D911DA11D20D009F468943F912AE058
:103BA000269F11243019305D3193DEF6CF01089540
:103BB000462F4770405D4193B3E00FD0C9F7F6CF71
:103BC000462F4F70405D4A3318F0495D31FD405239
:103BD000419302D0A9F7EACFB4E0A69597958795CF
:103BE00077956795BA95C9F70097610571050895AE
:103BF0009B01AC010A2E069457954795379527955A
:103C0000BA95C9F7620F731F841F951FA01D0895F1
:103C10002F923F924F925F926F927F928F929F92DC
:103C2000AF92BF92CF92DF92EF92FF920F931F93CA
:103C3000CF93DF93CDB7DEB7CA1BDB0B0FB6F8947B
:103C4000DEBF0FBECDBF09942A88398848885F84BB
:103C50006E847D848C849B84AA84B984C884DF802C
:103C6000EE80FD800C811B81AA81B981CE0FD11D10
:103C70000FB6F894DEBF0FBECDBFED010895F894E6
:023C8000FFCF74
:103C820001400000000000000000000000000000F1
:103C92000000000000000000000000000000000022
:103CA2000000AEA83FD30040A1C8DA1281FFA4A64B
:103CB200D5808D14AF200241626F757420746F201D
:103CC20072756E004F4C45442050657266207465D3
:103CD200737400312D4C696E657300322D3878385B
:103CE2002063686172616374657273005261746506
:0E3CF200203D2025642E2564204650530000FE
:00000001FF
