:100000000C94EF020C9417030C9417030C94170331
:100010000C9417030C9417030C9417030C941703F8
:100020000C9417030C9417030C9417030C941703E8
:100030000C9417030C9417030C9417030C941703D8
:100040000C94421F0C9417030C9401220C9433223D
:100050000C9417030C9417030C9417030C941703B8
:100060000C94500C0C94170300C001C001C003E0B5
:10007000F3E0FEF87EFF339F1FFC0D701BA03FE0F6
:100080003FF07CF07070003000000000003E5B4FDD
:100090005B3E3E6B4F6B3E1C3E7C3E1C183C7E3CE8
:1000A000181C577D571C1C5E7F5E1C00183C1800F6
:1000B000FFE7C3E7FF0018241800FFE7DBE7FF3086
:1000C000483A060E2629792926407F050507407FF4
:1000D00005253F5A3CE73C5A7F3E1C1C08081C1C67
:1000E0003E7F14227F22145F5F005F5F06097F015D
:1000F0007F006689956A606060606094A2FFA29448
:1001000008047E040810207E201008082A1C080815
:100110001C2A08081E101010100C1E0C1E0C303863
:100120003E3830060E3E0E06000000000000005F64
:1001300000000007000700147F147F14242A7F2A80
:100140001223130864623649562050000807030042
:10015000001C2241000041221C002A1C7F1C2A088E
:10016000083E0808008070300008080808080000F1
:1001700060600020100804023E5149453E00427F65
:10018000400072494949462141494D331814127FB4
:100190001027454545393C4A494931412111090754
:1001A0003649494936464949291E000014000000D5
:1001B00040340000000814224114141414140041A7
:1001C00022140802015909063E415D594E7C121164
:1001D000127C7F494949363E414141227F4141419C
:1001E0003E7F494949417F090909013E4141517317
:1001F0007F0808087F00417F41002040413F017F88
:10020000081422417F404040407F021C027F7F044F
:1002100008107F3E4141413E7F090909063E415198
:10022000215E7F09192946264949493203017F0188
:10023000033F4040403F1F2040201F3F4038403F89
:10024000631408146303047804036159494D43009F
:100250007F4141410204081020004141417F0402D6
:10026000010204404040404000030708002054546D
:1002700078407F284444383844444428384444284B
:100280007F385454541800087E090218A4A49C789E
:100290007F0804047800447D40002040403D007FFA
:1002A0001028440000417F40007C047804787C08DA
:1002B0000404783844444438FC18242418182424AE
:1002C00018FC7C08040408485454542404043F4493
:1002D000243C4040207C1C2040201C3C4030403CC2
:1002E00044281028444C9090907C4464544C440022
:1002F0000836410000007700000041360800020186
:100300000204023C2623263C1EA1A161123A404071
:10031000207A3854545559215555794122545478EE
:1003200042215554784020545579400C1E52721287
:100330003955555559395454545939555454580010
:1003400000457C410002457D420001457C407D1214
:1003500011127DF0282528F07C5455450020545476
:100360007C547C0A097F4932494949323A44444421
:100370003A324A4848303A4141217A3A424020785C
:10038000009DA0A07D3D4242423D3D4040403D3C5D
:1003900024FF2424487E4943662B2FFC2F2BFF0982
:1003A00029F620C0887E0903205454794100004476
:1003B0007D413048484A32384040227A007A0A0A61
:1003C000727D0D19317D2629292F282629292926D4
:1003D00030484D4020380808080808080808382F19
:1003E00010C8ACBA2F102834FA00007B00000814A3
:1003F0002A142222142A14085500550055AA55AA79
:1004000055AAFF55FF55FF000000FF00101010FF18
:1004100000141414FF001010FF00FF1010F010F073
:10042000141414FC001414F700FF0000FF00FF1464
:1004300014F404FC141417101F10101F101F1414B0
:10044000141F00101010F0000000001F10101010FA
:100450001F10101010F010000000FF1010101010EE
:1004600010101010FF10000000FF140000FF00FF2C
:1004700000001F10170000FC04F4141417101714C8
:1004800014F404F40000FF00F714141414141414EA
:10049000F700F7141414171410101F101F1414145D
:1004A000F4141010F010F000001F101F0000001FC7
:1004B00014000000FC140000F010F01010FF10FFFA
:1004C000141414FF141010101F00000000F010FF8F
:1004D000FFFFFFFFF0F0F0F0F0FFFFFF0000000073
:1004E00000FFFF0F0F0F0F0F3844443844FC4A4AF7
:1004F0004A347E02020606027E027E0263554941AC
:10050000633844443C04407E201E2006027E0202E2
:1005100099A5E7A5991C2A492A1C4C7201724C30F6
:100520004A4D4D303048784830BC625A463D3E49CD
:100530004949007E0101017E2A2A2A2A2A44445F71
:10054000444440514A444040444A51400000FF0165
:1005500003E080FF000008086B6B08361236243673
:10056000060F090F060000181800000010100030D8
:1005700040FF0101001F01011E00191D1712003C60
:100580003C3C3C00000000000000000800020100AC
:10059000000304070000000000000000010204083E
:1005A00010204080010204081020010204081020DD
:1005B0000404040404040404020202020202030309
:1005C0000303030300000000250028002B000000A7
:1005D0000000240027002A002F09AE0B63221124FB
:1005E0001FBECFEFD8E0DEBFCDBF15E0A0E0B1E089
:1005F000EAE0F0E502C005900D92A23AB107D9F702
:1006000027E0A2EAB5E001C01D92AA33B207E1F7E4
:1006100015E0CEEDD5E004C02297FE010E948627AA
:10062000C83DD107C9F70E94FD240C9403280C94FF
:1006300000000895CF93DF93CDB7DEB7A4970FB630
:10064000F894DEBF0FBECDBF2C01262E742E8E0176
:100650000F5F1F4F0BA31CA3CE01809698A38F8F13
:10066000FE0133964F014E975C0182EA95E00E94AD
:10067000E218BC01882777FD8095982F0E94D62428
:10068000F8016083F501108265E070E080E090E0A1
:100690000E94D624662E6394F40160826AE175E0BC
:1006A0008DE996E00E94E4224AE050E0F801608182
:1006B0008DE996E00E94A9236EE175E08DE996E050
:1006C0000E94E4224AE050E0F50160818DE996E065
:1006D0000E94A92363E275E08DE996E00E94E4227E
:1006E0004AE050E0662D8DE996E00E94B0230D5F50
:1006F0001F4FF3E0AF0EB11C83E0880E911CEF8D0D
:10070000F8A1AE16BF0609F0B0CFB12C872D90E04E
:100710009AA389A3312C99E09B15F0F08B2D90E0E2
:10072000FC01EE0FFF1FE80FF91F81E090E08C0F36
:100730009D1FE80FF91F418150E0608170E0CC24DB
:10074000C394D12CE9A0FAA08101920182EA95E03C
:100750000E94BE15B394DFCF82EA95E00E94BB1ED3
:1007600068EC70E080E090E00E94AF1FFE013396DD
:100770003F018BA09CA0CE0102965C01F501408157
:1007800050E0F401608170E0C12CD12CE9A0FAA006
:100790008101920182EA95E00E94BE15F301108169
:1007A000F5018081180F108382EA95E00E94E61817
:1007B000212F30E082179307C4F482EA95E00E946B
:1007C000E218BC01882777FD8095982F0E94D624D7
:1007D000F4016083F501108265E070E080E090E054
:1007E0000E94D6246F5FF3016083F3E0AF0EB11C6B
:1007F00083E0880E911C93E0690E711CEF8DF8A1C7
:10080000AE16BF0609F0BACFB12C88CFCF93DF93D5
:1008100061E082EA95E00E94CD1861E070E082EA32
:1008200095E00E94D31840E050E060E070E082EA7A
:1008300095E00E94C718C0E0D5E1CA30B9F0E09158
:10084000A205F091A3050190F081E02D6C2F82EAC2
:1008500095E00995CC2351F08C2F6D2F0E942C2709
:10086000911104C082EA95E00E94ED22CF5FC83A60
:1008700021F782EA95E00E94BB1E61E070E080E013
:1008800090E0DF91CF910C94AF1F0F931F93CF9304
:10089000DF93C0E0D0E082EA95E00E94E618C81736
:1008A000D90754F582EA95E00E94E6188C0182EAA5
:1008B00095E00E94E218A80117FF02C04F5F5F4F4A
:1008C00055954795BC0197FF02C06F5F7F4F7595A7
:1008D000679501E010E09E0182EA95E00E94250FF5
:1008E00082EA95E00E94BB1E61E070E080E090E04B
:1008F0000E94AF1F2296CFCFDF91CF911F910F9112
:1009000008959F92AF92BF92CF92DF92EF92FF92A3
:100910000F931F93CF93DF93C12CD12CC0E0D0E075
:100920009924939482EA95E00E94E61897FD019637
:1009300095958795C817D90774F5E091A205F091B0
:10094000A305A684B78482EA95E00E94E6188C018C
:100950000C0D1D1D82EA95E00E94E21890FAEE242B
:10096000E0F89C012C0D3D1DF12CAE01BE0182EA88
:1009700095E0F501099582EA95E00E94BB1E61E0D1
:1009800070E080E090E00E94AF1F93942396F6E021
:10099000CF1AD108C7CFDF91CF911F910F91FF9050
:1009A000EF90DF90CF90BF90AF909F9008956F929F
:1009B0007F928F929F92AF92BF92CF92DF92EF92EF
:1009C000FF920F931F93CF93DF93C0E0D0E082EAB2
:1009D00095E00E94E2188C0182EA95E00E94E618F8
:1009E000081719072CF482EA95E00E94E21804C067
:1009F00082EA95E00E94E61897FD01969595879505
:100A0000C817D9070CF055C082EA95E00E94E61895
:100A100097FD01966C01D594C794CC0EDD1E82EA39
:100A200095E00E94E21897FD01967C01F594E79409
:100A3000EC0EFD1E82EA95E00E94E61897FD0196F5
:100A40008C01159507950C0F1D1F82EA95E00E94F9
:100A5000E21897FD01964C01959487948C1A9D0A93
:100A600082EA95E00E94E61897FD01963C01759494
:100A700067946C1A7D0A82EA95E00E94E21897FD5D
:100A80000196BC0175956795AA24A394B12C940195
:100A9000A30182EA95E00E947C1382EA95E00E941D
:100AA000BB1E61E070E080E090E00E94AF1F2596E1
:100AB0008ECFDF91CF911F910F91FF90EF90DF903C
:100AC000CF90BF90AF909F908F907F906F90089540
:100AD0006F927F928F929F92AF92BF92CF92DF924E
:100AE000EF92FF920F931F93CF93DF9382EA95E0EB
:100AF0000E94E218EC0182EA95E00E94E618C8170D
:100B0000D9072CF482EA95E00E94E21804C082EA38
:100B100095E00E94E61897FD0196EC01D595C795E2
:100B20001C161D060CF055C082EA95E00E94E618DE
:100B300097FD01966C01D594C794CC0EDD1E82EA18
:100B400095E00E94E21897FD01967C01F594E794E8
:100B5000EC0EFD1E82EA95E00E94E61897FD0196D4
:100B60008C01159507950C0F1D1F82EA95E00E94D8
:100B7000E21897FD01964C01959487948C1A9D0A72
:100B800082EA95E00E94E61897FD01963C01759473
:100B900067946C1A7D0A82EA95E00E94E21897FD3C
:100BA0000196BC0175956795AA24A394B12C940174
:100BB000A30182EA95E00E94D71382EA95E00E94A1
:100BC000BB1E61E070E080E090E00E94AF1F2597BF
:100BD000A7CFDF91CF911F910F91FF90EF90DF9002
:100BE000CF90BF90AF909F908F907F906F9008951F
:100BF000AF92BF92CF92DF92EF92FF920F931F932B
:100C0000CF93DF93A12CB12CC0E0D0E082EA95E035
:100C10000E94E61897FD0196959587950297C8174B
:100C2000D907ACF582EA95E00E94E6186C0182EAE9
:100C300095E00E94E6188C010A0D1B1D82EA95E0E2
:100C40000E94E2187601D7FE03C023E0E20EF11CF9
:100C5000F594E794F594E7949C012A0D3B1DCC2470
:100C6000C394D12CAE01BE0182EA95E00E944C12E1
:100C700082EA95E00E94BB1E61E070E080E090E0B7
:100C80000E94AF1F229684E0A81AB108BFCFDF915F
:100C9000CF911F910F91FF90EF90DF90CF90BF9079
:100CA000AF9008956F927F928F929F92AF92BF9272
:100CB000CF92DF92EF92FF920F931F93CF93DF9328
:100CC000A12CB12CC0E0D0E0992493948824839483
:100CD00082EA95E00E94E61897FD01969595879522
:100CE0000297C817D907ACF582EA95E00E94E6188A
:100CF0003C0182EA95E00E94E6188C010A0D1B1D5A
:100D000082EA95E00E94E218C92CD12C730177FE8B
:100D100003C023E0E20EF11CF594E794F594E79408
:100D20009C012A0D3B1DAE01BE0182EA95E00E94A6
:100D30000913982482EA95E00E94BB1E61E070E0EE
:100D400080E090E00E94AF1F229684E0A81AB108CC
:100D5000BFCFDF91CF911F910F91FF90EF90DF9068
:100D6000CF90BF90AF909F908F907F906F9008959D
:100D7000AF92BF92CF92DF92EF92FF920F931F93A9
:100D8000CF93DF93C12CD12CC0E0D0E082EA95E074
:100D90000E94E61897FD019695958795C817D90783
:100DA00064F5E091A205F091A305A484B58482EADC
:100DB00095E00E94E6188C010C0D1D1D82EA95E05D
:100DC0000E94E2189C012C0D3D1DEE24E394F12CB1
:100DD000AE01BE0182EA95E0F501099582EA95E04F
:100DE0000E94BB1E61E070E080E090E00E94AF1FB7
:100DF0002296F4E0CF1AD108C9CFDF91CF911F918D
:100E00000F91FF90EF90DF90CF90BF90AF9008953B
:100E1000CF92DF92EF92FF920F931F93CF93DF93C6
:100E2000C0E0D0E082EA95E00E94E218C817D90736
:100E30002CF5E091A205F091A305C680D78082EA47
:100E400095E00E94E6188C0101501109EE24E3940C
:100E5000F12C9E0140E050E060E070E082EA95E015
:100E6000F601099582EA95E00E94BB1E61E070E000
:100E700080E090E00E94AF1F2496D4CFC0E0D0E085
:100E800082EA95E00E94E618C817D9072CF5E09190
:100E9000A205F091A305C680D78082EA95E00E9462
:100EA000E2189C0121503109EE24E394F12C8E01CB
:100EB00040E050E060E070E082EA95E0F6010995DC
:100EC00082EA95E00E94BB1E61E070E080E090E065
:100ED0000E94AF1F2496D4CF6AEF70E080E090E0CC
:100EE0000E94AF1F82EA95E00E942D1CC0E0D0E076
:100EF00082EA95E00E94E218C817D9072CF5E09124
:100F0000A205F091A305C680D78082EA95E00E94F1
:100F1000E618AC0141505109EE24E394F12C00E0B5
:100F200010E09E0160E070E082EA95E0F60109952C
:100F300082EA95E00E94BB1E61E070E080E090E0F4
:100F40000E94AF1F2496D4CF82EA95E00E94E61853
:100F5000EC012197D7FD2BC0E091A205F091A305EC
:100F6000C680D78082EA95E00E94E2188C0182EA6E
:100F700095E00E94E618980121503109AC014150DA
:100F80005109EE24E394F12C8E0160E070E082EAD6
:100F900095E0F601099582EA95E00E94BB1E61E0AA
:100FA00070E080E090E00E94AF1F2497D3CF6AEFFB
:100FB00070E080E090E00E94AF1F82EA95E00E941E
:100FC0002D1C82EA95E00E94E218EC012197D7FDE2
:100FD0002BC0E091A205F091A305C680D78082EADC
:100FE00095E00E94E6188C0182EA95E00E94E218E2
:100FF000A80141505109BC0161507109EE24E394EC
:10100000F12C00E010E09E0182EA95E0F6010995DE
:1010100082EA95E00E94BB1E61E070E080E090E013
:101020000E94AF1F2497D3CF82EA95E00E94E61872
:10103000EC012197D7FD2BC0E091A205F091A3050B
:10104000C680D78082EA95E00E94E6188C0182EA89
:1010500095E00E94E218A80141505109BC0161507D
:101060007109EE24E394F12C8E0120E030E082EA55
:1010700095E0F601099582EA95E00E94BB1E61E0C9
:1010800070E080E090E00E94AF1F2497D3CF6AEF1A
:1010900070E080E090E00E94AF1F82EA95E00E943D
:1010A0002D1CC0E0D0E082EA95E00E94E618C81747
:1010B000D9072CF5E091A205F091A305C680D78051
:1010C00082EA95E00E94E218BC0161507109EE24A9
:1010D000E394F12C8E0120E030E040E050E082EA21
:1010E00095E0F601099582EA95E00E94BB1E61E059
:1010F00070E080E090E00E94AF1F2496D4CFC0E063
:10110000D0E082EA95E00E94E218C817D90754F5AA
:10111000E091A205F091A305C680D78082EA95E010
:101120000E94E6188C0182EA95E00E94E2180150C4
:101130001109BC0161507109EE24E394F12C9E0168
:1011400040E050E082EA95E0F601099582EA95E0F8
:101150000E94BB1E61E070E080E090E00E94AF1F43
:101160002496CFCF6AEF70E080E090E0DF91CF91DE
:101170001F910F91FF90EF90DF90CF900C94AF1FD5
:1011800062E082EA95E00E94CD1861E070E082EAB8
:1011900095E00E94D31840E050E06AE070E082EAF7
:1011A00095E00E94C71882EA95E00E942D1C69E232
:1011B00075E082EA95E00E94F12282EA95E00E94C1
:1011C000BB1E61E070E080E090E00E94AF1F4FE046
:1011D00060E082EA95E00E94E41D60ED77E080E047
:1011E00090E00E94AF1F82EA95E00E94B81E68EE70
:1011F00073E080E090E00E94AF1F4FE060E082EA81
:1012000095E00E94151E60ED77E080E090E00E947E
:10121000AF1F82EA95E00E94B81E68EE73E080E09E
:1012200090E00E94AF1F47E060E082EA95E00E94F4
:10123000461E60ED77E080E090E00E94AF1F47E03F
:1012400060E082EA95E00E947F1E60ED77E080E03A
:1012500090E00E94AF1F82EA95E00C94B81E64E013
:1012600082EA95E00C94141C26E040E855E260E028
:1012700070E08DE996E00E949F2121E04DE362E05D
:1012800082EA95E00E94A81C82EA95E00E94BB1EBB
:1012900060ED77E080E090E00E94AF1F82EA95E089
:1012A0000E942D1C21E030E04AE050E06AE070E04E
:1012B00082EA95E00E945D1B82EA95E00E94BB1ED7
:1012C00060ED77E080E090E00E94AF1F82EA95E059
:1012D0000E942D1C0E94080782EA95E00E94BB1E16
:1012E00060ED77E080E090E00E94AF1F82EA95E039
:1012F0000E942D1C0E94B80682EA95E00E94BB1E47
:1013000060ED77E080E090E00E94AF1F82EA95E018
:101310000E942D1C0E94810482EA95E00E94BB1E5F
:1013200060ED77E080E090E00E94AF1F82EA95E0F8
:101330000E942D1C0E94450482EA95E00E94BB1E7B
:1013400060ED77E080E090E00E94AF1F82EA95E0D8
:101350000E942D1C82EA95E00E94E618D82FC92F22
:1013600082EA95E00E94E2184D2F5C2F57FF02C0E1
:101370004F5F5F4F55954795BC0197FF02C06F5F68
:101380007F4F7595679501E010E02AE030E082EA32
:1013900095E00E94151282EA95E00E94BB1E60ED66
:1013A00077E080E090E00E94AF1F82EA95E00E9423
:1013B0002D1C0E94F80560ED77E080E090E00E942F
:1013C000AF1F82EA95E00E942D1C0E94520660ED3C
:1013D00077E080E090E00E94AF1F82EA95E00E94F3
:1013E0002D1C0E94D70460ED77E080E090E00E9421
:1013F000AF1F82EA95E00E942D1C0E94680560EDF7
:1014000077E080E090E00E94AF1F82EA95E00E94C2
:101410002D1C0E94060482EA95E00E94BB1E60ED2E
:1014200077E080E090E00E94AF1F82EA95E00E94A2
:101430002D1C0E94C00860ED77E080E090E00E94E3
:10144000AF1F82EA95E00E942D1C61E082EA95E0E0
:101450000E94CD1861E070E082EA95E00E94D31806
:1014600040E050E060E070E082EA95E00E94C7183A
:1014700060E375E082EA95E00E94F12241E050E0ED
:1014800060E070E082EA95E00E94D91822E030E046
:1014900048ED5FE069E470E482EA95E00E94C424CC
:1014A00062E082EA95E00E94CD1861E070E082EA95
:1014B00095E00E94D3186EE375E082EA95E00E9401
:1014C000E42220E130E04FEE5EEB6DEA7EED82EA51
:1014D00095E00E94C72382EA95E00E94BB1E60ED62
:1014E00077E080E090E00E94AF1F82EA95E00E94E2
:1014F0002D1CCC24C394D12CA0E1EA2EF12C00E1C8
:1015000010E028E630E040E150E06EE170E082EA71
:1015100095E00E94BE1582EA95E00E94BB1E61E044
:1015200070E080E090E00E94AF1F61E082EA95E009
:101530000E94DD1D68EE73E080E090E00E94AF1F26
:1015400060E082EA95E00E94DD1D68EE73E080E0D5
:1015500090E00E94AF1F82EA95E00E942D1C40E1BE
:1015600060E188E690E00E941A03CF93CFB7F89429
:101570008091D305811127C0EAEBF5E08491E6EA7A
:10158000F5E09491E82FF0E0EE0FFF1FE253FA4FE1
:10159000A591B4918C91892321F461E08AE00E94A5
:1015A000862061E08AE00E944D208CB580618CBD70
:1015B0008CB580648CBD61E08DE00E944D2061E0BF
:1015C0008BE00E944D208091D3058F5F8093D305DF
:1015D000CFBFCF9108958091040690E02091050639
:1015E000821B910908952091050680910406281711
:1015F00050F4E22FF0E0EA5FF94F808190E02F5F36
:101600002093050608958FEF9FEF0895E09105065A
:1016100080910406E81730F4F0E0EA5FF94F80812A
:1016200090E008958FEF9FEF08950895CF92DF9295
:10163000EF92FF920F931F93CF93DF937C01CB0127
:101640008A012091E005222389F0EB016B01C40E91
:10165000D51ECC15DD0569F06991D701ED91FC919E
:101660000190F081E02DC7010995F3CF642F0E940E
:10167000270CC801DF91CF911F910F91FF90EF9040
:10168000DF90CF900895CF93DF931F92CDB7DEB751
:1016900069832091E0052223D1F02091E1052032D9
:1016A00040F021E030E0FC013383228380E090E0D1
:1016B00015C08091E205E82FF0E0ED51FA4F9981D5
:1016C00090838F5F8093E2058093E10505C061E020
:1016D000CE0101960E94270C81E090E00F90DF91EF
:1016E000CF910895FC011382128248EE53E060E02E
:1016F00070E0448355836683778385E495E0918326
:101700008083089510920506109204061092E20557
:101710001092E1050C94B20B81E08093E005609398
:1017200003061092E2051092E10508950C948C0BCB
:101730000F93062F21E04091E10563EE75E0809163
:1017400003060E94D00B1092E2051092E105109260
:10175000E0050F91089561E00C94980B84ED95E0FD
:101760000C94720B1092930681E080939106109274
:10177000900661E082E10E94862061E083E10E94A0
:101780008620E9EBF0E080818E7F808380818D7FF1
:10179000808388E48093B80085E48093BC0008953A
:1017A0000F93413208F04AC0909193069111FCCFFB
:1017B00092E090939306009391069FEF90932606F4
:1017C00010926B0640936A06FB016CE676E0DB0143
:1017D0009A2F961B941718F491919D93F9CF10921C
:1017E000920690919206880F892B809392068091A1
:1017F0009006813061F41092900680919206809359
:10180000BB008091BC0083FDF8CF85EC01C085EE64
:101810008093BC00222321F0809193068230E1F373
:10182000809126068F3F61F080912606803251F02C
:1018300080912606803341F483E007C081E005C033
:1018400080E003C082E001C084E00F91089561321E
:1018500098F420919306243089F460934806FC01A3
:101860008AE496E0DC012A2F281B261718F4219120
:101870002D93F9CF80E0089581E0089582E00895E6
:1018800085ED8093BC008091BC0084FDFCCF10925C
:101890009306089585EC8093BC00109293060895FA
:1018A0001F920F920FB60F9211242F933F934F93D5
:1018B0005F936F937F938F939F93AF93BF93EF93B8
:1018C000FF938091B900887F803609F49EC078F537
:1018D000883209F45DC090F4803109F456C038F4C0
:1018E000882309F4F5C0883009F44FC0F5C0883169
:1018F00009F44EC0803209F45FC0EEC0803409F4B0
:101900006AC058F4803309F457C0883309F0E4C042
:10191000809326060E944A0CDFC0803509F44FC030
:10192000883509F45DC0883409F0D6C0D3C0883941
:1019300009F4C4C0A8F4883709F467C038F48836BD
:1019400009F463C0803709F460C0C6C0883809F460
:10195000B5C0803909F45FC0803809F0BDC05BC0F4
:10196000803B09F483C038F4803A09F466C0883AB1
:1019700009F47CC0B1C0803C09F4A4C0883C09F4DF
:10198000A1C0883B09F487C0A7C08091920610C00F
:1019900090916B0680916A06981770F5E0916B063E
:1019A00081E08E0F80936B06F0E0E459F94F80815F
:1019B0008093BB0085EC83C0809326068BC0E091AA
:1019C0006B0681E08E0F80936B068091BB00F0E088
:1019D000E459F94F808390916B0680916A066BC041
:1019E000E0916B0681E08E0F80936B068091BB00C7
:1019F000F0E0E459F94F80838091910681116AC02B
:101A000081E08093900684EA5EC083E08093930631
:101A100010922706CFCF80912706803208F04EC063
:101A2000E091270681E08E0F809327068091BB000E
:101A3000F0E0E85DF94F8083BDCF0E944A0C8091B1
:101A40002706803230F4E0912706F0E0E85DF94F98
:101A500010826091270670E0E0918C06F0918D066F
:101A600088E296E009951092270636C084E08093BC
:101A700093061092490610924806E0918E06F09166
:101A80008F06099580914806811105C081E08093F9
:101A9000480610924A06E091490681E08E0F809335
:101AA0004906F0E0E65BF94F80818093BB0090919E
:101AB000490680914806981708F47CCF85E8809302
:101AC000BC000AC085EC8093BC001092930604C051
:101AD000109226060E94400CFF91EF91BF91AF91AA
:101AE0009F918F917F916F915F914F913F912F9136
:101AF0000F900FBE0F901F9018952F923F924F920C
:101B00005F926F927F928F929F92AF92BF92CF928D
:101B1000DF92EF92FF920F931F93CF93DF9300D04A
:101B200000D0CDB7DEB74C017C836B836A015901CD
:101B3000C8018701AC014C195D0957FF03C05195DD
:101B40004195510995016B817C81261B370B37FF2D
:101B500003C031952195310922242394312C241777
:101B6000350714F0212C312C2114310459F03A2D71
:101B70002B2D5C01832F922F3B812C81DC82CB8229
:101B8000C32ED22EAB81BC81AA16BB065CF43C2DC1
:101B90002D2D6C01832F922F3B812C81BC82AB8237
:101BA000A32EB22E2501EB81FC814E1A5F0A3C0167
:101BB0006C187D0877FE03C07194619471087201FE
:101BC00057FE03C0FFEFEF1AFF0AF594E794C8161B
:101BD000D9062CF421E030E03A83298324C06FEF4A
:101BE0007FEF7A8369831FC0D401ED91FC9104805B
:101BF000F581E02D980121143104D9F04B815C81ED
:101C0000B601C4010995E618F708F7FE06C0E98198
:101C1000FA81CE0EDF1EE40CF51C2B813C812F5F78
:101C20003F4F3C832B836B817C81A616B706E4F67D
:101C300004C0A6016B817C81E4CF0F900F900F90C0
:101C40000F90DF91CF911F910F91FF90EF90DF9058
:101C5000CF90BF90AF909F908F907F906F905F904C
:101C60004F903F902F9008956F927F928F929F9206
:101C7000AF92BF92CF92DF92EF92FF920F931F939A
:101C8000CF93DF93EC015B016A0139014801E881E0
:101C9000F9810284F385E02D87010995E881F981B6
:101CA000A601480D591D415051090284F385E02DCC
:101CB0009301B501CE010995E881F9810084F18590
:101CC000E02D9401A601B501CE010995E881F981C5
:101CD000B501660D771D615071090084F185E02D15
:101CE0009401A601CE010995DF91CF911F910F912B
:101CF000FF90EF90DF90CF90BF90AF909F908F902C
:101D00007F906F900895EF92FF920F931F93DC01E5
:101D1000ED91FC91240F351F215031090680F78188
:101D2000E02D780189019B0109951F910F91FF908A
:101D3000EF900895EF92FF920F931F93DC01ED91C6
:101D4000FC91260F371F215031090680F781E02DC5
:101D500078018A0109951F910F91FF90EF900895E6
:101D60006F927F928F929F92AF92BF92CF92DF92AB
:101D7000EF92FF920F931F93CF93DF935C014A0181
:101D800069013801EB01C60ED71ECC15DD0574F4D0
:101D9000D501ED91FC910084F185E02D870193013F
:101DA000A401BE01C50109952196EFCFDF91CF9126
:101DB0001F910F91FF90EF90DF90CF90BF90AF9069
:101DC0009F908F907F906F900895EF92FF920F9366
:101DD0001F93DC01ED91FC9111971A960D911C91C6
:101DE0001B9718962D913C9119970684F785E02D45
:101DF0007B0140E050E060E070E009951F910F9199
:101E0000FF90EF9008950895FC011382128285E5FA
:101E100095E09183808375836483578346837187BC
:101E2000608753874287158A15861486178616861B
:101E300021E0248B8FEF9FEF938B828B918B808B94
:101E4000268B178A118E108E08952F923F924F92F3
:101E50005F926F927F928F929F92AF92BF92CF923A
:101E6000DF92EF92FF920F931F93CF93DF9300D0F7
:101E700000D000D0CDB7DEB79E838D836B015A01B1
:101E8000790166246394712C621A730A44245524E0
:101E9000421A530A440C551CDC01ED91FC91420F8F
:101EA000531F0480F581E02D98010995AD81BE8115
:101EB000ED91FC911197A5014E195F090480F58100
:101EC000E02D9801B601CD010995AD81BE81ED915E
:101ED000FC911197B6016E0D7F1D0480F581E02DF8
:101EE0009801A501CD010995AD81BE81ED91FC91CF
:101EF0001197B6016E197F090480F581E02D9801D4
:101F0000A501CD010995812C912C8E149F040CF014
:101F1000A1C077FC08C0B1E0EB1AF108E2E04E0E78
:101F2000511C640C751CFFEF8F1A9F0AC401880FA7
:101F3000991F0196680E791EC4018C0D9D1D9C830E
:101F40008B83AD81BE81ED91FC9111970480F58169
:101F5000E02D980115012E0C3F1CA101BC01CD0103
:101F60000995F601E819F909FA83E983AD81BE8183
:101F7000ED91FC9111970480F581E02D9801A1016C
:101F800069817A81CD010995AD81BE81ED91FC9188
:101F900011970480F581E02D980115012E183F0856
:101FA000A1016B817C81CD010995AD81BE81ED914F
:101FB000FC9111970480F581E02D9801A1016981C0
:101FC0007A81CD01099514012A0C3B1CAD81BE819B
:101FD000ED91FC9111970480F581E02D9801A1010C
:101FE000C6018E0D9F1D9C838B83BC01CD0109957D
:101FF000AD81BE81ED91FC9111970480F581E02DBA
:102000009801A101C6018E199F099A838983BC0199
:10201000CD010995150128183908AD81BE81ED91D2
:10202000FC9111970480F581E02D9801A1016B814D
:102030007C81CD010995AD81BE81ED91FC91119717
:102040000480F581E02D9801A10169817A81CD019B
:1020500009955BCF26960FB6F894DEBF0FBECDBFB5
:10206000DF91CF911F910F91FF90EF90DF90CF9074
:10207000BF90AF909F908F907F906F905F904F90A8
:102080003F902F9008952F923F924F925F926F92C0
:102090007F928F929F92AF92BF92CF92DF92EF92F8
:1020A000FF920F931F93CF93DF9300D000D000D007
:1020B000CDB7DEB79E838D834B013A016901802F36
:1020C00044244394512C421A530A22243324221AC2
:1020D000330A220C331CAA24A394B12C01E010E093
:1020E000982F94709983A82FA270AA83B82FB870E4
:1020F000BB8381708C83C50101978C159D050CF005
:10210000A6C057FC08C0E1E0CE1AD108F2E02F0EBD
:10211000311C420C531C0E5F1F4F400E511E898113
:10212000882311F1AD81BE81ED91FC91119704805E
:10213000F581E02D9701A3014C0D5D1DB501680DE2
:10214000791DCD010995AD81BE81ED91FC9111976D
:102150000480F581E02D9701A501460D571DB401BE
:102160006C0D7D1DCD010995BA81BB2311F1AD81A7
:10217000BE81ED91FC9111970480F581E02D9701CE
:10218000A3014C195D09B501680D791DCD010995B3
:10219000AD81BE81ED91FC9111970480F581E02D18
:1021A0009701A3014A195B09B4016C0D7D1DCD0196
:1021B0000995BB81BB2311F1AD81BE81ED91FC91ED
:1021C00011970480F581E02D9701A501460D571D5B
:1021D000B4016C197D09CD010995AD81BE81ED91E8
:1021E000FC9111970480F581E02D9701A3014C0D1E
:1021F0005D1DB4016A197B09CD010995BC81BB2322
:1022000011F1AD81BE81ED91FC9111970480F581B2
:10221000E02D9701A3014A195B09B4016C197D09EE
:10222000CD010995AD81BE81ED91FC91119704809E
:10223000F581E02D9701A3014C195D09B4016A19DC
:102240007B09CD010995BFEFAB1ABB0A54CF269687
:102250000FB6F894DEBF0FBECDBFDF91CF911F91B7
:102260000F91FF90EF90DF90CF90BF90AF909F9035
:102270008F907F906F905F904F903F902F90089538
:102280002F923F924F925F926F927F928F929F9286
:10229000AF92BF92CF92DF92EF92FF920F931F9374
:1022A000CF93DF93CDB7DEB728970FB6F894DEBF94
:1022B0000FBECDBF5C011B015A83498338872F8332
:1022C000FC82EB8288248394912C821A930A390130
:1022D000719461947108660C771C270123E0420E0B
:1022E000511CEE24E394F12C302F31703D830270A9
:1022F0000E83C7010197EF81F8858E179F070CF0B9
:102300007BC097FC0AC08F819885019798878F833F
:1023100092E0690E711C860C971CC201AB81BC81D6
:102320008A1B9B0B880E991EBD81BB2369F1D501C9
:10233000ED91FC912F813885220F331F2F5F3F4F86
:102340008B819C81280F391F0084F185E02D860147
:1023500049815A81AF81B8854A1B5B0BB701620D79
:10236000731DC5010995D501ED91FC910084F1859E
:10237000E02D920149815A814E195F096F8178855C
:10238000620D731DC5010995BE81BB2371F1D50195
:10239000ED91FC912F813885220F331F2F5F3F4F26
:1023A0008B819C81280F391F0084F185E02D8601E7
:1023B00049815A81AF81B8854A1B5B0BB1016E1907
:1023C0007F09C5010995D501ED91FC910084F18546
:1023D000E02D920149815A814E195F09B1018F8127
:1023E0009885681B790BC50109959FEFE91AF90AD1
:1023F000A2E04A0E511C7DCF28960FB6F894DEBF9E
:102400000FBECDBFDF91CF911F910F91FF90EF9045
:10241000DF90CF90BF90AF909F908F907F906F9004
:102420005F904F903F902F9008956F927F928F9280
:102430009F92AF92BF92CF92DF92EF92FF920F9353
:102440001F93CF93DF93EC014B013A0159016801CF
:10245000E881F981220F331F2F5F3F4F4A195B0933
:102460000084F185E02D0995E12CF12C03E0950124
:10247000A301B401CE010E944011DF91CF911F91C1
:102480000F91FF90EF90DF90CF90BF90AF909F9013
:102490008F907F906F9008952F923F924F925F920E
:1024A0006F927F928F929F92AF92BF92CF92DF9264
:1024B000EF92FF920F931F93CF93DF93CDB7DEB7C9
:1024C00028970FB6F894DEBF0FBECDBF98878F83D5
:1024D0003B014A013C832B831E830D835701EE246D
:1024E000FF24EA18FB08EE0CFF1CC9018E0D9F1D8E
:1024F0009A8389832B014A0C5B1CAF81B885ED91CF
:10250000FC9111970284F385E02D86019C01B201B4
:10251000CD0109952D803E80280C391CAF81B885EE
:10252000ED91FC911197A101415051090284F3856D
:10253000E02D29813A81B201CD010995ED81FE811D
:10254000EE0EFF1E8A0C9B1CAF81B885ED91FC91AD
:1025500011970084F185E02D9701A401B301CD010D
:102560000995EB81FC816E0E7F1EAF81B885ED91E0
:10257000FC911197B301615071090084F185E02D40
:102580009701A401CD010995760101E09501A4010F
:10259000B2018F8198850E9443106A187B08B1E0D0
:1025A0006B1A710802E09501A401B3018F8198852F
:1025B0000E94431041018A189B08E1E08E1A91089D
:1025C00004E09501A401B3018F8198850E94431016
:1025D00008E09501A401B2018F8198850E94431003
:1025E00028960FB6F894DEBF0FBECDBFDF91CF9116
:1025F0001F910F91FF90EF90DF90CF90BF90AF9021
:102600009F908F907F906F905F904F903F902F9012
:1026100008952F923F924F925F926F927F928F9286
:102620009F92AF92BF92CF92DF92EF92FF920F9361
:102630001F93CF93DF9300D000D000D0CDB7DEB78B
:102640005C017A8369833A013C832B834801FE82D3
:10265000ED8226016701D194C194D108CC0CDD1C18
:102660001B012E0C3F1CD501ED91FC912C0D3D1D45
:102670000684F785E02D72018401B101C501099539
:102680008C0C9D1CB1E08B1A9108ED81FE816E0EC1
:102690007F1E69817A818B819C81680F791F6E1BF7
:1026A0007F0B615071096201740101E09F01A30178
:1026B000C5010E94401102E02D813E81A301B101BC
:1026C000C5010E94401126960FB6F894DEBF0FBEDA
:1026D000CDBFDF91CF911F910F91FF90EF90DF90D1
:1026E000CF90BF90AF909F908F907F906F905F90B2
:1026F0004F903F902F9008952F923F924F925F926C
:102700006F927F928F929F92AF92BF92CF92DF9201
:10271000EF92FF920F931F93CF93DF9300D000D0DF
:10272000CDB7DEB79C838B831B012A014901380199
:10273000FA82E982DC01ED91FC910680F781E02DBF
:1027400075010995AB81BC81ED91FC9111970680D3
:10275000F781E02D860129813A81A301B401CD01E1
:102760000995AB81BC81ED91FC9111970680F781B1
:10277000E02D82019101A60169817A81CD0109953F
:102780000F900F900F900F90DF91CF911F910F91AD
:10279000FF90EF90DF90CF90BF90AF909F908F9081
:1027A0007F906F905F904F903F902F9008952F9261
:1027B0003F924F925F926F927F928F929F92AF92D1
:1027C000BF92CF92DF92EF92FF920F931F93CF931E
:1027D000DF93CDB7DEB7AE970FB6F894DEBF0FBE6E
:1027E000CDBF98878F834B013A0129011EA70DA702
:1027F000B701DA82C982BE8AAD8A041715074CF484
:10280000872D38014DA78EA7982D892D4901492E76
:10281000582E2DA53EA549815A81421753075CF4D5
:102820009DA58EA55EA74DA799838A83942D852D9E
:102830002B01692F782F8DA59EA5861597055CF431
:10284000962D872D6DA47EA49DA78EA7982D892DEA
:102850004201492E582EA981BA816A167B0619F5C4
:10286000481459042CF0942D852D2401892E982E7E
:10287000641575052CF0861697060CF44B01B20111
:10288000AF81B885ED91FC9111979401261B370B10
:102890002F5F3F4F0284F385E02D0D891E89A30130
:1028A000CD01099552C1C201881999092DA53EA5EE
:1028B00026193709FB01E819F909FA87E9874981DF
:1028C0005A81461957095E874D87DB01A419B5095E
:1028D000BA8BA98BE981FA814DA55EA5E41BF50BA6
:1028E000F88FEF8B69817A814617570729F041509D
:1028F00051095C8F4B8F04C0ADA5BEA5BC8FAB8FBB
:102900001301A12CB12C65011B821C821D821E8229
:10291000A901662757FD6095762F4D8F5E8F6F8FCB
:1029200078A32D853E85442737FD4095542F29A354
:102930003AA34BA35CA3AC01662757FD6095762FA5
:102940004DA35EA36FA378A769857A85882777FD55
:102950008095982F69A77AA78BA79CA7EB8DFC8DF4
:10296000E215F3050CF44EC06B817C818D819E8154
:102970002D8D3E8D4F8D58A10E945A277401E20E75
:10298000F31EC601B50129A13AA14BA15CA10E9489
:102990005A27B401620F731F8B819C81AD81BE8168
:1029A0002DA13EA14FA158A5820F931FA41FB51FB3
:1029B0008B839C83AD83BE8389A59AA5ABA5BCA55B
:1029C000A80EB91ECA1EDB1E6E157F052CF0962FB1
:1029D000872FB701E92EF82EAF81B885ED91FC91D4
:1029E00011979701261B370B2F5F3F4F0284F3850A
:1029F000E02D0D891E89A101CD010995BFEF2B1A8C
:102A00003B0AACCF91014DA55EA5241B350B69890E
:102A10007A89629FC001639F900D729F900D11246F
:102A20009C01442737FD4095542F2B833C834D83D5
:102A30005E83C1018619970949855A85489F6001BF
:102A4000499FD00C589FD00C1124EE24D7FCE09461
:102A5000FE2C6F89788D882777FD8095982F6F8B56
:102A6000788F898F9A8F8D859E85AA2797FDA0954F
:102A7000BA2F8D879E87AF87B88B29893A894427DB
:102A800037FD4095542F298B3A8B4B8B5C8B4985B6
:102A90005A85662757FD6095762F49875A876B8739
:102AA0007C87E981FA81E215F3050CF44EC06B8155
:102AB0007C818D819E812F89388D498D5A8D0E9410
:102AC0005A275201A20EB31EC701B6012D853E85BD
:102AD0004F8558890E945A27B401620F731F8B815A
:102AE0009C81AD81BE8129893A894B895C89820F9D
:102AF000931FA41FB51F8B839C83AD83BE838985E1
:102B00009A85AB85BC85C80ED91EEA1EFB1E6A15C8
:102B10007B052CF0962F872FB501A92EB82EAF81FB
:102B2000B885ED91FC9111979501261B370B2F5F0E
:102B30003F4F0284F385E02D0D891E89A101CD014F
:102B40000995BFEF2B1A3B0AACCFAE960FB6F8949F
:102B5000DEBF0FBECDBFDF91CF911F910F91FF90D0
:102B6000EF90DF90CF90BF90AF909F908F907F902D
:102B70006F905F904F903F902F9008952F923F92CB
:102B80004F925F926F927F929F92AF92BF92CF923D
:102B9000DF92EF92FF920F931F93CF93DF93CDB706
:102BA000DEB72A970FB6F894DEBF0FBECDBF5C012B
:102BB0007C836B835E834D83190127013601C80135
:102BC000079697FD07969C0193E0359527959A9572
:102BD000E1F73A832983C12CD12CE12CF12CE414A8
:102BE000F5040CF044C01A8619868D819E818E0DE5
:102BF0009F1D98878F83E985FA85E017F1077CF59B
:102C000089859A8587709927892B11F0990C0EC0B8
:102C1000E985FA85F7FD379683E0F595E7958A957E
:102C2000E1F7EC0DFD1DE20DF31D949097FE11C030
:102C3000D501ED91FC910480F581E02D93014F8148
:102C400058856B817C8189859A85680F791FC501BC
:102C50000995A985BA851196BA87A987CCCFFFEFC8
:102C6000EF1AFF0A29813A81C20ED31EB8CF2A96E5
:102C70000FB6F894DEBF0FBECDBFDF91CF911F918D
:102C80000F91FF90EF90DF90CF90BF90AF909F900B
:102C90007F906F905F904F903F902F9008952F926C
:102CA0003F924F925F926F927F928F929F92AF92DC
:102CB000BF92CF92DF92EF92FF920F931F93CF9329
:102CC000DF93CDB7DEB76A970FB6F894DEBF0FBEBD
:102CD000CDBF1C0158874F831C870B87FA86E98676
:102CE000CC82DC0158964D915C9159974115510564
:102CF00009F0A6C018968D919C91199768177907CD
:102D00000CF056C11A968D919C911B97EF81F88516
:102D1000E817F9070CF04CC1D12CCB013C81F6E04F
:102D20003F9F800D911D1124181619060CF040C10B
:102D3000C60103E0880F991F0A95E1F74F81588576
:102D4000840F951F181619060CF032C157968C91F6
:102D5000811103C0203B08F02F5F7E876D874B01F8
:102D6000198218E8A12E10E0B12EA61AB70A55E074
:102D7000259FA00CB11C11248981853039F0ED8587
:102D8000FE85EA0DFB1D94919A8301C01A826F8023
:102D900078842301A8E0AD83BA81B0FF12C0D101CD
:102DA000ED91FC91BC81B13031F40480F581E02DCE
:102DB0002B853C8518C00684F785E02DEB84FC84C8
:102DC0001DC0E985FA852B853C85E217F307E1F004
:102DD000D101ED91FC91BC81B13059F40480F581B1
:102DE000E02D29853A85A2016D857E85C101099571
:102DF0000BC00684F785E02DE984FA8486019601EC
:102E0000A301B401C1010995EA81E695EA83FD8138
:102E1000F150FD836C0C7D1C2FEF421A520AF11108
:102E2000BBCF39813F5F39838C0C9D1C4D855E85FE
:102E30004F5F5F4F5E874D87363009F09DCFB8C03A
:102E4000FA0134963491329785919491231BA7E02F
:102E50002A9F800D911D1124FA0125913491398BFF
:102E6000288BFC01459154915A8F498FFC01329671
:102E7000549159873196A491AF873196E491FC0122
:102E80003596249131968491BC81B23050F0622EF7
:102E9000772467FC7094E82FFF27E7FDF095FE8705
:102EA000ED87FC81CF2ED12C6C9C40016D9C900C49
:102EB0007C9C900C1124860E971EA12C1982DE8A10
:102EC000CD8AAB01420F511D27FD5A955E834D837C
:102ED000AF81B885A80FB11D87FDBA95B88FAF8BAC
:102EE00059818F85581708F063C0852F90E02D8594
:102EF0003E85280F391F2C9DD0012D9DB00D3C9D86
:102F0000B00D1124EF81F885EA0FFB1FFB83EA83E4
:102F10006D807E802401FA2D2D81F21BFA8B4F8962
:102F2000588D480F591F5C8B4B8B9A89960D862DB7
:102F30002D81821B39858317B0F5977061F4898DD7
:102F40009A8D0196E889F989298D3A8DE20FF31F50
:102F5000B4909A8F898FB7FE1DC0D101ED91FC917D
:102F6000BC81B13059F40480F581E02D2B853C857E
:102F70004B895C89B301C10109950CC00684F785B2
:102F8000E02DEB84FC84860196014A815B81B201CD
:102F9000C1010995BB0CED89FE894E0E5F1EFFEF46
:102FA0006F1A7F0AC2CFA30E49814F5F498398CF22
:102FB0006A960FB6F894DEBF0FBECDBFDF91CF91FA
:102FC0001F910F91FF90EF90DF90CF90BF90AF9047
:102FD0009F908F907F906F905F904F903F902F9039
:102FE0000895AF92BF92CF92EF92FF920F931F93EB
:102FF000CF93DF93EC01262F888D998D009709F0F0
:1030000042C06A3069F42C898E859F8538E0239F01
:10301000800D911D11249F878E871D861C86ABC055
:103020006D3009F4A8C08E898823C1F03C898C8555
:103030009D8546E0349F800D911D1124488559855A
:10304000841795075CF01D861C868E859F85E8E0B9
:103050003E9F800D911D11249F878E87EA88FB88F3
:10306000088919894E855F856C857D85CC88CE0160
:103070000E944F162C898C859D85F6E02F9F800D30
:10308000911D112441C06A3079F41D861C864C893B
:10309000FC01369684912E853F85489F200D311D79
:1030A00011243F872E8767C06D3009F464C0AC01DE
:1030B0004C5F5F4FFA013491631708F45CC031969E
:1030C000E491E61708F457C0FA014491362F341BF7
:1030D000FC013296A590B490F7E03F9FA00CB11C84
:1030E0001124F5013296A4913196E491AA2311F0AE
:1030F000E1110DC0F5013496A4902C898C859D8535
:10310000A29E800D911D11249D878C8734C0F501EE
:103110003596E4913E89332309F13C89B0E0AE0F46
:10312000B11DE7FDBA953A9FA0013B9F500D1124B8
:103130006C857D85460F571F68857985461757072B
:103140006CF01D861C86FC01369684914E855F8549
:10315000389F400D511D11245F874E87EA88FB88F8
:10316000088919894E855F856C857D85CC88CE015F
:103170000E944F16BFCF81E090E0DF91CF911F9169
:103180000F91FF90EF90CF90BF90AF900895FC010A
:1031900075876487578746870895611101C061E08C
:1031A000FC01648B0895FC01738B628B718B608BC7
:1031B0000895FC01718B608B538B428B0895FC0149
:1031C00085890895FC01808591850895FC0182859B
:1031D000938508950F931F93CF93DF93EC018D890F
:1031E000823061F08330D9F0813009F0C8C0EC81C1
:1031F000FD81E41BF50B3197DB0118C08C819D81AB
:10320000DC01A61BB70BBD018E819F81FC01E41B75
:10321000F50BAF0141505109621B730BB0C0AE8179
:10322000BF81A61BB70BA21BB30BFA01F7FD05C1AB
:103230008C819D81E817F9070CF0FFC0B7FF04C02F
:103240002A0F3B1FA0E0B0E08E819F81AD01420FAD
:10325000531F841795071CF49C012A1B3B0B121665
:1032600013060CF0EAC0422F8A2F86958695869524
:1032700090E8899FE00DF11D1124E65EFE4FA770D6
:1032800069F158E05A1B852F90E0EC01CE5EDE4FCD
:103290006881251760F4DC01A21BB1098FEF90E073
:1032A0000A2E02C0959587950A94E2F768230130AB
:1032B000110539F048F00230110551F4808186275C
:1032C00006C08081862B03C0609580818623808321
:1032D000451708F4B2C0451BE058FF4F4830A0F135
:1032E00002301105A9F4DF01842F9C9190959C93E5
:1032F000A058BF4F88508830C0F788EF840F86955C
:1033000086958695B0E88B9FE00DF11D112419C0BC
:1033100081E00130110509F080E0982F9195EF01CF
:10332000842F9883C058DF4F88508830D0F788EFBB
:10333000840F86958695869590E8899FE00DF11D0E
:103340001124E058FF4F4770442309F476C0A42F9E
:10335000B0E0A65FBE4F9C910130110541F050F0E6
:103360000230110509F069C08081892706C080817B
:10337000892B03C090958081892380835EC057FD8F
:103380005CC08E819F81481759070CF056C077FFAB
:1033900004C0260F371F60E070E08C819D81FB0127
:1033A000E20FF31F8E179F071CF49C01261B370B9F
:1033B000121613060CF041C0CA0157FD0796E3E050
:1033C00095958795EA95E1F79695982F8827979593
:1033D0008795865E9E4F860F971F4770552761E041
:1033E00070E001C0660F4A95EAF7462F01301105DB
:1033F00041F088F00230110501F5FC01280F391F5A
:1034000015C0FC01280F391FE217F307B1F08081C6
:10341000842B8193F9CF6095FC01280F391FE217A7
:10342000F30759F0808186238193F9CFE217F307E0
:1034300021F0808184278193F9CFDF91CF911F9173
:103440000F9108950F931F93CF93DF93FC0185890C
:10345000823069F08330E1F0813009F082C0C481AC
:10346000D581C41BD50BC21BD30BDB0117C08481D4
:103470009581DC01A61BB70BBD01615071098681E6
:103480009781DC01A41BB50BAD01421B530B69C036
:10349000A681B781A61BB70B1197EA01B7FD08C13A
:1034A00086819781A817B9070CF002C1D7FF04C025
:1034B0002C0F3D1FC0E0D0E084819581AE01420F0A
:1034C000531F841795071CF49C012C1B3D0B1216EF
:1034D00013060CF0EDC0CD01B7FD079643E09595BE
:1034E00087954A95E1F79695982F88279795879520
:1034F000865E9E4F8C0F9D1FA770BB2741E050E05A
:103500000A2E01C0440F0A94EAF7642F0130110516
:1035100049F098F00230110509F0CAC0FC01280FEB
:10352000391F17C0FC01280F391FE217F30709F4F0
:10353000BFC08081862B8193F8CF4095FC01280F76
:10354000391FE217F30709F4B3C080818423819304
:10355000F8CFE217F30709F4ABC080818627819387
:10356000F8CF77FDA5C084819581681779070CF0A5
:103570009FC057FF04C0240F351F40E050E08681F4
:103580009781FA01E20FF31F8E179F071CF49C012D
:10359000241B350B121613060CF08AC0522F842FF1
:1035A000869586958695FB01B0E88B9FE00DF11D11
:1035B0001124E65EFE4F477069F168E0641B862FB8
:1035C00090E0EC01CE5EDE4F4881261760F4DC010E
:1035D000A21BB1098FEF90E00A2E02C09595879546
:1035E0000A94E2F748230130110539F048F002301F
:1035F000110551F48081842706C08081842B03C08B
:103600004095808184238083561708F451C0561B4F
:10361000E058FF4F5830A0F102301105A9F4DF0146
:10362000852F9C9190959C93A058BF4F88508830CF
:10363000C0F788EF850F869586958695B0E88B9FB5
:10364000E00DF11D112419C081E00130110509F0D0
:1036500080E0982F9195EF01852F9883C058DF4F18
:1036600088508830D0F788EF850F869586958695A7
:1036700090E8899FE00DF11D1124E058FF4F57702D
:103680005523B1F0A52FB0E0A65FBE4F9C9101304D
:10369000110539F048F00230110551F48081892775
:1036A00006C08081892B03C0909580818923808307
:1036B000DF91CF911F910F910895CF92DF92EF92FA
:1036C000FF920F931F93CF93DF937C018B01EA014D
:1036D000690177FDA0C00E94E218081719070CF0D5
:1036E0009AC0D7FD98C0C7010E94E618C817D9072D
:1036F0000CF091C0C7010E94DF18823009F07FC032
:10370000F701848195819C01201B310B89010150B7
:10371000110986819781FC01EC1BFD0BEF012197BC
:103720000BC0813049F4F701848195818C1B9D0B7E
:10373000E8018C0101501109F1E0CF16D10431F0FC
:1037400010F132E0C316D104E1F165C0FE01D7FDEE
:10375000379683E0F595E7958A95E1F7F695FE2F84
:10376000EE27F795E795E00FF11FE65EFE4FC77075
:10377000DD2781E090E00C2E01C0880F0A94EAF763
:103780009081982B3AC0FE01D7FD3796A3E0F595BE
:10379000E795AA95E1F7F695FE2FEE27F795E795C1
:1037A000E00FF11FE65EFE4FC770DD2781E090E07D
:1037B0000C2E01C0880F0A94EAF780959081982317
:1037C0001CC0FE01D7FD379663E0F595E7956A9535
:1037D000E1F7F695FE2FEE27F795E795E00FF11F3D
:1037E000E65EFE4FC770DD2781E090E00C2E01C041
:1037F000880F0A94EAF79081982790830CC0833051
:1038000009F08FCFF70186819781801B910B8E0184
:10381000EC01219791CFDF91CF911F910F91FF90F4
:10382000EF90DF90CF9008951F93CF93DF93EC013B
:10383000162F40E450E060E870E00E94040F8DE62F
:1038400095E0998388838FEF8C8F88A38E8F8D8FDF
:103850001F8FDF91CF911F91089580E094E0EAE1FE
:10386000F1E0DF019C011D9221503040E1F7089505
:10387000FC0181A1882339F06EBD00000DB407FE64
:10388000FDCF8EB5089588E090E030E8A4A1B5A101
:103890004C9123A5209524232C93A2A1B3A122A56A
:1038A000432F462321F04C91422B4C9304C04C9162
:1038B000209524232C93A4A1B5A12C9143A5242BBE
:1038C0002C933695019711F708951F93CF93DF93AB
:1038D000EC01162F8C8D8F3F09F1EEA1FFA18081A5
:1038E0009CA5892B8083E8A5F9A590818DA580955D
:1038F00089238083EEA1FFA190818CA580958923E7
:103900008083CE010E94381CEEA1FFA180819CA57E
:10391000892B8083DF91CF911F9108958A8D682F25
:10392000772767FD709584ED95E00E94960B60E027
:1039300084ED95E00E94430B612F84ED95E00E9499
:10394000430B84ED95E0DF91CF911F910C94AB0B6D
:103950000F931F93CF93DF93EC01162F022F6B8FE2
:103960004A8F8C8D8F3F09F48CC061E08E8D0E9450
:103970004D2061E088A10E944D2088A1992787FDF4
:103980009095FC01E055FA4FE491F0E0EE0FFF1F37
:10399000EC53FA4F259134913FA32EA3FC01E4563A
:1039A000FA4F84918CA78E8D992787FD9095FC0105
:1039B000E055FA4FE491F0E0EE0FFF1FEC53FA4FA1
:1039C0002591349139A728A7FC01E456FA4F849138
:1039D0008DA789A1811134C061E08C8D0E944D209A
:1039E00061E08D8D0E944D208D8D992787FD9095EA
:1039F000FC01E055FA4FE491F0E0EE0FFF1FEC53AD
:103A0000FA4F259134913DA32CA3FC01E456FA4FC3
:103A100084918BA78C8D992787FD9095FC01E055AB
:103A2000FA4FE491F0E0EE0FFF1FEC53FA4F2591AF
:103A300034913BA32AA3FC01E456FA4F84918AA750
:103A400089A1882311F10E94B50A8091D2058823AB
:103A500099F09FB7F8948091D205813059F48DB3D5
:103A60008093D0052DB38091D105809582238DBBA5
:103A70009FBF02C09093D00580E58CBD81E08DBDD5
:103A800004C084ED95E00E94820B0023F1F08F8D3D
:103A900087FD1BC061E00E944D2061E08F8D0E9478
:103AA000862061E070E080E090E00E94AF1F60E05F
:103AB0008F8D0E9486206AE070E080E090E00E9496
:103AC000AF1F61E08F8D0E9486206EEACE010E94BA
:103AD000651C65EDCE010E94651C60E8CE010E9468
:103AE000651C68EACE010E94651C6FE3CE010E944E
:103AF000651C63EDCE010E94651C60E0CE010E9452
:103B0000651C60E4CE010E94651C6DE8CE010E9438
:103B1000651C113011F460E101C064E1CE010E9426
:103B2000651C60E2CE010E94651C60E0CE010E942F
:103B3000651C61EACE010E94651C68ECCE010E9402
:103B4000651C6AEDCE010E94651C62E1CE010E94F7
:103B5000651C61E8CE010E94651C113011F46FE90B
:103B600001C06FECCE010E94651C69EDCE010E9480
:103B7000651C113011F462E201C061EFCE010E94B8
:103B8000651C6BEDCE010E94651C60E4CE010E94B5
:103B9000651C64EACE010E94651C66EACE010E94A3
:103BA000651C6EE2CE010E94651C6FEACE01DF91BA
:103BB000CF911F910F910C94651C662311F067EA59
:103BC00001C066EA0C94651CEF92FF921F93CF939D
:103BD000DF931F92CDB7DEB77C01162F66E24983D3
:103BE0000E94651C60E0C7010E94651C612FC7012F
:103BF0000E94651C60E0C7010E94651C4981642F1A
:103C0000C7010E94651C60E0C7010E94651C6FEF40
:103C1000C7010E94651C6FE2C7010F90DF91CF9131
:103C20001F91FF90EF900C94651CEF92FF921F93F1
:103C3000CF93DF931F92CDB7DEB77C01162F67E2DB
:103C400049830E94651C60E0C7010E94651C612FCA
:103C5000C7010E94651C60E0C7010E94651C498184
:103C6000642FC7010E94651C60E0C7010E94651CAB
:103C70006FEFC7010E94651C6FE2C7010F90DF91D3
:103C8000CF911F91FF90EF900C94651CEF92FF92E3
:103C90001F93CF93DF931F92CDB7DEB77C01162F12
:103CA00063EA49830E94651C60E0C7010E94651CAD
:103CB00060E4C7010E94651C69E2C7010E94651C9F
:103CC00060E0C7010E94651C612FC7010E94651C4E
:103CD00060E0C7010E94651C4981642FC7010E94F2
:103CE000651C61E0C7010E94651C6FE2C7010F906F
:103CF000DF91CF911F91FF90EF900C94651CEF9294
:103D0000FF921F93CF93DF931F92CDB7DEB77C0155
:103D1000162F63EA49830E94651C60E0C7010E9478
:103D2000651C60E4C7010E94651C6AE2C7010E942D
:103D3000651C60E0C7010E94651C612FC7010E94DD
:103D4000651C60E0C7010E94651C4981642FC701A2
:103D50000E94651C61E0C7010E94651C6FE2C701FB
:103D60000F90DF91CF911F91FF90EF900C94651C05
:103D70006EE20C94651CDF92EF92FF920F931F93FB
:103D8000CF93DF93EC0161E20E94651C60E0CE01FD
:103D90000E94651C6FE7CE010E94651C62E2CE01A5
:103DA0000E94651C60E0CE010E94651C67E0CE01A8
:103DB0000E94651C8C8D8F3F31F1EEA1FFA18081A7
:103DC0009CA5892B8083E8A5F9A580819DA5892BD9
:103DD0008083EEA1FFA190818CA5809589238083AB
:103DE0000AE111E0F80161918F01CE010E94381CB7
:103DF000F5E00A311F07B1F7EEA1FFA180819CA574
:103E0000892B808337C0D090B8008CE08093B800B5
:103E10000AE111E06A8D772767FD709584ED95E0E2
:103E20000E94960BE091D405F091D5050190F081A8
:103E3000E02D60E484ED95E00995E12CF12CF8018A
:103E4000EE0DFF1D608184ED95E00E94430B8FEF26
:103E5000E81AF80AE0E1EE16F10489F784ED95E03E
:103E60000E94AB0B005F1F4FF5E00A311F0791F670
:103E7000D092B800DF91CF911F910F91FF90EF90FA
:103E8000DF9008951F920F920FB60F9211242F9377
:103E90003F938F939F93AF93BF938091950690919B
:103EA0009606A0919706B09198063091940623E06B
:103EB000230F2D3720F40196A11DB11D05C026E862
:103EC000230F0296A11DB11D2093940680939506A1
:103ED00090939606A0939706B093980680919906C2
:103EE00090919A06A0919B06B0919C060196A11D07
:103EF000B11D8093990690939A06A0939B06B09368
:103F00009C06BF91AF919F918F913F912F910F9000
:103F10000FBE0F901F9018953FB7F89480919906A7
:103F200090919A06A0919B06B0919C0626B5A89BFD
:103F300005C02F3F19F00196A11DB11D3FBF662797
:103F4000782F892F9A2F620F711D811D911D42E0DC
:103F5000660F771F881F991F4A95D1F708958F9292
:103F60009F92AF92BF92CF92DF92EF92FF926B013E
:103F70007C010E948C1F4B015C01C114D104E1043F
:103F8000F104F1F00E940C250E948C1F6819790938
:103F90008A099B09683E73408105910570F321E011
:103FA000C21AD108E108F10888EE880E83E0981E55
:103FB000A11CB11CC114D104E104F10429F7DDCF27
:103FC000FF90EF90DF90CF90BF90AF909F908F9039
:103FD0000895789484B5826084BD84B5816084BD81
:103FE00085B5826085BD85B5816085BDEEE6F0E072
:103FF000808181608083E1E8F0E0108280818260CE
:104000008083808181608083E0E8F0E0808181604E
:104010008083E1EBF0E0808184608083E0EBF0E07E
:10402000808181608083EAE7F0E080818460808322
:1040300080818260808380818160808380818068CC
:1040400080831092C1000895833081F028F481307C
:1040500099F08230A1F008958730A9F08830B9F046
:104060008430D1F4809180008F7D03C080918000E6
:104070008F7780938000089584B58F7702C084B5D0
:104080008F7D84BD08958091B0008F7703C08091AB
:10409000B0008F7D8093B0000895CF93DF9390E0C0
:1040A000FC01E456FA4F2491FC01E055FA4F84914B
:1040B000882349F190E0880F991FFC01E253FA4FE1
:1040C000A591B4918C539A4FFC01C591D4919FB79F
:1040D000611108C0F8948C91209582238C9388817B
:1040E00082230AC0623051F4F8948C91322F3095BB
:1040F00083238C938881822B888304C0F8948C91CD
:10410000822B8C939FBFDF91CF9108950F931F93C4
:10411000CF93DF931F92CDB7DEB7282F30E0F901A0
:10412000E857FA4F8491F901E456FA4F1491F901D6
:10413000E055FA4F04910023C9F0882321F06983E8
:104140000E9424206981E02FF0E0EE0FFF1FEC5366
:10415000FA4FA591B4919FB7F8948C91611103C067
:104160001095812301C0812B8C939FBF0F90DF910D
:10417000CF911F910F910895FC01818D228D90E0C8
:10418000805C9F4F821B91098F7399270895FC01D2
:10419000918D828D981731F0828DE80FF11D858DFC
:1041A00090E008958FEF9FEF0895FC01918D828D2F
:1041B000981761F0828DDF01A80FB11D5D968C917B
:1041C000928D9F5F9F73928F90E008958FEF9FEF86
:1041D000089589E592E2892B49F080E090E0892BEF
:1041E00029F00E94592281110C9400000895FC01CD
:1041F000848DDF01A80FB11DA35ABF4F2C91848D70
:1042000090E001968F739927848FA689B7892C93A4
:10421000A089B1898C9180648C93938D848D98133F
:1042200006C00288F389E02D80818F7D8083089508
:10423000CF93DF93EC01888D8823C9F0EA89FB894D
:10424000808185FD05C0A889B9898C9186FD0FC044
:104250000FB607FCF5CF808185FFF2CFA889B98919
:104260008C9185FFEDCFCE010E94F720E7CFDF9143
:10427000CF910895CF92DF92FF920F931F93CF9328
:10428000DF931F92CDB7DEB76C0181E0D60158965F
:104290008C9358975B969C915B975C968C915C97FE
:1042A000981307C05096ED91FC915197808185FD40
:1042B0002EC0F601038D10E00F5F1F4F0F73112703
:1042C000F02EF601848DF81211C00FB607FCF9CF5D
:1042D000D6015096ED91FC915197808185FFF1CFE9
:1042E000C60169830E94F7206981EBCF838DE80FB7
:1042F000F11DE35AFF4F6083D6015B960C935B97E9
:104300005296ED91FC915397808180620CC0D6014A
:104310005696ED91FC91579760835096ED91FC91E4
:10432000519780818064808381E090E00F90DF91DD
:10433000CF911F910F91FF90DF90CF900895BF9282
:10434000CF92DF92EF92FF92CF93DF93EC016A015D
:104350007B01B22EE889F98982E08083411581EEE4
:10436000580761057105A1F060E079E08DE390E008
:10437000A70196010E9438272150310941095109AE
:104380005695479537952795211580E1380798F080
:10439000E889F989108260E874E88EE190E0A7016D
:1043A00096010E943827215031094109510956953B
:1043B000479537952795EC85FD853083EE85FF85FC
:1043C0002083188EEC89FD89B082EA89FB8980817F
:1043D00080618083EA89FB89808188608083EA89A3
:1043E000FB89808180688083EA89FB8980818F7D59
:1043F0008083DF91CF91FF90EF90DF90CF90BF90BF
:1044000008951F920F920FB60F9211242F938F933E
:104410009F93EF93FF93E091AD06F091AE068081FC
:10442000E091B306F091B40682FD12C090818091B4
:10443000B6068F5F8F732091B706821751F0E09117
:10444000B606F0E0E356F94F958F8093B60601C0AB
:104450008081FF91EF919F918F912F910F900FBECF
:104460000F901F9018951F920F920FB60F92112464
:104470002F933F934F935F936F937F938F939F936C
:10448000AF93BF93EF93FF938DE996E00E94F720DF
:10449000FF91EF91BF91AF919F918F917F916F911C
:1044A0005F914F913F912F910F900FBE0F901F90F2
:1044B00018958DE996E00E94BC2021E0892B09F433
:1044C00020E0822F08951092A00610929F0688EE99
:1044D00093E0A0E0B0E08093A1069093A206A093A1
:1044E000A306B093A40685E895E090939E0680937A
:1044F0009D0685EC90E09093AA068093A90684EC33
:1045000090E09093AC068093AB0680EC90E09093A3
:10451000AE068093AD0681EC90E09093B006809358
:10452000AF0682EC90E09093B2068093B10686ECE1
:1045300090E09093B4068093B3061092B606109262
:10454000B7061092B8061092B9060895CF92DF927E
:10455000EF92FF920F931F93CF93DF937C016A0139
:10456000EB0100E010E00C151D0571F06991D70119
:10457000ED91FC910190F081E02DC7010995892B07
:1045800019F00F5F1F4FEFCFC801DF91CF911F913F
:104590000F91FF90EF90DF90CF9008956115710516
:1045A00081F0DB010D900020E9F7AD014150510988
:1045B000461B570BDC01ED91FC910280F381E02D4D
:1045C000099480E090E008950C94CE22DC01ED91F6
:1045D000FC910190F081E02D099461E975E00C9463
:1045E000CE220F931F93CF93DF93EC010E94CE2234
:1045F0008C01CE010E94ED22800F911FDF91CF919F
:104600001F910F9108958F929F92AF92BF92DF9268
:10461000EF92FF920F931F93CF93DF93CDB7DEB747
:10462000A1970FB6F894DEBF0FBECDBF7C01F42F6B
:10463000D52ECB0119A2223008F42AE08E010F5D9D
:104640001F4F822E912CA12CB12C6F2F7D2DA501F7
:1046500094010E943827F22FD32ECA01015011096C
:104660006A3014F4E0E301C0E7E3E60FD801EC930D
:10467000232B242B252B49F7B801C7010E94CE22FA
:10468000A1960FB6F894DEBF0FBECDBFDF91CF91DC
:104690001F910F91FF90EF90DF90BF90AF909F9090
:1046A0008F900895CF92DF92EF92FF920F931F9316
:1046B000CF93DF93EC016A017B012115310579F479
:1046C000E881F9810190F081E02D642FDF91CF9195
:1046D0001F910F91FF90EF90DF90CF9009942A30B7
:1046E0003105E9F477FF1AC06DE20E94E6228C01E1
:1046F00044275527BA014C195D096E097F092AE044
:10470000CE010E940323800F911FDF91CF911F9153
:104710000F91FF90EF90DF90CF9008952AE0B701BE
:10472000A601CE01DF91CF911F910F91FF90EF90E5
:10473000DF90CF900C9403232115310541F4DC0167
:10474000ED91FC910190F081E02D642F09940C947F
:1047500003239A01462F50E060E070E00C949C2304
:104760000F931F93CF93DF93EC019A01462F50E0F4
:1047700060E070E00E949C238C01CE010E94ED223B
:10478000800F911FDF91CF911F910F9108950F938B
:104790001F93CF93DF93EC010E949C238C01CE01E9
:1047A0000E94ED22800F911FDF91CF911F910F91F9
:1047B00008954F925F926F927F928F929F92AF92E5
:1047C000BF92CF92DF92EF92FF920F931F93CF93FE
:1047D000DF93EC016A017B01B22E9A01AB01C701A4
:1047E000B6010E942827882319F064E975E027C0E4
:1047F00026013701E89477F82FEF3FEF4FE75FE7A7
:10480000C301B2010E94282781110DC02FEF3FEF95
:104810004FE75FE7C301B2010E94722518161CF42E
:1048200068E975E00CC02FEF3FEF4FE75FE4C70189
:10483000B6010E94C1261816ACF46CE975E0CE01F1
:10484000DF91CF911F910F91FF90EF90DF90CF906C
:10485000BF90AF909F908F907F906F905F904F90A0
:104860000C94CE222FEF3FEF4FE75FECC701B6016C
:104870000E94722587FDE1CF20E030E0A901C70149
:10488000B6010E94722587FF0AC06DE2CE010E9428
:10489000E6228C01F7FAF094F7F8F09402C000E0F9
:1048A00010E0A12C60E070E080E09FE3AB1441F0E9
:1048B00020E030E040E251E40E947625A394F6CF58
:1048C0009B01AC01C701B6010E940E256B017C0162
:1048D0000E94E3252B013C010E940F269B01AC01A5
:1048E000C701B6010E940D256B017C012AE0B301CE
:1048F000A201CE010E940323080F191FBB2039F02B
:1049000060EA75E0CE010E94CE22080F191F7B2CB1
:10491000772041F120E030E040E251E4C701B601E8
:104920000E94C5266B017C010E94DE254B01AA2452
:1049300097FCA094BA2C2AE030E0B501A401CE0186
:104940000E945223080F191FC501B4010E941126AD
:104950009B01AC01C701B6010E940D256B017C01D2
:104960007A94D6CFC801DF91CF911F910F91FF901C
:10497000EF90DF90CF90BF90AF909F908F907F90FF
:104980006F905F904F9008950F931F93CF93DF9395
:10499000EC010E94D9238C01CE010E94ED22800FF0
:1049A000911FDF91CF911F910F910895CF93DF93C6
:1049B00000D000D0CDB7DEB79B01AC016115710509
:1049C0008105910569F069833A834B835C830E947A
:1049D000E82729813A814B815C810E945A2703C0D4
:1049E00060E070E0CB010F900F900F900F90DF917F
:1049F000CF9108950E94F62708950E94E91F0E9412
:104A0000FC240E943409C9EED0E20E9419032097C9
:104A1000E1F30E94E920F9CF08955058BB27AA2757
:104A20000ED075C166D130F06BD120F031F49F3FCC
:104A300011F41EF45BC10EF4E095E7FB51C1E92FC0
:104A400077D180F3BA17620773078407950718F0C8
:104A500071F49EF58FC10EF4E0950B2EBA2FA02DA8
:104A60000B01B90190010C01CA01A0011124FF271B
:104A7000591B99F0593F50F4503E68F11A16F04016
:104A8000A22F232F342F4427585FF3CF4695379515
:104A90002795A795F0405395C9F77EF41F16BA0BDA
:104AA000620B730B840BBAF09150A1F0FF0FBB1F88
:104AB000661F771F881FC2F70EC0BA0F621F731FD1
:104AC000841F48F4879577956795B795F7959E3F2E
:104AD00008F0B3CF9395880F08F09927EE0F9795BC
:104AE00087950895D9D008F481E008950CD00FC1BE
:104AF00007D140F0FED030F021F45F3F19F0F0C054
:104B0000511139C1F3C014D198F39923C9F3552336
:104B1000B1F3951B550BBB27AA27621773078407B0
:104B200038F09F5F5F4F220F331F441FAA1FA9F366
:104B300033D00E2E3AF0E0E830D091505040E69558
:104B4000001CCAF729D0FE2F27D0660F771F881FB9
:104B5000BB1F261737074807AB07B0E809F0BB0BA8
:104B6000802DBF01FF2793585F4F2AF09E3F5105CC
:104B700068F0B6C000C15F3FECF3983EDCF3869569
:104B800077956795B795F7959F5FC9F7880F911D42
:104B90009695879597F90895E1E0660F771F881F2E
:104BA000BB1F621773078407BA0720F0621B730BE1
:104BB000840BBA0BEE1F88F7E095089504D0689433
:104BC000B111D9C00895BCD088F09F5790F0B92F8B
:104BD0009927B751A0F0D1F0660F771F881F991F52
:104BE0001AF0BA95C9F712C0B13081F0C3D0B1E064
:104BF0000895C0C0672F782F8827B85F39F0B93F74
:104C0000CCF3869577956795B395D9F73EF4909553
:104C10008095709561957F4F8F4F9F4F0895E894D1
:104C200009C097FB3EF490958095709561957F4FF4
:104C30008F4F9F4F9923A9F0F92F96E9BB279395A2
:104C4000F695879577956795B795F111F8CFFAF4B2
:104C5000BB0F11F460FF1BC06F5F7F4F8F4F9F4FE3
:104C600016C0882311F096E911C0772321F09EE841
:104C7000872F762F05C0662371F096E8862F70E0A7
:104C800060E02AF09A95660F771F881FDAF7880F81
:104C90009695879597F90895990F0008550FAA0BD7
:104CA000E0E8FEEF16161706E807F907C0F012163F
:104CB0001306E407F50798F0621B730B840B950B42
:104CC00039F40A2661F0232B242B252B21F4089597
:104CD0000A2609F4A140A6958FEF811D811D089534
:104CE00097F99F6780E870E060E008959FEF80EC9F
:104CF000089500240A941616170618060906089542
:104D000000240A9412161306140605060895092EA7
:104D10000394000C11F4882352F0BB0F40F4BF2B16
:104D200011F460FF04C06F5F7F4F8F4F9F4F089556
:104D300057FD9058440F551F59F05F3F71F047954C
:104D4000880F97FB991F61F09F3F79F08795089531
:104D5000121613061406551FF2CF4695F1DF08C050
:104D6000161617061806991FF1CF8695710561056D
:104D700008940895E894BB2766277727CB0197F915
:104D800008958ADF08F48FEF08950BD0C0CFB1DF0C
:104D900028F0B6DF18F0952309F0A2CFA7CF112491
:104DA000EACFC6DFA0F3959FD1F3950F50E0551FD2
:104DB000629FF001729FBB27F00DB11D639FAA2770
:104DC000F00DB11DAA1F649F6627B00DA11D661FBF
:104DD000829F2227B00DA11D621F739FB00DA11DE0
:104DE000621F839FA00D611D221F749F3327A00D9A
:104DF000611D231F849F600D211D822F762F6A2F36
:104E000011249F5750408AF0E1F088234AF0EE0FBA
:104E1000FF1FBB1F661F771F881F91505040A9F7C7
:104E20009E3F510570F05CCFA6CF5F3FECF3983EFC
:104E3000DCF3869577956795B795F795E7959F5F2E
:104E4000C1F7FE2B880F911D9695879597F90895C8
:104E500023DF880B990B0895991B79E004C0991FF3
:104E6000961708F0961B881F7A95C9F780950895C4
:104E7000A1E21A2EAA1BBB1BFD010DC0AA1FBB1F5E
:104E8000EE1FFF1FA217B307E407F50720F0A21BD0
:104E9000B30BE40BF50B661F771F881F991F1A943D
:104EA00069F760957095809590959B01AC01BD0167
:104EB000CF010895052E97FB1EF400940E947127E0
:104EC00057FD07D00E94382707FC03D04EF40C94FE
:104ED000712750954095309521953F4F4F4F5F4F2B
:104EE000089590958095709561957F4F8F4F9F4F56
:104EF00008950E948A27A59F900DB49F900DA49FAE
:104F0000800D911D11240895EE0FFF1F0590F4915F
:104F1000E02D0994A29FB001B39FC001A39F700D23
:104F2000811D1124911DB29F700D811D1124911DB1
:104F300008958F929F92AF92BF92CF92DF92EF929D
:104F4000FF92CF93DF93EC01688179818A819B8105
:104F5000611571058105910521F464E279ED8BE518
:104F600097E02DE133EF41E050E00E945A274901DC
:104F70005A019B01AC01A7EAB1E40E9479276B01B9
:104F80007C01ACEEB4EFA50194010E94FE27C60E91
:104F9000D71EE81EF91EF7FE06C081E0C81AD10828
:104FA000E10880E8F80AC882D982EA82FB82C70158
:104FB000B6019F77DF91CF91FF90EF90DF90CF9078
:104FC000BF90AF909F908F9008950E949927089569
:104FD00086E091E00E9499270895609306017093FE
:104FE00007018093080190930901089581E090E002
:104FF000F8940C940328B7FF0C9479270E94792722
:0A500000821B930B0895F894FFCF74
:10500A0000003A07800001000000000103070F1F9B
:10501A003F7F0080C0E0F0F8FCFE000000000000C6
:10502A000000000000000000000000000000000076
:10503A000000000000000000000000000000000066
:10504A000000000000000000000000000000000056
:10505A0000000000000000000080808000000000C6
:10506A0000000000000000000000008080C0C000B6
:10507A000000000000000000000000000000000026
:10508A000000000000000000000000000000000016
:10509A000000000000000000000000000000000006
:1050AA00000000000000000000000000000080C0B6
:1050BA00E0F0F8FCF8E0000000000000000000004A
:1050CA000000000000000080808080800080800056
:1050DA00000000808080808000FFFFFF0000000049
:1050EA008080808000008080000080FFFF80800038
:1050FA008080008080808000808000000000008026
:10510A008000008C8E84000080F8F8F8800000008F
:10511A0000000000000000000000F0F0F0F0F0F0E5
:10512A00F0F0F0F0F0F0E0E0C08000E0FCFEFFFFFD
:10513A00FF7FFFFFFFFFFF000000000000000000EC
:10514A000000000000FEFFC70101010183FFFF000C
:10515A00007CFEC70101010183FFFFFF0038FEC783
:10516A008301010183C7FFFF000001FFFF01010066
:10517A00FFFF0701010100007FFF80000000FFFF21
:10518A007F0000FFFFFF000001FFFFFF010000009A
:10519A0000000000000000000000030F3F7F7FFFB7
:1051AA00FFFFFFFFFFFFE7C7C78F8F9FBFFFFFC349
:1051BA00C0F0FFFFFFFFFFFCFCFCFCFCFCFCFCF862
:1051CA00F8F0F0E0C0000103030303030103030046
:1051DA0000000001030303030101030100000001B1
:1051EA00030303030101030300000003030000009B
:1051FA00030300000000000000010303030303018E
:10520A000000000103010000000303010000000088
:10521A000000000000000000000000000080C0E064
:10522A00F0F9FFFFFFFFFF3F1F0F87C7F7FFFF1FC1
:10523A001F3DFCF8F8F8F87C7DFFFFFFFFFFFFFF3A
:10524A00FF7F3F0F07003030000000000000000021
:10525A000000000000000000000000000000FEFE48
:10526A00FC00000000000000000000000000000038
:10527A0000000000000000E0C00000000000000084
:10528A0000000000303000000000000000000000B4
:10529A000000000000000000000000C0FEFFFFFF49
:1052AA00FFFFFFFFFFFF7F7F3F1F0F071F7FFFFFEC
:1052BA00F8F8FFFFFFFFFFFEF8E000000001000022
:1052CA00000000000000FEFE000000FCFEFC0C06D0
:1052DA00060EFCF80000F0F81C0E0606060CFFFF8E
:1052EA00FF0000FEFE00000000FCFEFC00183C7EF1
:1052FA0066E6CE84000006FFFF0606FCFEFC0C06EE
:10530A0006060000FEFE0000C0F8FC4E4646464E69
:10531A007C7840183C76E6CECC8000000000000085
:10532A00000000000000000000000000000001076B
:10533A000F1F1F3F3F3F3F1F0F03000000000000E9
:10534A000000000000000F0F0000000F0F0F000008
:10535A0000000F0F000003070E0C18180C060F0FA1
:10536A000F0000010F0E0C180C0F070100040E0CA1
:10537A00180C0F070000000F0F00000F0F0F00009E
:10538A00000000000F0F00000007070C0C181C0C8F
:10539A00060600040E0C180C0F070000000000009F
:1053AA0000000000000000000000000000000000F3
:1053BA0000000000000000000000000000000000E3
:1053CA0000000000000000000000000000000000D3
:1053DA0000000000000000000000000000000000C3
:1053EA0000000000000000000000000000000000B3
:1053FA0000000000000000000000000000000000A3
:10540A000000000000000000000000000000000092
:10541A0000000000000000000000783A2000207917
:10542A003A20002064793A20007363726F6C6C0032
:10543A0048656C6C6F2C20776F726C642100307831
:10544A000000000000430B160BEB0AF30A060B15CB
:10545A000B00000000F117A622FA247D0D830E9A94
:10546A000E340EB00EE50E030F00000000F117A671
:10547A00225D1B7D0D221AEA18340EB00EE50E03CA
:10548A000F000000003A21A622BC20D520C7201810
:10549A00210D0A006E616E00696E66006F76660005
:0254AA002E00D2
:00000001FF
