:100000000C94492C0C94662C0C94662C0C94662C45
:100010000C94662C0C94662C0C94662C0C94662C18
:100020000C94662C0C94662C0C94662C0C94662C08
:100030000C94662C0C94662C0C94662C0C94662CF8
:100040000C94662C0C94662C0C94662C0C94662CE8
:100050000C94662C0C94662C0C94662C0C94662CD8
:100060000C94662C0C94662C22001D0002002000CB
:100070007F00A000FF00080028008E040C003C0058
:10008000B6040F004B00F20412005A003D051300A5
:100090005F0097051A008200F60519007D007806BA
:1000A00008002800F5060B0037001D070B0037007D
:1000B000540712005A008B0712005A00E507090086
:1000C0002D003F080B0037006C0809002D00A30825
:1000D0000E004600D00813005F00160913005F00F1
:1000E000750913005F00D40913005F00330A130081
:1000F0005F00920A13005F00F10A13005F00500BCB
:1001000013005F00AF0B13005F000E0C13005F00C5
:100110006D0C0A003200CC0C0A003200FE0C1200FA
:100120005A00300D12005A008A0D12005A00E40DD8
:10013000110055003E0E2100A500930E1500690028
:10014000380F14006400A10F14006400051017009C
:100150007300691012005A00DC10110055003611AE
:10016000170073008B1117007300FE1109002D009A
:1001700071120C003C009E1213005F00DA12100096
:10018000500039132000A0008913180078002914AA
:1001900019007D00A11413005F001E1519007D00D9
:1001A0007D1514006400FA15110055005E1612004A
:1001B0005A00B316180078000D171500690085174E
:1001C0002100A500EE1713005F00931812005A00DB
:1001D000F218110055004C190B003700A1190E0040
:1001E0004600D8190B0037001E1A12005A00551A83
:1001F00013005F00AF1A0B0037000E1B12005A00ED
:10020000451B13005F009F1B10005000FE1B1300D6
:100210005F004E1C12005A00AD1C0B003700071D7A
:10022000110055003E1D13005F00931D08002800BB
:10023000F21D09002D001A1E11005500471E08006E
:1002400028009C1E1E009600C41E13005F005A1F4B
:1002500014006400B91F13005F001D2013005F002D
:100260007C200D004100DB200E0046001C210C000C
:100270003C00622113005F009E2111005500FD210A
:100280001A008200522210005000D42211005500A2
:1002900024230F004B0079230C003C00C4231100E1
:1002A000550000240C003C00552412005A009124F3
:1002B00013005F00EB24080028004A250C003C00D6
:1002C000722512005A00AE2513005F0008261200A6
:1002D0005A00672613005F00C12612005A0020272B
:1002E00012005A007A270F004B00D4271F009B00F2
:1002F0001F280F004B00BA2813005F0005291200C9
:100300005A0064290B003700BE2913005F00F5294D
:100310000F004B00542A0D0041009F2A12005A0082
:10032000E02A0C003C003A2B0C003C00762B0B0022
:100330003700B22B14006400E92B16006E004D2C20
:1003400009002D00BB2C0B003700E82C09002D0004
:100350001F2D100050004C2D13005F009C2D180025
:100360007800FB2D19007D00732E19007D00F02E02
:10037000110055006D2F15006900C22F150069008E
:100380002B3015006900943015006900FD30150010
:100390006900663115006900CF311C008C003832CD
:1003A00014006400C43212005A00283312005A00AC
:1003B000823312005A00DC3312005A00363409002E
:1003C0002D00903409002D00BD340D004100EA34A9
:1003D0000A0032002B35170073005D3518007800D5
:1003E000D03519007D00483619007D00C53619004A
:1003F0007D00423719007D00BF3719007D003C3871
:1004000012005A00B93819007D001339180078001D
:10041000903918007800083A18007800803A1800DF
:100420007800F83A12005A00703B13005F00CA3B94
:1004300014006400293C12005A008D3C12005A003E
:10044000E73C12005A00413D12005A009B3D120049
:100450005A00F53D12005A004F3E1D009100A93E82
:10046000100050003A3F12005A008A3F12005A0012
:10047000E43F12005A003E4012005A009840080023
:100480002800F240080028001A410B0037004241C2
:1004900008002800794113005F00A14113005F00AC
:1004A0000042140064005F4214006400C342140060
:1004B00064002743140064008B4314006400EF437E
:1004C00012005A00534414006400AD4413005F004E
:1004D000114513005F00704513005F00CF45130006
:1004E0005F002E46110055008D4613005F00E24666
:1004F000110055004147000000000000000000000E
:1005000000000000000000000000000000000000EB
:1005100000000000000000000000000000000000DB
:10052000000000F0F0F0000000000000000000FFFC
:10053000FFFF0000000000000000007F7F7F000040
:10054000000000000000001E1E1E0C000000000045
:1005500000000000000000000000000000F0F0704B
:10056000000000F0F0F00000000000003F3F00003D
:1005700000003F3F3F0000000000000000000000BE
:10058000000000000000000000000000000000006B
:10059000000000000000000000000000000000005B
:1005A00000000000000000000000C0C0C00000000B
:1005B0000000C0C0C0000000003838F8FFFF3B3822
:1005C000383838FCFFFF383838003838F8FFFF3B40
:1005D00038383838FCFFFF383838000000001F1F5B
:1005E0000700000000181F1F0000000000000000AE
:1005F00000000000000000000000000000000000FB
:100600000000008080C0C0C0FCFCC4C0808000002E
:10061000000000003CFFFFE3C381810101010103F1
:1006200003000000000000000001010303030707AE
:100630000F0EFEFCF8E0000000000F0E1E1CFCFC7C
:10064000FC1C1C1E0E0F0703000000000000000031
:100650000001010000000000000000000000000098
:10066000C0C0E06060E0C0C000000000000000000A
:100670000080E0E020000000003FFFFF80808080DD
:10068000FFFF3F000080C0E0783C0F070100000042
:100690000000000000010101010180E0F03C1E07A4
:1006A00003F1FCFC0E06060EFCFCF000000000004E
:1006B00020383C0F07010000000000030F1F18182E
:1006C00018180F0F030000000000000000000000D9
:1006D000000000000000000000000000000000001A
:1006E0000000000000C0E0E0F070707070F0E0E02A
:1006F000C00000000000000000000000000F3F7F6D
:10070000F9E0C0C0E070783F1F0F0000000000005B
:1007100000000000F0FCFE0F070303070F1E3C78EB
:10072000F0E0C0C0F8FF3F07000000000001070F25
:100730000F1E1C1C1C1C1C1C0E0E070703070F0E93
:100740001E1C1C0000000000000000000000000053
:100750000000000000000000000000000000000099
:10076000F0F0F000000000003F3F0000000000003B
:100770000000000000000000000000000000000079
:1007800000000000000000000080F0F838080000C1
:100790000000C0FCFF3F01000000000000FFFFFF61
:1007A0000000000000000000011F7FFFE0000000CB
:1007B00000000000000003030300000000000838F0
:1007C000F8F0800000000000000000013FFFFEE0A4
:1007D0000000000000000000FFFFFF00000000001C
:1007E00000E0FFFF1F010000000000030303000002
:1007F000000000000000C0C0C08000F8F800808049
:10080000C0C00000000000003039391F0FFFFF0F8B
:100810001F19393000000000000000000000000136
:1008200001010000000000000000000000000000C6
:1008300000000000000000000000000000000000B8
:1008400000000000000000000000000000000000A8
:100850000000000000000000000000000000000098
:1008600000000000000000FCFCFC00000000000094
:1008700000000E0E0E0E0E0E0EFFFFFF0E0E0E0EE1
:100880000E0E000000000000000000070707000037
:100890000000000000000000000000000000000058
:1008A0000000000000000000000000000000000048
:1008B0000000000000000000000000000000000038
:1008C00000000000C0FEFE3E0E0000000303010019
:1008D0000000000000000000000000000000000018
:1008E00000000000000000000000001C1C1C1C1C7C
:1008F0001C1C1C1C00000000000000000000000088
:1009000000000000000000000000000000000000E7
:1009100000000000000000000000000000000000D7
:100920000000000000000000001E1E1E1E0000004F
:1009300000000000000000000000000000000000B7
:100940000080F0FC7C0C00000000000080E0FC7FD8
:100950001F03000000000000E0FCFF1F0300000078
:10096000000000E0FCFF1F0300000000000000008A
:10097000030303000000000000000000000000006E
:1009800000000080C0C0C0C0C0C0C08080000000A7
:100990000000E0FCFF1F0703010101010103071F25
:1009A000FFFEF000007FFFFFC0000000000000001D
:1009B0000000C0FFFF3F00000003070F0F1E1C1CBC
:1009C0001C1C1C1E0F070701000000000000000097
:1009D0000000000000000000000000000000000017
:1009E000000000008080C0C0C000000000000000C7
:1009F0000000000C0E06070301FFFFFF00000000CF
:100A0000000000000000000000000000FFFFFF00E9
:100A10000000000000000000001C1C1C1C1C1C1F0F
:100A20001F1F1C1C1C1C1C000000000000000000FC
:100A30000000000000000000000000000000008036
:100A40008080C0C0C0C0C0C0808000000000000026
:100A5000000707030301010101010387FFFF7E0077
:100A60000000000000000080C0E0F0783C1E0F0392
:100A7000010000000000001C1E1F1F1F1D1C1C1C6D
:100A80001C1C1C1C1C1C00000000000000000000BE
:100A900000000000000000000000000000000080D6
:100AA00080C0C0C0C0C0C0C0800000000000000006
:100AB000000783838381818181C1E37F7F1E0000E2
:100AC00000000000000303030303030307070EFEF7
:100AD000FCF000000000070F0E1E1C1C1C1C1C1C40
:100AE0000E0F0703010000000000000000000000DE
:100AF00000000000000000000000000000000000F6
:100B000000000000C0C0C0C0C00000000000000025
:100B10000000C0E0783E0F0701FFFFFF000000006B
:100B200000F0F8FEEFE3E1E0E0E0E0E0FFFFFFE0EF
:100B3000E0E0000000000000000000000000001FD6
:100B40001F1F000000000000000000000000000067
:100B5000000000000000000000000000C0C0C0C095
:100B6000C0C0C0C0C0C0C0C0C0000000000000FFC6
:100B7000FFFFC1C1C1C1C1C18181010100000000ED
:100B800000000101010101010101030307FFFFFC56
:100B9000000000000E0E1C1C1C1C1C1C1C1E0E0F3A
:100BA000070300000000000000000000000000003B
:100BB0000000000000000000000000000000808035
:100BC000C0C0C0C0C0C0C0800000000000E0F8FE8F
:100BD0001F0783838181818181030300000000005E
:100BE000FFFFFF87070303030303070FFFFEFC005C
:100BF0000000000003070F1E1C1C1C1C1C0E0F070E
:100C000003000000000000000000000000000000E1
:100C1000000000000000000000C0C0C0C0C0C0C094
:100C2000C0C0C0C0C0C0C0C00000000001010101C0
:100C30000101010101C1F1FF3F0F030000000000AD
:100C40000000000080F0FC7F1F0701000000000092
:100C50000000000000181E1F0F030000000000002D
:100C60000000000000000000000000000000000084
:100C7000000000000000000000008080C0C0C0C074
:100C8000C0C0C080000000000000003E7FFFE3C144
:100C90008101018181E3FF7F1E00000000E0F0F888
:100CA0001C0D07070707070F0E1CF8F8E0000000EF
:100CB00003070F0F1E1C1C1C1C1C1C1E0F0F070102
:100CC0000000000000000000000000000000000024
:100CD00000000000000000000080C0C0C0C0C0C014
:100CE000C08000000000000000FCFEFF870301013F
:100CF000010101030FFFFEF00000000000030707E1
:100D00000F0E0E0E0E0E07C7FFFF1F0000000000A3
:100D10000E0E1C1C1C1C1C1E0E0F070300000000E6
:100D200000000000000000000000000000000000C3
:100D300000000000000000000000000000000000B3
:100D400000F0F0F0F00000000000000000000000E3
:100D500000000000001E1E1E1E000000000000001B
:100D60000000000000000000000000000000000083
:100D7000000000F0F0F0F0000000000000000000B3
:100D8000000000000000C0FE7E1E00000000000306
:100D9000030100000000000000000000000000004F
:100DA00000000000000000000000000000000080C3
:100DB00080C0C0E0E0707038381C0C00000E0E1FC0
:100DC0001B3B337161E0E0C0C08080000000000088
:100DD00000000000000000000001010303070600FE
:100DE0000000000000000000000000000000000003
:100DF00000000000000000000000000000000000F3
:100E0000000000000000C0C0C0C0C0C0C0C0C0C062
:100E1000C0C0C0C0C0000000E1E1E1E1E1E1E1E10A
:100E2000E1E1E1E1E1E1E10000000000000000009B
:100E300000000000000000000000000000000000B2
:100E400000000000000000000000000000000000A2
:100E50000000000000000000000000000000000092
:100E60001C1C38387070E0E0C0C0808000000000BA
:100E7000000000808080C0C0E0E071713B3B1F1F1C
:100E80000E0000000707030301010000000000003E
:100E90000000000000000000000000000000000052
:100EA0000000000000000000C0E060707070707012
:100EB000F0E0E0C080000000000000000000000042
:100EC0000080C1FFFF7F00000000000000007F7F66
:100ED0007F03030301000000000000000000001E6B
:100EE0001E1E0C00000000000000000000000000BA
:100EF00000000000000000000000000000000000F2
:100F0000000000008080C0C0C0E0E0E0E0E0E0E081
:100F1000E0E0C0C080800000000000000000000091
:100F2000C0F0FC3E0F0783E3F171783838387870F1
:100F3000E0F8790103030FFFFEF800000000000055
:100F4000FEFFFF000000FEFFFFC1808080C0C0E008
:100F5000FCFFCF808080C0F0FF3F07000000000052
:100F600000030F3F7C78F0E0E1C3C3C3C3C3C1C03B
:100F7000C0C1E1E303030301010000000000000021
:100F8000000000000000000000010101010101015A
:100F9000010101000000000000000000000000004E
:100FA000000000000000000080C0C0C0C0000000C1
:100FB0000000000000000000000080F0FC7F0F0136
:100FC0000F3FFEF8C00000000000000080E0FCFFC2
:100FD0007F717070707070717F7FFEF8C0000000CC
:100FE0001C1F1F03000000000000000000000003A1
:100FF0001F1F1E1000000000000000000000000085
:10100000000000000000000000000000C0C0C0C0E0
:10101000C0C0C0C0C0C08080000000000000000050
:10102000FFFFFF818181818181C3C3FF7F3E00007B
:1010300000000000FFFFFF03030303030303070F88
:10104000FEFCF800000000001F1F1F1C1C1C1C1CC5
:101050001C1C0E0F07030100000000000000000030
:101060000000000000000000000000000000000080
:10107000000000008080C0C0C0C0C0C0C080800030
:10108000000000C0F8FC3F0F07030101010101014E
:10109000030307070000003FFFFFE080000000009F
:1010A0000000000000000000000000000003070F27
:1010B0000F1E1C1C1C1C1C1C1E0E0F070000000019
:1010C0000000000000000000000000000000000020
:1010D00000000000C0C0C0C0C0C0C0C0C0C0C08050
:1010E0008000000000000000000000FFFFFF010181
:1010F00001010101010303070F3FFEF8E0000000BA
:101100000000FFFFFF000000000000000000008062
:10111000E0FFFF1F00000000001F1F1F1C1C1C1C05
:101120001C1C1C1E0E0F0703010000000000000025
:1011300000000000000000000000000000000000AF
:1011400000000000000000C0C0C0C0C0C0C0C0C0DF
:10115000C0C0C0C00000000000FFFFFF010101018E
:101160000101010101010000000000FFFFFF07076E
:10117000070707070707070000000000001F1F1FE1
:101180001C1C1C1C1C1C1C1C1C1C00000000000047
:10119000000000000000000000000000000000004F
:1011A00000C0C0C0C0C0C0C0C0C0C0C0C00000003F
:1011B0000000FFFFFF010101010101010101000029
:1011C000000000FFFFFF07070707070707070200E8
:1011D000000000001F1F1F000000000000000000B2
:1011E00000000000000000000000000000000000FF
:1011F00000000000000000000000808080C0C0C02F
:10120000C0C0C0C0C080800000000000C0F8FC3E2C
:101210000F07030301010101010101030307070097
:101220000000001FFFFFE08000000000000707072C
:10123000070707FFFFFF0000000000000103070F82
:101240000E0E1C1C1C1C1C1C1C0E0F0F070000008B
:10125000000000000000000000000000000000008E
:10126000000000000000000000C0C0C0000000003E
:1012700000000000000000C0C0C00000000000002E
:10128000FFFFFF0000000000000000000000FFFF63
:10129000FF000000000000FFFFFF07070707070728
:1012A0000707070707FFFFFF0000000000001F1FE0
:1012B0001F00000000000000000000001F1F1F00B2
:1012C000000000000000000000000000000000001E
:1012D000000000000000000000000000C0C0C000CE
:1012E0000000000000FFFFFF000000000000FFFF03
:1012F000FF0000000000001F1F1F00000000000092
:10130000000000000000000000000000C0C0C0009D
:101310000000000000000000FFFFFF0000000000D0
:1013200000000000FFFFFF0000000E1E1C1C1C1E22
:101330000F0F03000000000000000000000000008C
:101340000000000000C0C0C000000000000000005D
:10135000C0C0C04000000000FFFFFF0080C0F07868
:101360003C1E0F0703000000000000FFFFFF030703
:101370000F3F7CF8E0C080000000000000001F1F4D
:101380001F00000000000003070F1E1C18000000D3
:10139000000000000000000000000000000000004D
:1013A00000000000C0C0C0000000000000000000FD
:1013B00000000000FFFFFF00000000000000000030
:1013C00000000000FFFFFF00000000000000000020
:1013D000000000001F1F1F1C1C1C1C1C1C1C1C1CB4
:1013E00000000000000000000000000000000000FD
:1013F00000000000C0C0C0C0C080000000000000AD
:101400000000000000000000C0C0C0C0C00000001C
:1014100000000000FFFFFF030F7FFEF0C000000090
:101420000000000080F0FC7F0F03FFFFFF000000C2
:1014300000000000FFFFFF000000010F3FFEF8C0AA
:1014400000C0F0FE3F0F01000000FFFFFF000000A2
:10145000000000001F1F1F000000000000010F1F00
:101460001F1F07010000000000001F1F1F000000D9
:10147000000000000000000000000000000000006C
:10148000000000000000000000000000000000005C
:1014900000000000C0C0C0C08000000000000000CC
:1014A000000000C0C0C0000000000000FFFFFF03FC
:1014B0000F3FFCF8E0800000000000FFFFFF00008D
:1014C00000000000FFFFFF0000000001071F7EFC7E
:1014D000F0C000FFFFFF0000000000001F1F1F0002
:1014E0000000000000000000030F1F1F1F1F00006E
:1014F00000000000000000000000000000000000EC
:1015000000000000000000000000000000000000DB
:101510008080C0C0C0C0C0C0C0C0808000000000CB
:1015200000000000E0F8FE3F0F0703010101010188
:10153000010103030F3FFEFCE0000000003FFFFF3E
:10154000E080000000000000000000000080E0FFDC
:10155000FF3F00000000000103070F0E1E1C1C1CB3
:101560001C1C1C1C0E0F07070300000000000000DD
:10157000000000000000000000000000000000006B
:10158000000000000000000000C0C0C0C0C0C0C01B
:10159000C0C0C0808000000000000000FFFFFF010D
:1015A00001010101010387FFFFFC0000000000FFB3
:1015B000FFFF0E0E0E0E0E0E0707030100000000C7
:1015C00000001F1F1F0000000000000000000000BE
:1015D000000000000000000000000000000000000B
:1015E00000000000000000000000008080C0C0C0BB
:1015F000C0C0C0C08080800000000000000000E08B
:10160000F8FE3F0F07030101010101010103030F70
:101610003FFEFCE0000000003FFFFFE08000000014
:10162000000000000000000080E0FFFF3F0000001D
:1016300000000103070F0E1E1C1C1C1C1C1C1C0E92
:101640000F0F1F3B387070E0E0000000000000004A
:10165000000000000000000000000000000000008A
:101660000000000000C0C0C0C0C0C0C0C0C0C0807A
:10167000800000000000000000FFFFFF01010101E9
:10168000010183C7FFFF7E000000000000FFFFFF95
:10169000070707070F0F3FFFF1E000000000000001
:1016A000001F1F1F0000000000000001071F1F1C7B
:1016B000000000000000000000000000000000002A
:1016C000000000000000000000008080C0C0C0C01A
:1016D000C0C0C08000000000003EFFFFE3C1818168
:1016E00001010103030000000000000001010303E9
:1016F00007070F1EFCFCF0000000070F0E1E1C1C4D
:101700001C1C1C1E0F070701000000000000000049
:101710000000000000000000000000C0C0C0C0C009
:10172000C0C0C0C0C0C0C0C0C0C0C0C000010101B6
:1017300001010101FFFFFF010101010101010000A1
:10174000000000000000FFFFFF000000000000009C
:1017500000000000000000001F1F1F00000000002C
:101760000000000000000000000000000000000079
:101770000000000000000000C0C0C0000000000029
:1017800000000000000000C0C0C000000000000019
:10179000FFFFFF000000000000000000000000FF4D
:1017A000FFFF000000000000FFFFFF8000000000BE
:1017B00000000000000080FFFFFF000000000000AC
:1017C0000003070F0F1E1C1C1C1C1C1C0E0F0F07F8
:1017D0000300000000000000000000000000000006
:1017E0000000000000000000000000000000C0C079
:1017F000C08000000000000000000000000080C069
:10180000C0400000073FFFFCE000000000000000B7
:1018100000E0FCFF1F03000000000000073FFFF88E
:10182000E00000E0FCFF1F030000000000000000DB
:10183000000000010F1F1F1F1F0700000000000015
:101840000000000000000000000000000000000098
:1018500000000000000000C0C0C0800000000000C8
:101860000000000080C0C0C00000000000000000B8
:10187000000080C0C0C00000000F7FFFF8C0000063
:1018800000000080F8FF3F0F7FFFF08000000000A5
:101890000080F8FF7F07000000000000033FFFFC0E
:1018A000C00080F8FF1F03000000073FFFF8C000E2
:1018B000C0FCFF1F0300000000000000000000014A
:1018C0000F1F1E1F1F0100000000000000031F1F4C
:1018D0001C1F0F01000000000000000000000000BD
:1018E00000000000000000000000000000000000F8
:1018F00000000000000000000000000040C0C0C068
:1019000000000000000000000080C0C0C000000017
:1019100001070F3FFCF8E080C0F0FC3E1F0701000C
:101920000000000000C0E0F87F1F071F7FF8F0C034
:101930000000000000181C1F0F0301000000000041
:1019400001030F1F1E18000000000000000000002F
:101950000000000000000000000040C0C0C0000007
:101960000000000000000080C0C040000001071F10
:101970007FFCE0800080E0F87E1F0701000000008F
:101980000000000107FFFEFF07010000000000004B
:10199000000000000000001F1F1F000000000000EA
:1019A0000000000000000000000000000000000037
:1019B0000000000000C0C0C0C0C0C0C0C0C0C0C0E7
:1019C000C0C0C0C000000101010101010181C1F1DD
:1019D000F93F1F070300000000C0E0F87C3E0F073E
:1019E00001000000000000001E1F1F1F1D1C1C1C0A
:1019F0001C1C1C1C1C1C1C0800000000000000001B
:101A0000000000000000000000000000E0F0F070A6
:101A100070707000000000FFFFFF00000000000079
:101A20000000FFFFFF0000000000000000FFFFFFBC
:101A30000000000000000000030303030303030091
:101A40000878F8F0800000000000000000000000AE
:101A5000030F7FFCF0800000000000000000000089
:101A600000031F7FFCE08000000000000000000079
:101A70000000031F7FFCE080000000000000000069
:101A80000000000303030000707070F0F0F000002D
:101A9000000000000000FFFFFF0000000000000049
:101AA00000FFFFFF0000000000000000FFFFFF003C
:101AB0000000000003030303030300000000000014
:101AC00000000000C0C0C0C0000000000000000016
:101AD000000080E0FC7F0F03030F3FFCF0C000001C
:101AE00000000006070701000000000000010707D2
:101AF00007000000000000000000000000000000DF
:101B000000000000000000000000000000000000D5
:101B100000000000000000000000000000000000C5
:101B200000000000000000000000000000000000B5
:101B300000000000000000000000000000000000A5
:101B40000000000000000000000000000000000095
:101B50000000000000000000000000000000000085
:101B6000000000030303030303030303030303034E
:101B7000030303030303000000183878F0C080005B
:101B80000000000000000000010100000000000053
:101B90000000000000000000000000000000000045
:101BA0000000000000000000000000000000000035
:101BB0000000000000000000000000000000000025
:101BC0000000E0E0707070707070F0E0E080000085
:101BD000000000C0E0F070383838383838FFFFFFB8
:101BE0000000000000030F0F1E1C1C1C1C0E0E1F0B
:101BF0001F1F0000000000000000000000000000A7
:101C000000000000000000000000F0F0F000000004
:101C100000000000000000000000000000FFFFFFC7
:101C2000C0E0E070707070F0E0E0C0000000000004
:101C3000FFFFFF010000000000000081FFFFFE0029
:101C40000000001F1F1F070E0E1C1C1C1C1E0F0770
:101C50000300000000000000000000000000000081
:101C60000000000000000000000000000000000074
:101C700000000000000000000080C0E0E070707014
:101C80007070F0E0C0000000FEFFFF830000000065
:101C900000000001010000000003070F1E1C1C1CB7
:101CA0001C1C0E0E070000000000000000000000D9
:101CB0000000000000000000000000000000000024
:101CC00000000000F0F0F0000000000080C0E0F034
:101CD00070707070E0E0C0FFFFFF00000000FEFFCA
:101CE000FF030000000000000001FFFFFF000000F4
:101CF0000000070F0F1E1C1C1C1C0E0E071F1F1FB1
:101D000000000000000000000000000000000000D3
:101D100000000000000000000000000000000000C3
:101D20000000000000000000000080C0E0E07070D3
:101D3000707070F0E0C08000000000FEFFFF3938D6
:101D4000383838383838393F3F3E00000000030744
:101D50000F0E1C1C1C1C1C1C1C0E0E000000000086
:101D60000000000000000000000000000000000073
:101D7000000080E0E0F0707070E0707070FFFFFFB6
:101D80007070707000000000FFFFFF000000000096
:101D90000000001F1F1F00000000000000000000E6
:101DA0000000000000000000000000000000000033
:101DB00000000000000000000080C0E0F0707070C3
:101DC00070F0F0F07070700000009FFFFF70E0E0B6
:101DD000E0E0F07F3F1F00000000E0F3FFBF1C1CAD
:101DE0001C1C1C1C1CBCF8F8F000000103030303BE
:101DF0000303030303030303010000000000F0F0EA
:101E0000F0000000000000000000000000000000E2
:101E100000FFFFFFC0E0E0707070F0F0E0C08000F5
:101E200000000000FFFFFF0100000000000001FFB4
:101E3000FFFF00000000001F1F1F00000000000047
:101E400000001F1F1F000000000000000000000035
:101E500000000000000000000000000000C0C0C042
:101E6000C000000000F1F1F10100000000FFFFFFE1
:101E700000000000001F1F1F000000000000000005
:101E8000000000000000C0C0C0C00000000000F161
:101E9000F1F1010000000000FFFFFF000000000062
:101EA00080FFFFFF000003030303030301000000A2
:101EB0000000F0F0F0000000000000000000000052
:101EC000000000FFFFFF00000080C0E0F070100085
:101ED00000000000FFFFFF083E7FF7E3C1000000A5
:101EE00000000000001F1F1F0000000003070F1E5E
:101EF0001C100000000000000000000000000000B6
:101F000000000000000000F0F0F00000000000FF02
:101F1000FFFF0000000000FFFFFF00000000001FA7
:101F20001F1F000000000000000000000000000073
:101F300000000000000000000000000000000000A1
:101F400000000000000000000000000000F0F0F0C1
:101F5000C0E0E0707070F0F0E0C080C0E0607070D1
:101F600070F0E0C080000000000000FFFFFF0100F3
:101F7000000000000001FFFFFF0100000000000161
:101F8000FFFFFF0000000000001F1F1F00000000F7
:101F9000000000001F1F1F000000000000001F1FA6
:101FA0001F00000000000000000000000000000012
:101FB0000000000000000000000000000000000021
:101FC0000000000000000000000000000000000011
:101FD0000000000000000000F0F0F0C0E0E07070D1
:101FE00070F0F0E0C0800000000000FFFFFF010083
:101FF000000000000001FFFFFF00000000001F1FA5
:102000001F00000000000000001F1F1F0000000054
:1020100000000000000000000000000000000000C0
:1020200000000000000000000000000000000000B0
:10203000000000000000000080C0E0E0F070707060
:102040007070E0E0C0800000000000FEFFFF830031
:102050000000000000000083FFFFFE000000000001
:1020600003070F0E1C1C1C1C1C1E0E0F0703000078
:102070000000000000000000000000000000000060
:102080000000000000000000000000000000000050
:102090000000000000000000000000F0F0F0C0E0D0
:1020A000E070707070F0E0E0C00000000000FFFF22
:1020B000FF010000000000000081FFFFFE000000A3
:1020C00000FFFFFF070E0E1C1C1C1C1E0F07030049
:1020D00000000000030303000000000000000000F7
:1020E00000000000000000000000000000000000F0
:1020F0000000000000000000000080C0E0F07070F0
:102100007070E0E0C0F0F0F000000000FEFFFF03A0
:102110000000000000000001FFFFFF0000000000C1
:10212000070F0F1E1C1C1C1C0E0E07FFFFFF0000DC
:102130000000000000000000000000000000030399
:10214000030000000000000000000000000000008C
:10215000000000F0F0F0C0E0F0707070700000005F
:10216000FFFFFF010000000000000000001F1F1F14
:10217000000000000000000000000000000000005F
:10218000000000000000000000000000000000004F
:1021900000000080E0E0F07070707070F0E000000F
:1021A00000070F0F1C1C38383070F0E0C000000E24
:1021B0001E1C1C1C1C1C1C1E0F0703000000000022
:1021C000000000000000000000000000000000000F
:1021D000000000000000707070FFFFFF70707070F2
:1021E0007000000000FFFFFF000000000000000082
:1021F00000070F1F1E1C1C1C0E000000000000002A
:1022000000000000000000000000000000000000CE
:10221000000000000000000000000000F0F0F000EE
:1022200000000000000000F0F0F00000000000FFDF
:10223000FFFF0000000000000000FFFFFF000000A3
:10224000000003070F1F1E1C1C1C0E0E071F1F1F64
:10225000000000000000000000000000000000007E
:10226000000000000000000000000000000000006E
:1022700000000000000030F0F0E00000000000006E
:102280000000E0F0F010000000073FFFF8C0000081
:10229000C0F8FF1F070000000000000001071F1F1B
:1022A0001F1F0700000000000000000000000000E9
:1022B000000000000000000000000000000000001E
:1022C000000000000000000000000000000000000E
:1022D000000000000070F0F0C0000000000000E00E
:1022E000F0F0F000000000000000F0F070000000CE
:1022F000031FFFFCE00000F0FE3F07073FFFF880F0
:1023000000C0F8FF3F0700000000000000071F1F8B
:102310001F1F0300000000011F1F1C1F0F010000F2
:1023200000000000000000000000000000000000AD
:10233000000000000000000000000000000000009D
:10234000000000000000000000000000001070F01D
:10235000F0C00000000080E0F070300000000000DD
:1023600083E7FF7E7CFFEFC30100000000181C1F05
:102370000F0301000001030F1F1E180000000000E2
:10238000000000000000000000000000000000004D
:10239000000000000000000000000000000070F0DD
:1023A000F0C000000000000000C0F0F030000000AD
:1023B000030F7FFEF0800080F0FE7F0F0100000021
:1023C0000000000003CFFFFE7F0F010000000000AF
:1023D00000000000000203030100000000000000F4
:1023E00000000000000000000000000000000000ED
:1023F00000007070707070707070F0F0F00000008D
:1024000000000080E0F0783E0F07030000000000AD
:102410001E1F1F1F1D1C1C1C1C1C1C1C0000000060
:1024200000000000000000000000000000000000AC
:1024300000C0E0F0707000000000000080FFFF1F8F
:102440000000000000000E1F3BFBF1000000000038
:102450000000000000FFFFFF00000000000000007F
:10246000000103030303000000000000000000F867
:10247000F8F800000000000000000000000000006C
:10248000FFFFFF000000000000000000000000004F
:1024900000FFFFFF0000000000000000000000003F
:1024A0000000FFFFFF00000000000000000000002F
:1024B00000000003030300000000000000000070A3
:1024C0007070F0E0C0000000000000000000FFFF9E
:1024D000FF000000000000000000C1F3FB3F0E0EF3
:1024E000000000000000FFFFFF00000000000003EC
:1024F00003030303000000000000000000000000D0
:102500000000000000000000000000003C3E0F073B
:1025100007070F1E3C78707070383E0E00000000F8
:1025200000000000000000000000000000000000AB
:10253000000000000000000000000000000000009B
:10254000000000000000000000000000000000008B
:1025500000000000C0C0404040404040404040407B
:10256000404040C0C00000FFFF00000C0606060609
:10257000060CFCF00000FFFF0000FFFF0000000061
:102580009E9E86060303000000FFFF00001F1F1031
:102590001010101313131010101010101F1F000034
:1025A000000000000000000000000000000000002B
:1025B000000000000000000000000000000000001B
:1025C000000000000000000000000000000000000B
:1025D00000000000000000000000000000000000FB
:1025E00000000000000000000006CFCFCF00000078
:1025F000000000000000FFFFFF00000000000000DE
:102600000000FFFFFF0000000000000000000101CB
:10261000010000000000000000000000000000C0F9
:10262000C000000000000000000000C0F0F87C1EA8
:102630000E0F0F0E0E1C1C3800000000001FFFFFC5
:10264000F0C08080808080C0C0E0000000000000FA
:1026500000010103031F1F0303010100000000002C
:10266000000000000000000000000000000000006A
:102670000000000000008080C0C0C0C0C0C08080DA
:1026800000000000000000FCFFFF07030101010142
:1026900001030307000000070707FFFFFF07070705
:1026A000070707070000000000001C1C1C1F1F1F5D
:1026B0001C1C1C1C1C1C1C1C1C1C00000000000002
:1026C000000000000000000000000000000000000A
:1026D00000000000000000000000000000000000FA
:1026E00000000107CFFEF8703838383878F8FCFF62
:1026F0008F030000000E7FFFE0C080808080C0E07C
:10270000FF7F1F000000101C1E0F070303030303BD
:1027100003030F1F1C180000000000000000000051
:1027200000000000000000000000C0C0C0800000E9
:102730000000000000000080C0C0C00000000103D5
:102740000F1F3CF8E0C0E0F83C1E0F030100000042
:10275000008E8E8E8E8E8EFFFFFF8E8E8E8E8E8ED4
:10276000000000000303030303031F1F1F030303F1
:102770000303030000000000000000000000000050
:102780000000000000000000000000000000000049
:10279000F8F8F80000000000000000000000000051
:1027A0000000FFFFFF00000000000000000000002C
:1027B0000000000080808000000000000000000099
:1027C000000000000000FFFFFF000000000000000C
:1027D00000000000000000000303030000000000F0
:1027E00000000000000080E0E0F070707070E0E039
:1027F00000000000000000C0E7FF7F387070E0E0DC
:10280000C0C08000000000000F3F7F78F0E0E0C013
:10281000C0C0E1FF7F1F000000000070E0E0C0C00A
:10282000C1C1E3FF7F3E0000000000000000000186
:10283000010101010100000000000000000000C0D3
:10284000C0C0000000C0C0C00000000000000101C6
:102850000100000001010100000000000000000074
:102860000000000000000000000000000000000068
:102870000000000000000000000000000000000058
:102880000000000000000000000000000080C0C048
:1028900060607030303030303030706060E0C08068
:1028A000000000000000000000E0FCFF070100E065
:1028B000F8FC3C1E0E0E0E0E0C1C0000000107FF63
:1028C000FCE00000000000001FFFFFC000000F3F01
:1028D0007F78F0E0E0E0E0607000000000C0FF7F83
:1028E0000700000000000000000103070E0C0C1C94
:1028F000181818181818181C0C0E060703010000E9
:1029000000000000000000000000000000000000C7
:1029100000000000000000000000000000000000B7
:1029200000000000008080C0C0C0C0C08000000067
:10293000000000E0F3F319191919FFFFFF00000070
:102940000000C1C3C7C7C7C7C7C3C7C700000000CF
:10295000000101010101010101010100000000006D
:102960000000000000000000000000000000000067
:102970000000000000000000000000000000000057
:102980000000000080C0F07030000080E0F07000B7
:102990000000000000083EFFF7C100001C3EFFE3FE
:1029A000C100000000000000000000010707060051
:1029B0000000010707040000000000000000000004
:1029C0000000000000000000000000000000000007
:1029D00000000000000000000000000000000000F7
:1029E00000000000000000000000000000000000E7
:1029F000000E0E0E0E0E0E0E0E0E0E0E0E0E0EFE15
:102A0000FE000000000000000000000000000000C8
:102A100000000000000000000000000000000000B6
:102A200000000000000000000000000000000000A6
:102A3000000000000000000000000000001C1C1C42
:102A40001C1C1C1C1C1C00000000000000000000DE
:102A50000000000000000000000000000000000076
:102A600080C0602090909090902060C08000000016
:102A700000001E7FC080007F08083F774080E17F14
:102A80000000000000000000010102020202020139
:102A90000100000000000000000000000000000035
:102AA0000000000000000000000000000000000026
:102AB0000000000000000000000000000000E0E056
:102AC000E0E0E0E0E0E0E0E0000000000000000006
:102AD00000000000000000000000000000000000F6
:102AE00000000000000000000000000000000000E6
:102AF00000000000000000000000000000000000D6
:102B0000000000000000000000C0E070303070E005
:102B1000C00000000000070F1C18181C0F07000061
:102B200000000000000000000000000000000000A5
:102B30000000000000000000000000000000000095
:102B40000000000000000000000000000000000085
:102B50008080000000000000000000C0C0C0C0C0B5
:102B6000C0C0FFFFC0C0C0C0C0C0C00000010101A4
:102B700001010101FFFF0101010101010100001C30
:102B80001C1C1C1C1C1C1C1C1C1C1C1C1C1C1C00A1
:102B90000000000000000000000000000000000035
:102BA00000000038381C1C1C1CFCF8F0000000E081
:102BB000F0F8FCEEE7E3E1E0E000000000000000D8
:102BC0000000000000000000000000000000000005
:102BD00000000000000000000000000000000038BD
:102BE000381C1C1C9CFCF8700000007070E3E3E3D0
:102BF000E3F77E7E3C0000000000000000000000C3
:102C000000000000000000000000000000000000C4
:102C10000000000000000000000000000080C0F084
:102C200078381800000000000101000000000000DA
:102C30000000000000000000000000000000000094
:102C40000000000000000000000000000000000084
:102C50000000000000000000000000000000000074
:102C60000000000000000000F0F0F0000000000094
:102C7000000000F0F0F0000000000000FFFFFF0087
:102C800000000000000000FFFFFF00000000000047
:102C9000FFFFFF0F1E1C1C1C0E0E07070F1F1C1C26
:102CA0001C000000030303000000000000000000FF
:102CB0000000000000000000000080C0C0C0C0C0D4
:102CC000C0C0C0C0C0C0C0000000000000FCFEFFCB
:102CD000FFFFFFFFFFFFFF01010101FFFF000000F9
:102CE000000000000303070F0F0F0FFFFF0000009D
:102CF00000FFFF00000000000000000000000000D6
:102D000000FFFF00000000FFFF00000000000000C7
:102D100000000000000000010100000000010100AF
:102D200000000000000000000000000000000000A3
:102D300000000000000000001E1E1E1E000000001B
:102D40000000000000000000000000000000000083
:102D50000000000000000000000000000000000073
:102D60000000000000000000000000000000000063
:102D70000000000000002060C0800000000003038D
:102D80000303030303000030301818FCFC000000AC
:102D900000000000FFFF0000000000000000000035
:102DA0000000000000000000000000000000000023
:102DB000000000000000000080C0C0C0C0C0C08093
:102DC000000000000000FEFFFF8301010101C7FFBA
:102DD000FF7C0000000080C3C3C7C7C7C7C7C3C309
:102DE000C100000000000001010101010101010119
:102DF00001000000000000000000000000000000D2
:102E000000000000000000000000000000000000C2
:102E1000000000000000000000003070F0C08000E2
:102E2000003070F0C000000000000000000000C191
:102E3000E3FF3E1C0000C1F7FF3E08000000000059
:102E4000040707010000000607070100000000005A
:102E50000000000000000000000000000000000072
:102E60000000008080C0E0E0E00000000000000002
:102E70000000000080E0E02000000001010000FFF1
:102E8000FF000000000080C0E0783C0F0701000058
:102E900000000000000000010180E0F03C1E07037C
:102EA00081E0781C0EFEFE00000000000020383C8F
:102EB0000F0701000000000707060606061F1F0691
:102EC00006000000000000000000000000000000FC
:102ED00000000000000000000000008080C0E0E072
:102EE000E0000000000000000000000080E0E020A2
:102EF0000000000001010000FFFF00000000008052
:102F0000C0E0783C0F070100000000000000000056
:102F100000010180E0F03C1E0703010C060606C616
:102F2000FEFC38000000000020383C0F07010000C4
:102F300000000000181C1E1F1B19181818000000A4
:102F40000000000000000000000000000000000081
:102F5000000000000000000000C0E060606060C091
:102F6000C00000000000000000000080E0E0200041
:102F70000000C08C8C8C8CDEFBFB7000000080C0DD
:102F8000E0783C0F07010000000000000101010192
:102F9000010180E0F03C1E0783E1781C0EFEFE007C
:102FA0000000000000000020383C0F070100000076
:102FB0000707060606061F1F0606000000000000A1
:102FC0000000000000000000000000000000000001
:102FD00000000000000000000000000000000000F1
:102FE0000000000000000000000000000006CFCF3D
:102FF000CF0000000000000000C0E0F07838181F8B
:103000001F1F00000000000000003F7FFFF0E0C035
:10301000C0C0C0C0C0E060000000000000000001AF
:10302000010101010100000000000000000000009B
:10303000010387CECCC8C0000000000000000000E3
:103040000000000080F0FC7F0F010F3FFEF8C00081
:1030500000000000000080E0FCFF7F717070707065
:1030600070717F7FFEF8C00000001C1F1F0300006E
:10307000000000000000000000031F1F1E100000E1
:103080000000000000000000000000000000000040
:10309000000000000000000000000080C0C8CCCE8E
:1030A0000703010000000000000000000080F0FCA9
:1030B0007F0F010F3FFEF8C00000000000000080FD
:1030C000E0FCFF7F717070707070717F7FFEF8C0E0
:1030D0000000001C1F1F0300000000000000000093
:1030E0000000031F1F1E1000000000000000000071
:1030F00000000000000000000000000000000000D0
:1031000000080C0C8EC7C3C1C3070E0C0C080000CE
:1031100000000000000080F0FC7F0F010F3FFEF870
:10312000C00000000000000080E0FCFF7F717070B4
:10313000707070717F7FFEF8C00000001C1F1F03BD
:103140000000000000000000000000031F1F1E1010
:10315000000000000000000000000000000000006F
:103160000000000000000000000E0F030383C7CF23
:10317000CECE0E070300000000000000000000801B
:10318000F0FC7F0F010F3FFEF8C0000000000000C0
:103190000080E0FCFF7F717070707070717F7FFE47
:1031A000F8C00000001C1F1F03000000000000000A
:1031B00000000000031F1F1E1000000000000000A0
:1031C00000000000000000000000000000000000FF
:1031D000000000000E0E8EC0C0C0C00E0E0E00001B
:1031E000000000000000000080F0FC7F0F010F3F96
:1031F000FEF8C00000000000000080E0FCFF7F71CE
:103200007070707070717F7FFEF8C00000001C1F2E
:103210001F030000000000000000000000031F1F4B
:103220001E10000000000000000000000000000070
:1032300000000000000000000000000000000F9FE0
:10324000D8D8D8CF07000000000000000000000020
:103250000080F0FC7F0F010F3FFEF8C0000000006F
:1032600000000080E0FCFF7F717070707070717FF3
:103270007FFEF8C00000001C1F1F030000000000BC
:10328000000000000000031F1F1E100000000000CF
:10329000000000000000000000000000000000002E
:1032A000000000000000000000000080C0C0C0C09E
:1032B000C0C0C0C0C0C0C0C0C0C0C00000000000CE
:1032C000000000C0F0FC7F1F0701FFFFFF010101AC
:1032D0000101010101010100000000C0F0FC7F7F3D
:1032E000777170707070FFFFFF0707070707070708
:1032F00007070000181E1F0F030000000000000059
:1033000000001F1F1F1C1C1C1C1C1C1C1C1C1C0048
:1033100000000000000000000000000000000000AD
:10332000000000000000000000000000000000009D
:103330000000008080C0C0C0C0C0C0C0808000004D
:103340000000C0F8FC3F0F07030101010101010368
:103350000307070000003FFFFFE0800000000000BF
:1033600000000000000000000000000103070F0F34
:103370001E1C1C3CFCDC1C1E0E0F07000000000085
:10338000000000020202020203030000000000002D
:10339000000000C0C0C1C3C7CECCC8C0C0C0C0C040
:1033A0000000000000FFFFFF010101010101010118
:1033B00001010000000000FFFFFF070707070707E4
:1033C0000707070000000000001F1F1F1C1C1C1C1B
:1033D0001C1C1C1C1C1C0000000000000000000045
:1033E00000000000000000000000000000C0C0C09D
:1033F000C0C0C0C8CCCEC7C3C1C00000000000FF21
:10340000FFFF0101010101010101010100000000B4
:1034100000FFFFFF07070707070707070700000070
:103420000000001F1F1F1C1C1C1C1C1C1C1C1C1C27
:10343000000000000000000000000000000000008C
:1034400000000000000000C8CCCCCEC7C3C1C3C779
:10345000CECCCCC80000000000FFFFFF010101013D
:103460000101010101010000000000FFFFFF07074B
:10347000070707070707070000000000001F1F1FBE
:103480001C1C1C1C1C1C1C1C1C1C00000000000024
:10349000000000000000000000000000000000002C
:1034A00000C0C0CECECEC0C0C0C0CECECEC0000008
:1034B000000000FFFFFF0101010101010101010105
:1034C0000000000000FFFFFF0707070707070707C7
:1034D000070000000000001F1F1F1C1C1C1C1C1CE0
:1034E0001C1C1C1C0000000000000000000000006C
:1034F0000000000000000000000103C7CECC08005F
:1035000000000000FFFFFF000000000000FFFFFFC1
:103510000000000000001F1F1F000000000000004E
:10352000000000000000C0C8CC0E0703010000FF2F
:10353000FFFF000000000000FFFFFF000000000090
:10354000001F1F1F0000000000000000000000001E
:103550000000080C0C0E07C3C1C3070E0C0C0800BA
:1035600000000000FFFFFF0000000000000000005E
:1035700000FFFFFF000000000000000000001F1F10
:103580001F0000000000000000000000000000001C
:103590000000000E0E0EC0C0C0000E0E0E00000097
:1035A000FFFFFF00000000000000FFFFFF00000021
:1035B000000000001F1F1F000000000000000000AE
:1035C0000000000000000000C0C0C0C0C0C0C0C0FB
:1035D000C0C0C0808000000000000000000000FFAC
:1035E000FFFF010101010101010303070F3FFEF885
:1035F000E00000070707FFFFFF07070707070000B6
:1036000000000080E0FFFF1F00000000001F1F1FE0
:103610001C1C1C1C1C1C1C0E0E0F070301000000B0
:10362000000000000000000000000000000000009A
:103630000000000000000000000000C0C0C0CE8FED
:10364000030303070F0E0E0E0703C0C0C0000000E7
:10365000000000FFFFFF030F3FFCF8E080000000C8
:103660000000FFFFFF000000000000FFFFFF000060
:10367000000001071F7EFCF0C000FFFFFF000000FC
:103680000000001F1F1F00000000000000000003DA
:103690000F1F1F1F1F00000000000000000000009F
:1036A000000000000000000000000000000000001A
:1036B000000000000000008081C3C7CECCC8C0C09D
:1036C000C080800000000000000000E0F8FE3F0F16
:1036D00007030101010101010103030F3FFEFCE0AB
:1036E000000000003FFFFFE080000000000000003D
:1036F0000000000080E0FFFF3F0000000000010329
:10370000070F0E1E1C1C1C1C1C1C1C0E0F07070385
:1037100000000000000000000000000000000000A9
:103720000000000000000000000000000000000099
:10373000000000008080C0C0C8CCCEC7C3C180805C
:103740000000000000000000E0F8FE3F0F0703014A
:1037500001010101010103030F3FFEFCE000000035
:10376000003FFFFFE08000000000000000000000BC
:103770000080E0FFFF3F00000000000103070F0E84
:103780001E1C1C1C1C1C1C1C0E0F07070300000029
:103790000000000000000000000000000000000029
:1037A0000000000000000000000000000000000019
:1037B000088C8CCEC7C3C1C3C7CECC8C8800000098
:1037C0000000000000E0F8FE3F0F070301010101C7
:1037D00001010103030F3FFEFCE0000000003FFF7A
:1037E000FFE080000000000000000000000080E01A
:1037F000FFFF3F00000000000103070F0E1E1C1C0E
:103800001C1C1C1C1C0E0F070703000000000000FE
:1038100000000000000000000000000000000000A8
:10382000000000000000000000000000000E8F8378
:10383000C3C3C7CFCECECEC7838000000000000038
:103840000000E0F8FE3F0F07030101010101010143
:1038500003030F3FFEFCE0000000003FFFFFE0809D
:10386000000000000000000000000080E0FFFF3FBB
:1038700000000000000103070F0E1E1C1C1C1C1C76
:103880001C1C0E0F070703000000000000000000D2
:103890000000000000000000000000000000000028
:1038A00000000000000000000000008E8ECEC0C0AE
:1038B000C0C0CECECE80800000000000000000E03E
:1038C000F8FE3F0F07030101010101010103030F8E
:1038D0003FFEFCE0000000003FFFFFE08000000032
:1038E000000000000000000080E0FFFF3F0000003B
:1038F00000000103070F0E1E1C1C1C1C1C1C1C0EB0
:103900000F07070300000000000000000000000097
:1039100000000000000000000000000000000000A7
:103920000000000000000000000000000000000097
:103930000000000000103870E0C08000000080C06F
:10394000E07038100000000080C0E0713B1F0E1FC7
:103950003B71E0C080000000000103010000000096
:103960000000000000010301000000000000000052
:103970000000000000000000000000000000000047
:1039800000808080C0C0C0C0C0C0C0C0F0FC3C0C83
:10399000000000000000E0FCFE3F0F0703010101F2
:1039A000C1E1F93F1F070FFFFEF8C0000000007FD4
:1039B000FFFFE08000C0F07C3F0F030000000080AC
:1039C000FCFFFF0F000000000001C3F7FF3F0F1DC9
:1039D0001C1C1C1C1C1E0E0F070301000000000015
:1039E00000000101010000000000000000000000D4
:1039F0000000000000000000000000C0C0C0000087
:103A00000103070E0C0800000000C0C0C000000049
:103A1000000000FFFFFF00000000000000000000A9
:103A20000000FFFFFF000000000000FFFFFF80001C
:103A300000000000000000000080FFFFFF00000009
:103A40000000000003070F0F1E1C1C1C1C1C1C0E7A
:103A50000F0F07030000000000000000000000003E
:103A60000000000000000000000000000000000056
:103A7000000000C0C0C00000000000080C0E0703DA
:103A80000100C0C0C0000000000000FFFFFF0000F8
:103A900000000000000000000000FFFFFF00000029
:103AA000000000FFFFFF8000000000000000000099
:103AB0000080FFFFFF0000000000000003070F0F61
:103AC0001E1C1C1C1C1C1C0E0F0F070300000000FA
:103AD00000000000000000000000000000000000E6
:103AE0000000000000000000000000C0C0C0080C82
:103AF0000C0E07030103070E0C0CC8C0C000000029
:103B0000000000FFFFFF00000000000000000000B8
:103B10000000FFFFFF000000000000FFFFFF80002B
:103B200000000000000000000080FFFFFF00000018
:103B30000000000003070F0F1E1C1C1C1C1C1C0E89
:103B40000F0F07030000000000000000000000004D
:103B50000000000000000000000000000000000065
:103B6000000000C0C0C0000E0E0E000000000E0ECF
:103B70000E00C0C0C0000000000000FFFFFF0000FA
:103B800000000000000000000000FFFFFF00000038
:103B9000000000FFFFFF80000000000000000000A8
:103BA0000080FFFFFF0000000000000003070F0F70
:103BB0001E1C1C1C1C1C1C0E0F0F07030000000009
:103BC00000000000000000000000000000000000F5
:103BD000000000000000000040C0C0C00000000065
:103BE00000080C0E0783C1C040000001071F7FFCC6
:103BF000E0800080E0F87E1F070100000000000068
:103C0000000107FFFEFF07010000000000000000A8
:103C100000000000001F1F1F000000000000000047
:103C20000000000000000000000000000000000094
:103C30000000000000C0C0C0000000000000000044
:103C40000000000000000000FFFFFF0E0E0E0E0E31
:103C50000E1E3CFCF8E00000000000FFFFFFE0E06B
:103C6000E0E0E0E070783F1F0700000000001F1F49
:103C70001F00000000000000000000000000000025
:103C80000000000000000000000000000000000034
:103C90000000000000C0E0E0F070707070F0E0C064
:103CA0008000000000000000FFFFFF010000C0E0F6
:103CB000F0703F3F1F00000000000000FFFFFF000A
:103CC0000000030F1F1C3C78F0E0C0000000000063
:103CD0001F1F1F0000000E1C1C1C1C1E0F0F0300CA
:103CE00000000000000000000000000000000000D4
:103CF00000000000000000000000183878F0C080CC
:103D000000000000000000000000E0E07070707033
:103D10007171F0E0E0800000000000C0E0F0703859
:103D20003838383838FFFFFF0000000000030F0F5D
:103D30001E1C1C1C1C0E0E1F1F1F0000000000007C
:103D40000000000000000000000000000000000073
:103D50000000000000000080C0F07838180000006B
:103D600000000000E0E0707070717170F0E0E080C1
:103D70000000000000C0E0F070383838383838FFF4
:103D8000FFFF0000000000030F0F1E1C1C1C1C0E78
:103D90000E1F1F1F000000000000000000000000B8
:103DA000000000000000000000000000000080E0B3
:103DB0007038183870E08000000000000000E0E17A
:103DC000717070707070F0E0E1810000000000C060
:103DD000E0F070383838383838FFFFFF0000000056
:103DE00000030F0F1E1C1C1C1C0E0E1F1F1F0000AB
:103DF00000000000000000000000000000000000C3
:103E0000000000000000C0E0707070F0E0C0C0C0B2
:103E1000F070000000000000E1E1707070707171DE
:103E2000F1E1E0800000000000C0E0F070383838B8
:103E3000383838FFFFFF0000000000030F0F1E1C82
:103E40001C1C1C0E0E1F1F1F0000000000000000A5
:103E50000000000000000000000000000000000062
:103E60000000C0C0C0000000C0C0C00000000000D2
:103E70000000E0E0717171707070F1E1E1800000AC
:103E8000000000C0E0F070383838383838FFFFFFE5
:103E90000000000000030F0F1E1C1C1C1C0E0E1F38
:103EA0001F1F0000000000000000000000000000D4
:103EB000000000000000000000000000E0F0181802
:103EC00018F8F0000000000000000000E0E071734E
:103ED00073737371F0E0E0800000000000C0E0F058
:103EE00070383838383838FFFFFF00000000000312
:103EF0000F0F1E1C1C1C1C0E0E1F1F1F000000009D
:103F000000000000000000000000000000000000B1
:103F100000000000000000000000000000000000A1
:103F20000000000000000000000000000000000091
:103F300000C0E0607070707070F0E0C0C0E0E070D1
:103F400070707070F0E0C0800000000000C0E0F011
:103F500070783838383838FFFFFF39383838383813
:103F60003838393F3F3E00000000030F0F1E1C1C75
:103F70001C1C0E0E0703070F0E1C1C1C1C1C1C0C0B
:103F80000E0E000000000000000000000000000015
:103F90000000000000000000000000000000000021
:103FA0000000000000000000000000000000000011
:103FB000000000000080C0E0E07070707070E0E011
:103FC000C0000000FEFFFF830000000000000001B1
:103FD000010000000003070F1E1C1C3CDC9C0E0EA1
:103FE00007000000000000030303030303030000B5
:103FF00000000000000000183878F0C080000000C9
:104000000000000000000080C0E0E070707171707E
:10401000F0E0C08000000000FEFFFF39383838387B
:10402000383838393F3F3E0000000003070F0E1CB0
:104030001C1C1C1C1C1C0E0E0000000000000000BC
:104040000000000000000000000000000000000070
:10405000000000000080C0F0783818000000000068
:104060000080C0E0E07070717170F0E0C08000000E
:104070000000FEFFFF3938383838383838393F3FCC
:104080003E0000000003070F0E1C1C1C1C1C1C1C07
:104090000E0E000000000000000000000000000004
:1040A000000000000000000000000080E0703818F0
:1040B0003870E0800000000000000080C1E1E07086
:1040C00070707070F0E1C18000000000FEFFFF39E9
:1040D00038383838383838393F3F3E000000000360
:1040E000070F0E1C1C1C1C1C1C1C0E0E00000000CC
:1040F00000000000000000000000000000000000C0
:104100000000000000C0C0C0000000C0C0C000002F
:10411000000000000080C0E1E17170707071F1E199
:10412000C08000000000FEFFFF39383838383838CA
:1041300038393F3F3E0000000003070F0E1C1C1CD7
:104140001C1C1C1C0E0E00000000000000000000E3
:1041500000000000000000000000183878F0C08067
:104160000000000000F0F1F10000000000FFFFFF80
:1041700000000000001F1F1F0000000000000000E2
:104180000000000080C0F07838180000F1F1F00065
:1041900000000000FFFFFF00000000001F1F1F00C5
:1041A000000000000000000000000080E0703818EF
:1041B0003870E0800001010000F0F0F00000010123
:1041C00000000000FFFFFF00000000000000001FD3
:1041D0001F1F0000000000000000000000000000A1
:1041E00000C0C0C00000C0C0C0010101F0F0F1017A
:1041F00001000000FFFFFF00000000001F1F1F0064
:1042000000000000000000000000000000008080AE
:1042100090F0F0E0C0C0C0E0E0E0000000000080EE
:10422000C0E3F373717171E3EFFFFCF080000000F5
:1042300000FEFFFF030000000000000081FFFF7F81
:104240000000000000070F0F1E1C1C1C1C1E0E0F80
:104250000703000000000000000000000000000054
:104260000000000000000000000000C0E07070705E
:10427000F0E0C0C0C0F07000000000000000F1F1EC
:10428000F0C0E0E0717171F1F0E0C080000000006A
:1042900000FFFFFF0100000000000001FFFFFF0022
:1042A000000000001F1F1F00000000000000001F92
:1042B0001F1F0000000000000000000000000000C0
:1042C0000000000000000000000000000018387826
:1042D000F0C080000000000000000000000080C06E
:1042E000E0E0F07070717170E0E0C08000000000EC
:1042F00000FEFFFF83000000000000000083FFFFBE
:10430000FE000000000003070F0E1C1C1C1C1C1EDE
:104310000E0F070300000000000000000000000076
:10432000000000000000000000000000000000008D
:104330000000000080C0F078381800000000000085
:10434000000080C0E0E0F07071717070E0E0C0804B
:104350000000000000FEFFFF8300000000000000DE
:104360000083FFFFFE000000000003070F0E1C1C6F
:104370001C1C1C1E0E0F07030000000000000000A4
:10438000000000000000000000000000000000002D
:104390000000000080E07038183870E080000000F5
:1043A00000000000000080C1E1E0F07070707070EB
:1043B000E1E1C0800000000000FEFFFF830000007C
:1043C000000000000083FFFFFE0000000000030764
:1043D0000F0E1C1C1C1C1C1E0E0F070300000000EF
:1043E00000000000000000000000000000000000CD
:1043F000000000000000C0E0707070F0E0C0C0C0BD
:10440000F070000000000000000081C1E0E0F070EA
:1044100071717171E0E0C0800000000000FEFFFFDC
:1044200083000000000000000083FFFFFE0000008A
:10443000000003070F0E1C1C1C1C1C1E0E0F070384
:10444000000000000000000000000000000000006C
:1044500000000000000000000000000000C0C0C01C
:10446000000000C0C0C0000000000000000080C0CC
:10447000E0E1F17170707071E1E1C0800000000056
:1044800000FEFFFF83000000000000000083FFFF2C
:10449000FE000000000003070F0E1C1C1C1C1C1E4D
:1044A0000E0F0703000000000000000000000000E5
:1044B00000000000000000000000000000000000FC
:1044C00000000000000000000000000000000000EC
:1044D000000000003C3C3C3C0000000000000000EC
:1044E0000E0E0E0E0E0E8E8E8E8E0E0E0E0E0E0EEC
:1044F0000E00000000000000070707070000000092
:1045000000000000000000000000000000000000AB
:10451000000000000000000000000000000000009B
:1045200000000000000000000000000080C0E0E08B
:10453000F070707070F0F8FEC6800000000000FEA1
:10454000FFFF830080E0703C0F030083FFFFFE004D
:104550000000000003C7FF3E1F1D1C1C1C1E0E0F89
:104560000703000000000000000000000000000041
:104570000000000000000000000000000000001823
:104580003878F0C08000000000000000000000F05B
:10459000F0F00000000001010000F0F0F000000069
:1045A0000000FFFFFF0000000000000000FFFFFF11
:1045B000000000000003070F1F1E1C1C1C0E0E072E
:1045C0001F1F1F000000000000000000000000008E
:1045D00000000000000000000000000000000000DB
:1045E0000080C0F078381800000000000000F0F0F3
:1045F000F00000000101000000F0F0F000000000F9
:1046000000FFFFFF0000000000000000FFFFFF00B0
:104610000000000003070F1F1E1C1C1C0E0E071FAE
:104620001F1F00000000000000000000000000004C
:1046300000000000000000000000000080E0703872
:10464000183870E0800000000000000000F0F1F178
:104650000000000000000001F1F0F0000000000088
:10466000FFFFFF0000000000000000FFFFFF000050
:1046700000000003070F1F1E1C1C1C0E0E071F1F2F
:104680001F0000000000000000000000000000000B
:104690000000000000000000000000C0C0C00000DA
:1046A00000C0C0C00000000000000000F0F0F101F8
:1046B00001000000010101F0F0F00000000000FF27
:1046C000FFFF0000000000000000FFFFFF000000EF
:1046D000000003070F1F1E1C1C1C0E0E071F1F1FB0
:1046E00000000000000000000000000000000000CA
:1046F0000000000000000000000000000080C0F08A
:104700007838180000000070F0F0C00000000101CF
:104710000000C0F0F030000000030F7FFEF08000CA
:1047200080F0FE7F0F010000000000000003CFFFBB
:10473000FE7F0F01000000000000000000000203E7
:1047400003010000000000000000000000F0F0F095
:104750000000000000000000000000000000000059
:10476000FFFFFFC0E0E070707070F0E0E0C000009C
:10477000000000FFFFFF010000000000000081FFBB
:10478000FFFE00000000FFFFFF070E0E1C1C1C1C9C
:104790001E0F0703000000000003030300000000D9
:1047A00000000000000000000000000000C0C0C0C9
:1047B000000000C0C0C0000000000070F0F0C101A7
:1047C000010000000101C1F0F030000000030F7F84
:1047D000FEF0800080F0FE7F0F010000000000006E
:1047E0000003CFFFFE7F0F0100000000000000006B
:1047F0000000020303010000000000000000080D9B
:10480000100040E0F0F8FCFEFF0000000103070F7D
:104810001F00080D100000FFFEFCF8F0E040001F34
:104820000F0703010000070B0E00808080FF8080CF
:1048300080000103070301000D000B001800200099
:104840007F00A000A000A400A400A600A700A9006B
:10485000A900AB00AE00B000B100B500B700BB00CE
:10486000BB0001040C040E044F0451045C045E04FC
:104870005F04900491041320142018201A201C2097
:104880001E202020222026202620302030203920E3
:104890003A20AC20AC20162116212221222103002F
:1048A0000600A00503000600A60505000A00AC05E9
:1048B00007000E00B60506000C00C4050800100035
:1048C000D00506000C00E00502000400EC05030022
:1048D0000600F00503000600F60504000800FC05CC
:1048E00006000C0004060300060010060300060084
:1048F0001606030006001C0605000A002206060034
:104900000C002C0606000C00380606000C004406BD
:1049100006000C00500606000C005C0606000C00A9
:10492000680606000C00740606000C0080060600EF
:104930000C008C0606000C00980603000600A40676
:1049400003000600AA0606000C00B00606000C00D4
:10495000BC0606000C00C80606000C00D4060B00BE
:104960001600E00607000E00F60607000E0004071A
:1049700007000E00120708001000200707000E00B5
:10498000300706000C003E07080010004A07080028
:1049900010005A07030006006A0705000A007007A6
:1049A00007000E007A0706000C00880709001200B5
:1049B000940708001000A60708001000B6070700BB
:1049C0000E00C60708001000D40708001000E40716
:1049D00007000E00F40707000E0002080800100090
:1049E000100807000E0020080B0016002E08070014
:1049F0000E00440807000E00520807000E00600871
:104A0000030006006E0805000A0074080300060093
:104A10007E0806000C00840806000C0090080300C5
:104A200006009C0806000C00A20806000C00AE0858
:104A300006000C00BA0806000C00C60806000C00B0
:104A4000D20803000600DE0806000C00E408060099
:104A50000C00F00802000400FC0802000400000939
:104A600006000C00040902000400100908001000F0
:104A7000140906000C00240906000C003009060089
:104A80000C003C0906000C0048090300060054090C
:104A900005000A005A0903000600640906000C001C
:104AA0006A0906000C00760908001000820905005A
:104AB0000A00920905000A009C0905000A00A609DF
:104AC00004000800B00902000400B809040008004E
:104AD000BC0907000E00C40903000600D209030048
:104AE0000600D80906000C00DE0902000400EA09ED
:104AF00006000C00EE0909001200FA0906000C007D
:104B00000C0A06000C00180A03000600240A09001B
:104B100012002A0A040008003C0A06000C00440A9D
:104B200006000C00500A06000C005C0A0300060098
:104B3000680A06000C006E0A07000E007A0A0900D7
:104B40001200880A06000C009A0A07000E00A60A46
:104B500007000E00B40A03000600C20A03000600A4
:104B6000C80A05000A00CE0A0B001600D80A0B007E
:104B70001600EE0A09001200040B07000E00160BC7
:104B800008001000240B07000E00340B07000E0075
:104B9000420B07000E00500B07000E005E0B0600D4
:104BA0000C006C0B09001200780B07000E008A0B3A
:104BB0000B001600980B07000E00AE0B080010004B
:104BC000BC0B08001000CC0B07000E00DC0B08002B
:104BD0001000EA0B09001200FA0B080010000C0C80
:104BE000080010001C0C080010002C0C07000E0020
:104BF0003C0C07000E004A0C07000E00580C080081
:104C00001000660C0B001600760C07000E008C0CD2
:104C1000080010009A0C08001000AA0C09001200ED
:104C2000BA0C0A001400CC0C08001000E00C0A00BA
:104C30001400F00C07000E00040D07000E00120D0A
:104C400009001200200D08001000320D06000C00B3
:104C5000420D06000C004E0D06000C005A0D05001A
:104C60000A00660D06000C00700D06000C007C0D9D
:104C700008001000880D06000C00980D06000C00BE
:104C8000A40D06000C00B00D06000C00BC0D0600C3
:104C90000C00C80D08001000D40D06000C00E40D37
:104CA00006000C00F00D06000C00FC0D06000C00C8
:104CB000080E06000C00140E05000A00200E050068
:104CC0000A002A0E08001000340E05000A00440EE7
:104CD00006000C004E0E05000A005A0E08001000D7
:104CE000640E09001200740E07000E00860E080004
:104CF0001000940E06000C00A40E06000C00B00E6E
:104D000008001000BC0E06000C00CC0E06000C00C3
:104D1000D80E06000C00E40E05000A00F00E060096
:104D20000C00FA0E05000A00060F02000400100F26
:104D300003000600140F020004001A0F0A001400FA
:104D40001E0F0A001400320F06000C00460F06006A
:104D50000C00520F05000A005E0F06000C00680FE1
:104D600006000C00740F05000A00800F05000A0001
:104D70008A0F06000C00940F03000600A00F03002A
:104D80000600A60F03000600AC0F04000800B20FD7
:104D900004000800BA0F05000A00C20F05000A004F
:104DA000CC0F05000A00D60F06000C00E00F06002D
:104DB0000C00EC0F0B001600F80F06000C000E1094
:104DC00006000C001A1006000C0026100B0016003E
:104DD000321009001200481000000000000000FC22
:104DE00000000500001C00001C0000000000001076
:104DF000FC1010FC1000010701010701003048FC05
:104E000088100002040F04030008149448201008BE
:104E1000000201000205050200986498008000036A
:104E200004040304001C000000F804000F10000438
:104E3000F800100F0028102800000000008080E01B
:104E400080800000000300000000000008040080D3
:104E500080000000000000000400000080601C00D2
:104E60000601000000F8040404F80003040404032D
:104E7000000808FC0000000000070000000804848F
:104E800044380006050404040008044444B8000241
:104E90000404040300806018FC0000010101070104
:104EA000007C242424C400020404040300F84444C5
:104EB0004488000304040403000404C4340C000008
:104EC0000700000000B8444444B80003040404038D
:104ED0000038444444F800020404040300200000A5
:104EE00004000000200008040080402010000000A2
:104EF0000102040000404040404000010101010166
:104F0000001020408000000402010000000804841A
:104F1000443800000005000000E01808C42424E420
:104F20000818E0000106040809090809010100C089
:104F3000300C30C0000601010101010600FC4444B0
:104F400044B8000007040404030000F80404040447
:104F5000080003040404040200FC04040408F00034
:104F6000000704040402010000FC4444440400005F
:104F700007040404040000FC444444040007000047
:104F8000000000F804044444C800000304040402C0
:104F9000070000FC40404040FC000007000000000B
:104FA000070000FC00000700000000FC00030404F0
:104FB000030000FC609008040000070000010204E8
:104FC00000FC0000000000070404040400FC30C0E2
:104FD00000C030FC0000070000030000070000FCD8
:104FE00018608000FC00000700000003070000F8C4
:104FF00004040404F800000304040404030000FC97
:1050000044444444380007000000000000F8040451
:105010000404F8000003040405060B0000FC4444EB
:105020004444B80000070000000007000038444472
:1050300044880000020404040300000404FC040487
:10504000000000000700000000FC00000000FC0061
:1050500000030404040403000C70800080700C0042
:105060000001060100000C708000807080008070DC
:105070000C00000106010001060100000C10A04018
:10508000A0100C060100000001060C1020C020102A
:105090000C000000070000000404844424140C06E3
:1050A00005040404040400FC04001F10001C6080BC
:1050B0000000000001060004FC00101F00080402AC
:1050C00004080000000000000000000000001010B4
:1050D000101010100004080000000000A0A0A0C0E4
:1050E00000030404040700FC202020C0000704047F
:1050F000040300C02020204000030404040200C078
:10510000202020FC00030404040700C0A0A0A0C0CD
:1051100000030404040200F82400070000C020205B
:1051200020E000131414140F00FC402020C00007DE
:105130000000000700E4000700E4001F00FC8040BE
:10514000200000070001020400FC000700E020200E
:10515000C02020C0000700000700000700E040203A
:1051600020C000070000000700C0202020C000036E
:105170000404040300E0202020C0001F04040403F2
:1051800000C0202020E000030404041F00E02000F1
:1051900007000040A02040000204050200F82000A3
:1051A000030400E0000000E00003040402070060C4
:1051B0008000806000000106010000E00080608047
:1051C00000E000010601000106010060808060002F
:1051D0000601010600E00000E010110E02010020AF
:1051E00020A06000060504040040BC02000007087F
:1051F00000FC000F0002BC40000807000010080877
:1052000010100800000000000000F808F80704076C
:10521000000000000000007488888874000100000D
:105220000001007C001F00689424448800040809E1
:105230000A0500708824545404887000000001019D
:1052400001010000000080408040000102050204CE
:10525000008080808080000000000001004040004D
:10526000000000FC027A2A2A5202FC00000101011F
:10527000010101000008140800000000004040F097
:10528000404000040405040420E00020E000000F7A
:105290000404070200387CFC04FC0000000F000F2F
:1052A0000040000000000040804080000004020533
:1052B000020100FC45444504000007040404040006
:1052C000040404FC44444480000000000700060479
:1052D000030000FC0406050400070000000000F8BD
:1052E0004444440408000304040404020038444411
:1052F0004488000002040404030000FC00000700CE
:1053000001FC01000700000000FC0003040403008E
:105310000000F8040404FC40404080000403000046
:1053200000070404040300FC40404040FC404040AF
:10533000800007000000000704040403040404FCC8
:10534000844444800000000007000000070000FCC7
:10535000609209040000070000010204007C8182C1
:105360008281FC00000204040404030000FC00002D
:1053700000FC000007041C04070000C0300C30C013
:10538000000601010101010600FC444444840000C0
:1053900007040404030000FC444444B8000007046C
:1053A0000404030000FC04040404000700000000DF
:1053B000000000FC040404FC00000C0605040404C6
:1053C000070C00FC444444040000070404040400E7
:1053D0000004089060FC60900804000402010000D2
:1053E000070000010204000008044444B80002045D
:1053F0000404040300FC00806018FC0000070300A4
:105400000000070000FC01826219FC000007030095
:105410000000070000FC6090080400000700000185
:1054200002040000F8040404FC000004030000006F
:10543000070000FC30C000C030FC00000700000383
:105440000000070000FC40404040FC000007000056
:105450000000070000F804040404F800000304043A
:105460000404030000FC04040404FC000007000022
:105470000000070000FC44444444380007000000DA
:10548000000000F8040404040800030404040402F7
:10549000000404FC04040000000007000000007C7D
:1054A00080808080FC00000204040404030000707B
:1054B000888888FC88888870000000000000070049
:1054C000000000000C10A040A0100C06010000001D
:1054D000010600FC000000FC0000000704040407B3
:1054E0000C00007C80808080FC0000000000000038
:1054F000070000FC0000FC0000FC0000070404079B
:105500000404070000FC0000FC0000FC0000000791
:105510000404070404070C000C04FC4040404080D5
:10552000000007040404040300FC404040408000E5
:10553000FC000007040404040300070000FC4040D2
:10554000404080000704040404030804444444F871
:10555000000204040404030000FC40F8040404F8FE
:10556000000007000304040403000038C44444445A
:10557000FC0000060100000007000000A0A0A0C081
:1055800000030404040700E0302828C400030404D6
:10559000040300E0A0A0A04000070404040300E00E
:1055A000202020000700000000C02020E0000C07A1
:1055B0000404070C00C0A0A0A0C00003040404025F
:1055C00000204080E0804020000403000700030426
:1055D000004020A0A04000020404040300E00000FA
:1055E00080E000070201000700E0081088E00007E3
:1055F0000201000700E080402000000700010204D3
:105600000000C02020E000040300000700E040800C
:10561000008040E0000700000300000700E08080F9
:1056200080E000070000000700C0202020C0000329
:105630000404040300E0202020E00007000000072D
:1056400000E0202020C0001F0404040300C020202C
:1056500020400003040404022020E0202000000772
:10566000000000E00000E0001112120F00C0202036
:10567000F02020C0000102020F02020100608080C1
:1056800060000601010600E00000E00000070404DD
:10569000070C00E00000E0000001010700E000004E
:1056A000E00000E0000704040704040700E0000035
:1056B000E00000E00000070404070404070860207D
:1056C000E0808080000000070404040300E0808084
:1056D000800000E0000704040403000700E080806D
:1056E00080000007040404034020A0A0C0000204BE
:1056F0000404030000E080C0202020C00007000355
:105700000404040300C0202020E00004030101077A
:1057100000C0A8A0A8C000030404040208FC482894
:1057200020C000070010100F00E020282400070010
:10573000000000C0A0A020400003040404020040B8
:10574000A02040000204050200E4000704E0040079
:10575000070000E4001F0000C02020E080808000DF
:105760000004030000070404040300E0808080E0DC
:10577000808080000007000000070404040308FC88
:10578000482828C000070000000700E080482400E7
:1057900000070001020400E40808E4001112120FDF
:1057A00000E0000000E00007041C040700FC040403
:1057B000040600070000000000E020203000070081
:1057C0000000004040400000000000004040404019
:1057D0004040000000000000081000000000001021
:1057E000080000000000000008040408040800008D
:1057F0000000080408040000000000000000000091
:10580000080408042020F8202000000700002020C1
:10581000F8202002020702020040E0E04000000001
:10582000000000000000000000000004000400046C
:10583000081494482010080400000002010002052A
:10584000050202050502000080400000000102047C
:105850000000000040800000000004020100A0F8E9
:10586000A424041800030404040300FC186080004E
:10587000FC0090A890000700000003070000000053
:10588000041C04001C0408041C00000000000000AC
:10589000000011241FBECFEFD8E0DEBFCDBF11E066
:1058A000A0E0B1E0E8E3FBE602C005900D92A6346B
:1058B000B107D9F725E0A6E4B1E001C01D92AF36EB
:1058C000B207E1F70E94C4330C949A350C9400009F
:1058D000CF93DF9300D01F92CDB7DEB78B838BE2DF
:1058E00090E0FC018081837F8A83198226C08A81AF
:1058F0008B7F8A838B8188231CF48A8184608A83CE
:105900008BE290E02A81FC0120838BE290E02BE285
:1059100030E0F90120812860FC0120838BE290E0D7
:105920002BE230E0F9012081277FFC0120838B816D
:10593000880F8B8389818F5F898389818830B8F252
:105940008BE290E02A812B7FFC0120838BE290E0A8
:105950002BE230E0F90120812860FC0120838BE2FA
:1059600090E02BE230E0F9012081277FFC012083C9
:1059700000000F900F900F90DF91CF910895CF937B
:10598000DF931F92CDB7DEB789838BE290E02BE2E5
:1059900030E0F90120812C60FC0120838AE290E054
:1059A0002AE230E0F90120812C60FC0120838BE2A7
:1059B00090E02BE230E0F90120812B7FFC01208375
:1059C0008BE290E02BE230E0F9012081277FFC019F
:1059D000208389810E94682C00000F90DF91CF9175
:1059E0000895CF93DF9300D000D000D0CDB7DEB7BD
:1059F0009D838C836E838BE290E0FC018081837FAA
:105A00008B837FC08C819D819C012F5F3F4F3D83A5
:105A10002C83FC0180818A838A81882319F08A8102
:105A20008F3F49F58B818B7F8B838A8188231CF480
:105A30008B8184608B838BE290E02B81FC0120833F
:105A4000198215C08BE290E02BE230E0F901208151
:105A50002860FC0120838BE290E02BE230E0F9012A
:105A60002081277FFC01208389818F5F8983898141
:105A7000883040F32BC0198226C08B818B7F8B83AB
:105A80008A8188231CF48B8184608B838BE290E075
:105A90002B81FC0120838BE290E02BE230E0F901C6
:105AA00020812860FC0120838BE290E02BE230E033
:105AB000F9012081277FFC0120838A81880F8A8356
:105AC00089818F5F898389818830B8F28BE290E089
:105AD0002BE230E0F90120812B7FFC0120838BE257
